{
	"contracts/MetaFinanceClubInfo.sol": {
		"MetaFinanceClubInfo": {
			"abi": [
				{
					"anonymous": false,
					"inputs": [
						{
							"indexed": false,
							"internalType": "uint8",
							"name": "version",
							"type": "uint8"
						}
					],
					"name": "Initialized",
					"type": "event"
				},
				{
					"anonymous": false,
					"inputs": [
						{
							"indexed": true,
							"internalType": "bytes32",
							"name": "role",
							"type": "bytes32"
						},
						{
							"indexed": true,
							"internalType": "bytes32",
							"name": "previousAdminRole",
							"type": "bytes32"
						},
						{
							"indexed": true,
							"internalType": "bytes32",
							"name": "newAdminRole",
							"type": "bytes32"
						}
					],
					"name": "RoleAdminChanged",
					"type": "event"
				},
				{
					"anonymous": false,
					"inputs": [
						{
							"indexed": true,
							"internalType": "bytes32",
							"name": "role",
							"type": "bytes32"
						},
						{
							"indexed": true,
							"internalType": "address",
							"name": "account",
							"type": "address"
						},
						{
							"indexed": true,
							"internalType": "address",
							"name": "sender",
							"type": "address"
						}
					],
					"name": "RoleGranted",
					"type": "event"
				},
				{
					"anonymous": false,
					"inputs": [
						{
							"indexed": true,
							"internalType": "bytes32",
							"name": "role",
							"type": "bytes32"
						},
						{
							"indexed": true,
							"internalType": "address",
							"name": "account",
							"type": "address"
						},
						{
							"indexed": true,
							"internalType": "address",
							"name": "sender",
							"type": "address"
						}
					],
					"name": "RoleRevoked",
					"type": "event"
				},
				{
					"anonymous": false,
					"inputs": [
						{
							"indexed": false,
							"internalType": "address",
							"name": "userAddress",
							"type": "address"
						},
						{
							"indexed": false,
							"internalType": "address",
							"name": "clubAddress",
							"type": "address"
						}
					],
					"name": "UserRegistration",
					"type": "event"
				},
				{
					"inputs": [],
					"name": "DATA_ADMINISTRATOR",
					"outputs": [
						{
							"internalType": "bytes32",
							"name": "",
							"type": "bytes32"
						}
					],
					"stateMutability": "view",
					"type": "function"
				},
				{
					"inputs": [],
					"name": "DEFAULT_ADMIN_ROLE",
					"outputs": [
						{
							"internalType": "bytes32",
							"name": "",
							"type": "bytes32"
						}
					],
					"stateMutability": "view",
					"type": "function"
				},
				{
					"inputs": [],
					"name": "MAX",
					"outputs": [
						{
							"internalType": "uint256",
							"name": "",
							"type": "uint256"
						}
					],
					"stateMutability": "view",
					"type": "function"
				},
				{
					"inputs": [],
					"name": "META_FINANCE_TRIGGER_POOL",
					"outputs": [
						{
							"internalType": "bytes32",
							"name": "",
							"type": "bytes32"
						}
					],
					"stateMutability": "view",
					"type": "function"
				},
				{
					"inputs": [],
					"name": "MONEY_ADMINISTRATOR",
					"outputs": [
						{
							"internalType": "bytes32",
							"name": "",
							"type": "bytes32"
						}
					],
					"stateMutability": "view",
					"type": "function"
				},
				{
					"inputs": [],
					"name": "PROJECT_ADMINISTRATOR",
					"outputs": [
						{
							"internalType": "bytes32",
							"name": "",
							"type": "bytes32"
						}
					],
					"stateMutability": "view",
					"type": "function"
				},
				{
					"inputs": [
						{
							"internalType": "address",
							"name": "userAddress_",
							"type": "address"
						},
						{
							"internalType": "address",
							"name": "clubAddress_",
							"type": "address"
						}
					],
					"name": "boundClub",
					"outputs": [],
					"stateMutability": "nonpayable",
					"type": "function"
				},
				{
					"inputs": [
						{
							"internalType": "address",
							"name": "clubAddress_",
							"type": "address"
						},
						{
							"internalType": "address",
							"name": "tokenAddress_",
							"type": "address"
						},
						{
							"internalType": "uint256",
							"name": "amount_",
							"type": "uint256"
						},
						{
							"internalType": "bool",
							"name": "addOrSub_",
							"type": "bool"
						}
					],
					"name": "calculateReward",
					"outputs": [],
					"stateMutability": "nonpayable",
					"type": "function"
				},
				{
					"inputs": [
						{
							"internalType": "uint256",
							"name": "",
							"type": "uint256"
						}
					],
					"name": "clubArray",
					"outputs": [
						{
							"internalType": "address",
							"name": "",
							"type": "address"
						}
					],
					"stateMutability": "view",
					"type": "function"
				},
				{
					"inputs": [
						{
							"internalType": "address",
							"name": "",
							"type": "address"
						},
						{
							"internalType": "address",
							"name": "",
							"type": "address"
						}
					],
					"name": "foundationData",
					"outputs": [
						{
							"internalType": "uint256",
							"name": "",
							"type": "uint256"
						}
					],
					"stateMutability": "view",
					"type": "function"
				},
				{
					"inputs": [
						{
							"internalType": "address",
							"name": "treasuryAddress_",
							"type": "address"
						}
					],
					"name": "getInitializeAbi",
					"outputs": [
						{
							"internalType": "bytes",
							"name": "",
							"type": "bytes"
						}
					],
					"stateMutability": "pure",
					"type": "function"
				},
				{
					"inputs": [
						{
							"internalType": "bytes32",
							"name": "role",
							"type": "bytes32"
						}
					],
					"name": "getRoleAdmin",
					"outputs": [
						{
							"internalType": "bytes32",
							"name": "",
							"type": "bytes32"
						}
					],
					"stateMutability": "view",
					"type": "function"
				},
				{
					"inputs": [
						{
							"internalType": "bytes32",
							"name": "role",
							"type": "bytes32"
						},
						{
							"internalType": "address",
							"name": "account",
							"type": "address"
						}
					],
					"name": "grantRole",
					"outputs": [],
					"stateMutability": "nonpayable",
					"type": "function"
				},
				{
					"inputs": [
						{
							"internalType": "bytes32",
							"name": "role",
							"type": "bytes32"
						},
						{
							"internalType": "address",
							"name": "account",
							"type": "address"
						}
					],
					"name": "hasRole",
					"outputs": [
						{
							"internalType": "bool",
							"name": "",
							"type": "bool"
						}
					],
					"stateMutability": "view",
					"type": "function"
				},
				{
					"inputs": [
						{
							"internalType": "address",
							"name": "treasuryAddress_",
							"type": "address"
						}
					],
					"name": "initialize",
					"outputs": [],
					"stateMutability": "nonpayable",
					"type": "function"
				},
				{
					"inputs": [],
					"name": "noClub",
					"outputs": [
						{
							"internalType": "uint256",
							"name": "",
							"type": "uint256"
						}
					],
					"stateMutability": "view",
					"type": "function"
				},
				{
					"inputs": [],
					"name": "proportion",
					"outputs": [
						{
							"internalType": "uint256",
							"name": "",
							"type": "uint256"
						}
					],
					"stateMutability": "view",
					"type": "function"
				},
				{
					"inputs": [
						{
							"internalType": "bytes32",
							"name": "role",
							"type": "bytes32"
						},
						{
							"internalType": "address",
							"name": "account",
							"type": "address"
						}
					],
					"name": "renounceRole",
					"outputs": [],
					"stateMutability": "nonpayable",
					"type": "function"
				},
				{
					"inputs": [
						{
							"internalType": "bytes32",
							"name": "role",
							"type": "bytes32"
						},
						{
							"internalType": "address",
							"name": "account",
							"type": "address"
						}
					],
					"name": "revokeRole",
					"outputs": [],
					"stateMutability": "nonpayable",
					"type": "function"
				},
				{
					"inputs": [
						{
							"internalType": "uint256",
							"name": "newYesClub_",
							"type": "uint256"
						},
						{
							"internalType": "uint256",
							"name": "newNoClub_",
							"type": "uint256"
						}
					],
					"name": "setClubProportion",
					"outputs": [],
					"stateMutability": "nonpayable",
					"type": "function"
				},
				{
					"inputs": [
						{
							"internalType": "uint256",
							"name": "newProportion_",
							"type": "uint256"
						}
					],
					"name": "setProportion",
					"outputs": [],
					"stateMutability": "nonpayable",
					"type": "function"
				},
				{
					"inputs": [
						{
							"internalType": "address",
							"name": "newTreasury_",
							"type": "address"
						}
					],
					"name": "setTreasuryAddress",
					"outputs": [],
					"stateMutability": "nonpayable",
					"type": "function"
				},
				{
					"inputs": [
						{
							"internalType": "bytes4",
							"name": "interfaceId",
							"type": "bytes4"
						}
					],
					"name": "supportsInterface",
					"outputs": [
						{
							"internalType": "bool",
							"name": "",
							"type": "bool"
						}
					],
					"stateMutability": "view",
					"type": "function"
				},
				{
					"inputs": [],
					"name": "treasuryAddress",
					"outputs": [
						{
							"internalType": "address",
							"name": "",
							"type": "address"
						}
					],
					"stateMutability": "view",
					"type": "function"
				},
				{
					"inputs": [
						{
							"internalType": "uint256",
							"name": "",
							"type": "uint256"
						}
					],
					"name": "userArray",
					"outputs": [
						{
							"internalType": "address",
							"name": "",
							"type": "address"
						}
					],
					"stateMutability": "view",
					"type": "function"
				},
				{
					"inputs": [
						{
							"internalType": "address",
							"name": "",
							"type": "address"
						}
					],
					"name": "userClub",
					"outputs": [
						{
							"internalType": "address",
							"name": "",
							"type": "address"
						}
					],
					"stateMutability": "view",
					"type": "function"
				},
				{
					"inputs": [],
					"name": "yesClub",
					"outputs": [
						{
							"internalType": "uint256",
							"name": "",
							"type": "uint256"
						}
					],
					"stateMutability": "view",
					"type": "function"
				}
			],
			"devdoc": {
				"kind": "dev",
				"methods": {
					"boundClub(address,address)": {
						"details": "User binding club",
						"params": {
							"clubAddress_": "Club address",
							"userAddress_": "User address"
						}
					},
					"calculateReward(address,address,uint256,bool)": {
						"details": "Calculate Club Rewards",
						"params": {
							"addOrSub_": "Add or sub",
							"amount_": "Amount",
							"clubAddress_": "Club address",
							"tokenAddress_": "Token address"
						}
					},
					"getRoleAdmin(bytes32)": {
						"details": "Returns the admin role that controls `role`. See {grantRole} and {revokeRole}. To change a role's admin, use {_setRoleAdmin}."
					},
					"grantRole(bytes32,address)": {
						"details": "Grants `role` to `account`. If `account` had not been already granted `role`, emits a {RoleGranted} event. Requirements: - the caller must have ``role``'s admin role."
					},
					"hasRole(bytes32,address)": {
						"details": "Returns `true` if `account` has been granted `role`."
					},
					"renounceRole(bytes32,address)": {
						"details": "Revokes `role` from the calling account. Roles are often managed via {grantRole} and {revokeRole}: this function's purpose is to provide a mechanism for accounts to lose their privileges if they are compromised (such as when a trusted device is misplaced). If the calling account had been revoked `role`, emits a {RoleRevoked} event. Requirements: - the caller must be `account`."
					},
					"revokeRole(bytes32,address)": {
						"details": "Revokes `role` from `account`. If `account` had been granted `role`, emits a {RoleRevoked} event. Requirements: - the caller must have ``role``'s admin role."
					},
					"setClubProportion(uint256,uint256)": {
						"details": "Set the club reward ratio",
						"params": {
							"newNoClub_": "New no Club",
							"newYesClub_": "New yes Club"
						}
					},
					"setProportion(uint256)": {
						"details": "Set proportion",
						"params": {
							"newProportion_": "New proportion"
						}
					},
					"setTreasuryAddress(address)": {
						"details": "Set treasury address",
						"params": {
							"newTreasury_": "New treasury address"
						}
					},
					"supportsInterface(bytes4)": {
						"details": "See {IERC165-supportsInterface}."
					}
				},
				"version": 1
			},
			"evm": {
				"assembly": "    /* \"contracts/MetaFinanceClubInfo.sol\":280:3801  contract MetaFinanceClubInfo is MfiAccessControl, MfiClubStorages, Initializable {... */\n  mstore(0x40, 0x80)\n  callvalue\n  dup1\n  iszero\n  tag_1\n  jumpi\n  0x00\n  dup1\n  revert\ntag_1:\n  pop\n  dataSize(sub_0)\n  dup1\n  dataOffset(sub_0)\n  0x00\n  codecopy\n  0x00\n  return\nstop\n\nsub_0: assembly {\n        /* \"contracts/MetaFinanceClubInfo.sol\":280:3801  contract MetaFinanceClubInfo is MfiAccessControl, MfiClubStorages, Initializable {... */\n      mstore(0x40, 0x80)\n      callvalue\n      dup1\n      iszero\n      tag_1\n      jumpi\n      0x00\n      dup1\n      revert\n    tag_1:\n      pop\n      jumpi(tag_2, lt(calldatasize, 0x04))\n      shr(0xe0, calldataload(0x00))\n      dup1\n      0xa217fddf\n      gt\n      tag_30\n      jumpi\n      dup1\n      0xd4b39b3a\n      gt\n      tag_31\n      jumpi\n      dup1\n      0xddc10a2f\n      gt\n      tag_32\n      jumpi\n      dup1\n      0xddc10a2f\n      eq\n      tag_26\n      jumpi\n      dup1\n      0xde3d3c98\n      eq\n      tag_27\n      jumpi\n      dup1\n      0xee286469\n      eq\n      tag_28\n      jumpi\n      dup1\n      0xff380f77\n      eq\n      tag_29\n      jumpi\n      jump(tag_2)\n    tag_32:\n      dup1\n      0xd4b39b3a\n      eq\n      tag_23\n      jumpi\n      dup1\n      0xd547741f\n      eq\n      tag_24\n      jumpi\n      dup1\n      0xd5cf419b\n      eq\n      tag_25\n      jumpi\n      jump(tag_2)\n    tag_31:\n      dup1\n      0xc0f6f33f\n      gt\n      tag_33\n      jumpi\n      dup1\n      0xc0f6f33f\n      eq\n      tag_19\n      jumpi\n      dup1\n      0xc4d66de8\n      eq\n      tag_20\n      jumpi\n      dup1\n      0xc5f956af\n      eq\n      tag_21\n      jumpi\n      dup1\n      0xd49d5181\n      eq\n      tag_22\n      jumpi\n      jump(tag_2)\n    tag_33:\n      dup1\n      0xa217fddf\n      eq\n      tag_16\n      jumpi\n      dup1\n      0xb9a503cd\n      eq\n      tag_17\n      jumpi\n      dup1\n      0xbd0dd4b2\n      eq\n      tag_18\n      jumpi\n      jump(tag_2)\n    tag_30:\n      dup1\n      0x2f2ff15d\n      gt\n      tag_34\n      jumpi\n      dup1\n      0x5b4246d4\n      gt\n      tag_35\n      jumpi\n      dup1\n      0x5b4246d4\n      eq\n      tag_12\n      jumpi\n      dup1\n      0x6605bfda\n      eq\n      tag_13\n      jumpi\n      dup1\n      0x91d14854\n      eq\n      tag_14\n      jumpi\n      dup1\n      0x9867ea2e\n      eq\n      tag_15\n      jumpi\n      jump(tag_2)\n    tag_35:\n      dup1\n      0x2f2ff15d\n      eq\n      tag_9\n      jumpi\n      dup1\n      0x36568abe\n      eq\n      tag_10\n      jumpi\n      dup1\n      0x41209af1\n      eq\n      tag_11\n      jumpi\n      jump(tag_2)\n    tag_34:\n      dup1\n      0x6cd200\n      eq\n      tag_3\n      jumpi\n      dup1\n      0x01ffc9a7\n      eq\n      tag_4\n      jumpi\n      dup1\n      0x0ea9fa1f\n      eq\n      tag_5\n      jumpi\n      dup1\n      0x1e00887d\n      eq\n      tag_6\n      jumpi\n      dup1\n      0x248a9ca3\n      eq\n      tag_7\n      jumpi\n      dup1\n      0x2edcb16e\n      eq\n      tag_8\n      jumpi\n    tag_2:\n      0x00\n      dup1\n      revert\n        /* \"contracts/MetaFinanceClubInfo.sol\":2296:3216  function setProportion(uint256 newProportion_) external onlyRole(DATA_ADMINISTRATOR) {... */\n    tag_3:\n      tag_36\n      0x04\n      dup1\n      calldatasize\n      sub\n      dup2\n      add\n      swap1\n      tag_37\n      swap2\n      swap1\n      tag_38\n      jump\t// in\n    tag_37:\n      tag_39\n      jump\t// in\n    tag_36:\n      stop\n        /* \"@openzeppelin/contracts/access/AccessControl.sol\":2606:2808  function supportsInterface(bytes4 interfaceId) public view virtual override returns (bool) {... */\n    tag_4:\n      tag_40\n      0x04\n      dup1\n      calldatasize\n      sub\n      dup2\n      add\n      swap1\n      tag_41\n      swap2\n      swap1\n      tag_42\n      jump\t// in\n    tag_41:\n      tag_43\n      jump\t// in\n    tag_40:\n      mload(0x40)\n      tag_44\n      swap2\n      swap1\n      tag_45\n      jump\t// in\n    tag_44:\n      mload(0x40)\n      dup1\n      swap2\n      sub\n      swap1\n      return\n        /* \"contracts/storages/MfiClubStorages.sol\":175:196  uint256 public noClub */\n    tag_5:\n      tag_46\n      tag_47\n      jump\t// in\n    tag_46:\n      mload(0x40)\n      tag_48\n      swap2\n      swap1\n      tag_49\n      jump\t// in\n    tag_48:\n      mload(0x40)\n      dup1\n      swap2\n      sub\n      swap1\n      return\n        /* \"contracts/utils/MfiAccessControl.sol\":283:392  bytes32 public constant MONEY_ADMINISTRATOR = bytes32(keccak256(abi.encodePacked(\"MFI_Money_Administrator\"))) */\n    tag_6:\n      tag_50\n      tag_51\n      jump\t// in\n    tag_50:\n      mload(0x40)\n      tag_52\n      swap2\n      swap1\n      tag_53\n      jump\t// in\n    tag_52:\n      mload(0x40)\n      dup1\n      swap2\n      sub\n      swap1\n      return\n        /* \"@openzeppelin/contracts/access/AccessControl.sol\":4391:4520  function getRoleAdmin(bytes32 role) public view virtual override returns (bytes32) {... */\n    tag_7:\n      tag_54\n      0x04\n      dup1\n      calldatasize\n      sub\n      dup2\n      add\n      swap1\n      tag_55\n      swap2\n      swap1\n      tag_56\n      jump\t// in\n    tag_55:\n      tag_57\n      jump\t// in\n    tag_54:\n      mload(0x40)\n      tag_58\n      swap2\n      swap1\n      tag_53\n      jump\t// in\n    tag_58:\n      mload(0x40)\n      dup1\n      swap2\n      sub\n      swap1\n      return\n        /* \"contracts/utils/MfiAccessControl.sol\":425:532  bytes32 public constant DATA_ADMINISTRATOR = bytes32(keccak256(abi.encodePacked(\"MFI_Data_Administrator\"))) */\n    tag_8:\n      tag_59\n      tag_60\n      jump\t// in\n    tag_59:\n      mload(0x40)\n      tag_61\n      swap2\n      swap1\n      tag_53\n      jump\t// in\n    tag_61:\n      mload(0x40)\n      dup1\n      swap2\n      sub\n      swap1\n      return\n        /* \"@openzeppelin/contracts/access/AccessControl.sol\":4770:4915  function grantRole(bytes32 role, address account) public virtual override onlyRole(getRoleAdmin(role)) {... */\n    tag_9:\n      tag_62\n      0x04\n      dup1\n      calldatasize\n      sub\n      dup2\n      add\n      swap1\n      tag_63\n      swap2\n      swap1\n      tag_64\n      jump\t// in\n    tag_63:\n      tag_65\n      jump\t// in\n    tag_62:\n      stop\n        /* \"@openzeppelin/contracts/access/AccessControl.sol\":5787:6001  function renounceRole(bytes32 role, address account) public virtual override {... */\n    tag_10:\n      tag_66\n      0x04\n      dup1\n      calldatasize\n      sub\n      dup2\n      add\n      swap1\n      tag_67\n      swap2\n      swap1\n      tag_64\n      jump\t// in\n    tag_67:\n      tag_68\n      jump\t// in\n    tag_66:\n      stop\n        /* \"contracts/storages/MfiClubStorages.sol\":202:228  address[] public userArray */\n    tag_11:\n      tag_69\n      0x04\n      dup1\n      calldatasize\n      sub\n      dup2\n      add\n      swap1\n      tag_70\n      swap2\n      swap1\n      tag_38\n      jump\t// in\n    tag_70:\n      tag_71\n      jump\t// in\n    tag_69:\n      mload(0x40)\n      tag_72\n      swap2\n      swap1\n      tag_73\n      jump\t// in\n    tag_72:\n      mload(0x40)\n      dup1\n      swap2\n      sub\n      swap1\n      return\n        /* \"contracts/utils/MfiAccessControl.sol\":176:201  uint256 public proportion */\n    tag_12:\n      tag_74\n      tag_75\n      jump\t// in\n    tag_74:\n      mload(0x40)\n      tag_76\n      swap2\n      swap1\n      tag_49\n      jump\t// in\n    tag_76:\n      mload(0x40)\n      dup1\n      swap2\n      sub\n      swap1\n      return\n        /* \"contracts/MetaFinanceClubInfo.sol\":3664:3799  function setTreasuryAddress(address newTreasury_) external onlyRole(DATA_ADMINISTRATOR) {... */\n    tag_13:\n      tag_77\n      0x04\n      dup1\n      calldatasize\n      sub\n      dup2\n      add\n      swap1\n      tag_78\n      swap2\n      swap1\n      tag_79\n      jump\t// in\n    tag_78:\n      tag_80\n      jump\t// in\n    tag_77:\n      stop\n        /* \"@openzeppelin/contracts/access/AccessControl.sol\":2895:3040  function hasRole(bytes32 role, address account) public view virtual override returns (bool) {... */\n    tag_14:\n      tag_81\n      0x04\n      dup1\n      calldatasize\n      sub\n      dup2\n      add\n      swap1\n      tag_82\n      swap2\n      swap1\n      tag_64\n      jump\t// in\n    tag_82:\n      tag_83\n      jump\t// in\n    tag_81:\n      mload(0x40)\n      tag_84\n      swap2\n      swap1\n      tag_45\n      jump\t// in\n    tag_84:\n      mload(0x40)\n      dup1\n      swap2\n      sub\n      swap1\n      return\n        /* \"contracts/MetaFinanceClubInfo.sol\":799:975  function getInitializeAbi(address treasuryAddress_) public pure returns (bytes memory){... */\n    tag_15:\n      tag_85\n      0x04\n      dup1\n      calldatasize\n      sub\n      dup2\n      add\n      swap1\n      tag_86\n      swap2\n      swap1\n      tag_79\n      jump\t// in\n    tag_86:\n      tag_87\n      jump\t// in\n    tag_85:\n      mload(0x40)\n      tag_88\n      swap2\n      swap1\n      tag_89\n      jump\t// in\n    tag_88:\n      mload(0x40)\n      dup1\n      swap2\n      sub\n      swap1\n      return\n        /* \"@openzeppelin/contracts/access/AccessControl.sol\":2027:2076  bytes32 public constant DEFAULT_ADMIN_ROLE = 0x00 */\n    tag_16:\n      tag_90\n      tag_91\n      jump\t// in\n    tag_90:\n      mload(0x40)\n      tag_92\n      swap2\n      swap1\n      tag_53\n      jump\t// in\n    tag_92:\n      mload(0x40)\n      dup1\n      swap2\n      sub\n      swap1\n      return\n        /* \"contracts/utils/MfiAccessControl.sol\":729:846  bytes32 public constant META_FINANCE_TRIGGER_POOL = bytes32(keccak256(abi.encodePacked(\"META_FINANCE_TRIGGER_POOL\"))) */\n    tag_17:\n      tag_93\n      tag_94\n      jump\t// in\n    tag_93:\n      mload(0x40)\n      tag_95\n      swap2\n      swap1\n      tag_53\n      jump\t// in\n    tag_95:\n      mload(0x40)\n      dup1\n      swap2\n      sub\n      swap1\n      return\n        /* \"contracts/utils/MfiAccessControl.sol\":568:681  bytes32 public constant PROJECT_ADMINISTRATOR = bytes32(keccak256(abi.encodePacked(\"MFI_Project_Administrator\"))) */\n    tag_18:\n      tag_96\n      tag_97\n      jump\t// in\n    tag_96:\n      mload(0x40)\n      tag_98\n      swap2\n      swap1\n      tag_53\n      jump\t// in\n    tag_98:\n      mload(0x40)\n      dup1\n      swap2\n      sub\n      swap1\n      return\n        /* \"contracts/MetaFinanceClubInfo.sol\":1145:1622  function boundClub(address userAddress_, address clubAddress_) external onlyRole(META_FINANCE_TRIGGER_POOL) {... */\n    tag_19:\n      tag_99\n      0x04\n      dup1\n      calldatasize\n      sub\n      dup2\n      add\n      swap1\n      tag_100\n      swap2\n      swap1\n      tag_101\n      jump\t// in\n    tag_100:\n      tag_102\n      jump\t// in\n    tag_99:\n      stop\n        /* \"contracts/MetaFinanceClubInfo.sol\":554:793  function initialize(address treasuryAddress_) initializer public {... */\n    tag_20:\n      tag_103\n      0x04\n      dup1\n      calldatasize\n      sub\n      dup2\n      add\n      swap1\n      tag_104\n      swap2\n      swap1\n      tag_79\n      jump\t// in\n    tag_104:\n      tag_105\n      jump\t// in\n    tag_103:\n      stop\n        /* \"contracts/storages/MfiClubStorages.sol\":266:296  address public treasuryAddress */\n    tag_21:\n      tag_106\n      tag_107\n      jump\t// in\n    tag_106:\n      mload(0x40)\n      tag_108\n      swap2\n      swap1\n      tag_73\n      jump\t// in\n    tag_108:\n      mload(0x40)\n      dup1\n      swap2\n      sub\n      swap1\n      return\n        /* \"contracts/utils/MfiAccessControl.sol\":208:249  uint256 public constant MAX = ~uint256(0) */\n    tag_22:\n      tag_109\n      tag_110\n      jump\t// in\n    tag_109:\n      mload(0x40)\n      tag_111\n      swap2\n      swap1\n      tag_49\n      jump\t// in\n    tag_111:\n      mload(0x40)\n      dup1\n      swap2\n      sub\n      swap1\n      return\n        /* \"contracts/storages/MfiClubStorages.sol\":234:260  address[] public clubArray */\n    tag_23:\n      tag_112\n      0x04\n      dup1\n      calldatasize\n      sub\n      dup2\n      add\n      swap1\n      tag_113\n      swap2\n      swap1\n      tag_38\n      jump\t// in\n    tag_113:\n      tag_114\n      jump\t// in\n    tag_112:\n      mload(0x40)\n      tag_115\n      swap2\n      swap1\n      tag_73\n      jump\t// in\n    tag_115:\n      mload(0x40)\n      dup1\n      swap2\n      sub\n      swap1\n      return\n        /* \"@openzeppelin/contracts/access/AccessControl.sol\":5149:5296  function revokeRole(bytes32 role, address account) public virtual override onlyRole(getRoleAdmin(role)) {... */\n    tag_24:\n      tag_116\n      0x04\n      dup1\n      calldatasize\n      sub\n      dup2\n      add\n      swap1\n      tag_117\n      swap2\n      swap1\n      tag_64\n      jump\t// in\n    tag_117:\n      tag_118\n      jump\t// in\n    tag_116:\n      stop\n        /* \"contracts/storages/MfiClubStorages.sol\":147:169  uint256 public yesClub */\n    tag_25:\n      tag_119\n      tag_120\n      jump\t// in\n    tag_119:\n      mload(0x40)\n      tag_121\n      swap2\n      swap1\n      tag_49\n      jump\t// in\n    tag_121:\n      mload(0x40)\n      dup1\n      swap2\n      sub\n      swap1\n      return\n        /* \"contracts/MetaFinanceClubInfo.sol\":3348:3564  function setClubProportion(uint256 newYesClub_, uint256 newNoClub_) external onlyRole(DATA_ADMINISTRATOR) {... */\n    tag_26:\n      tag_122\n      0x04\n      dup1\n      calldatasize\n      sub\n      dup2\n      add\n      swap1\n      tag_123\n      swap2\n      swap1\n      tag_124\n      jump\t// in\n    tag_123:\n      tag_125\n      jump\t// in\n    tag_122:\n      stop\n        /* \"contracts/storages/MfiClubStorages.sol\":398:467  mapping(address => mapping(address => uint256)) public foundationData */\n    tag_27:\n      tag_126\n      0x04\n      dup1\n      calldatasize\n      sub\n      dup2\n      add\n      swap1\n      tag_127\n      swap2\n      swap1\n      tag_101\n      jump\t// in\n    tag_127:\n      tag_128\n      jump\t// in\n    tag_126:\n      mload(0x40)\n      tag_129\n      swap2\n      swap1\n      tag_49\n      jump\t// in\n    tag_129:\n      mload(0x40)\n      dup1\n      swap2\n      sub\n      swap1\n      return\n        /* \"contracts/storages/MfiClubStorages.sol\":332:375  mapping(address => address) public userClub */\n    tag_28:\n      tag_130\n      0x04\n      dup1\n      calldatasize\n      sub\n      dup2\n      add\n      swap1\n      tag_131\n      swap2\n      swap1\n      tag_79\n      jump\t// in\n    tag_131:\n      tag_132\n      jump\t// in\n    tag_130:\n      mload(0x40)\n      tag_133\n      swap2\n      swap1\n      tag_73\n      jump\t// in\n    tag_133:\n      mload(0x40)\n      dup1\n      swap2\n      sub\n      swap1\n      return\n        /* \"contracts/MetaFinanceClubInfo.sol\":1819:2206  function calculateReward(... */\n    tag_29:\n      tag_134\n      0x04\n      dup1\n      calldatasize\n      sub\n      dup2\n      add\n      swap1\n      tag_135\n      swap2\n      swap1\n      tag_136\n      jump\t// in\n    tag_135:\n      tag_137\n      jump\t// in\n    tag_134:\n      stop\n        /* \"contracts/MetaFinanceClubInfo.sol\":2296:3216  function setProportion(uint256 newProportion_) external onlyRole(DATA_ADMINISTRATOR) {... */\n    tag_39:\n        /* \"contracts/utils/MfiAccessControl.sol\":488:530  abi.encodePacked(\"MFI_Data_Administrator\") */\n      add(0x20, mload(0x40))\n      tag_138\n      swap1\n      tag_139\n      jump\t// in\n    tag_138:\n      mload(0x40)\n      0x20\n      dup2\n      dup4\n      sub\n      sub\n      dup2\n      mstore\n      swap1\n      0x40\n      mstore\n        /* \"contracts/utils/MfiAccessControl.sol\":478:531  keccak256(abi.encodePacked(\"MFI_Data_Administrator\")) */\n      dup1\n      mload\n      swap1\n      0x20\n      add\n      keccak256\n        /* \"@openzeppelin/contracts/access/AccessControl.sol\":2505:2521  _checkRole(role) */\n      tag_141\n        /* \"@openzeppelin/contracts/access/AccessControl.sol\":2516:2520  role */\n      dup2\n        /* \"@openzeppelin/contracts/access/AccessControl.sol\":2505:2515  _checkRole */\n      tag_142\n        /* \"@openzeppelin/contracts/access/AccessControl.sol\":2505:2521  _checkRole(role) */\n      jump\t// in\n    tag_141:\n        /* \"contracts/MetaFinanceClubInfo.sol\":2413:2416  100 */\n      0x64\n        /* \"contracts/MetaFinanceClubInfo.sol\":2395:2409  newProportion_ */\n      dup3\n        /* \"contracts/MetaFinanceClubInfo.sol\":2395:2416  newProportion_ == 100 */\n      eq\n        /* \"contracts/MetaFinanceClubInfo.sol\":2395:2442  newProportion_ == 100 || newProportion_ == 1000 */\n      dup1\n      tag_144\n      jumpi\n      pop\n        /* \"contracts/MetaFinanceClubInfo.sol\":2438:2442  1000 */\n      0x03e8\n        /* \"contracts/MetaFinanceClubInfo.sol\":2420:2434  newProportion_ */\n      dup3\n        /* \"contracts/MetaFinanceClubInfo.sol\":2420:2442  newProportion_ == 1000 */\n      eq\n        /* \"contracts/MetaFinanceClubInfo.sol\":2395:2442  newProportion_ == 100 || newProportion_ == 1000 */\n    tag_144:\n        /* \"contracts/MetaFinanceClubInfo.sol\":2395:2469  newProportion_ == 100 || newProportion_ == 1000 || newProportion_ == 10000 */\n      dup1\n      tag_145\n      jumpi\n      pop\n        /* \"contracts/MetaFinanceClubInfo.sol\":2464:2469  10000 */\n      0x2710\n        /* \"contracts/MetaFinanceClubInfo.sol\":2446:2460  newProportion_ */\n      dup3\n        /* \"contracts/MetaFinanceClubInfo.sol\":2446:2469  newProportion_ == 10000 */\n      eq\n        /* \"contracts/MetaFinanceClubInfo.sol\":2395:2469  newProportion_ == 100 || newProportion_ == 1000 || newProportion_ == 10000 */\n    tag_145:\n        /* \"contracts/MetaFinanceClubInfo.sol\":2395:2497  newProportion_ == 100 || newProportion_ == 1000 || newProportion_ == 10000 || newProportion_ == 100000 */\n      dup1\n      tag_146\n      jumpi\n      pop\n        /* \"contracts/MetaFinanceClubInfo.sol\":2491:2497  100000 */\n      0x0186a0\n        /* \"contracts/MetaFinanceClubInfo.sol\":2473:2487  newProportion_ */\n      dup3\n        /* \"contracts/MetaFinanceClubInfo.sol\":2473:2497  newProportion_ == 100000 */\n      eq\n        /* \"contracts/MetaFinanceClubInfo.sol\":2395:2497  newProportion_ == 100 || newProportion_ == 1000 || newProportion_ == 10000 || newProportion_ == 100000 */\n    tag_146:\n        /* \"contracts/MetaFinanceClubInfo.sol\":2391:3210  if (newProportion_ == 100 || newProportion_ == 1000 || newProportion_ == 10000 || newProportion_ == 100000) {... */\n      iszero\n      tag_147\n      jumpi\n        /* \"contracts/MetaFinanceClubInfo.sol\":2534:2544  proportion */\n      sload(0x01)\n        /* \"contracts/MetaFinanceClubInfo.sol\":2517:2531  newProportion_ */\n      dup3\n        /* \"contracts/MetaFinanceClubInfo.sol\":2517:2544  newProportion_ > proportion */\n      gt\n        /* \"contracts/MetaFinanceClubInfo.sol\":2513:2850  if (newProportion_ > proportion) {... */\n      iszero\n      tag_148\n      jumpi\n        /* \"contracts/MetaFinanceClubInfo.sol\":2564:2582  uint256 difference */\n      0x00\n        /* \"contracts/MetaFinanceClubInfo.sol\":2585:2615  newProportion_.div(proportion) */\n      tag_149\n        /* \"contracts/MetaFinanceClubInfo.sol\":2604:2614  proportion */\n      sload(0x01)\n        /* \"contracts/MetaFinanceClubInfo.sol\":2585:2599  newProportion_ */\n      dup5\n        /* \"contracts/MetaFinanceClubInfo.sol\":2585:2603  newProportion_.div */\n      tag_150\n      swap1\n        /* \"contracts/MetaFinanceClubInfo.sol\":2585:2615  newProportion_.div(proportion) */\n      swap2\n      swap1\n      0xffffffff\n      and\n      jump\t// in\n    tag_149:\n        /* \"contracts/MetaFinanceClubInfo.sol\":2564:2615  uint256 difference = newProportion_.div(proportion) */\n      swap1\n      pop\n        /* \"contracts/MetaFinanceClubInfo.sol\":2660:2661  0 */\n      0x00\n        /* \"contracts/MetaFinanceClubInfo.sol\":2646:2656  difference */\n      dup2\n        /* \"contracts/MetaFinanceClubInfo.sol\":2646:2661  difference != 0 */\n      eq\n      iszero\n        /* \"contracts/MetaFinanceClubInfo.sol\":2646:2678  difference != 0 ? difference : 1 */\n      tag_151\n      jumpi\n        /* \"contracts/MetaFinanceClubInfo.sol\":2677:2678  1 */\n      0x01\n        /* \"contracts/MetaFinanceClubInfo.sol\":2646:2678  difference != 0 ? difference : 1 */\n      jump(tag_152)\n    tag_151:\n        /* \"contracts/MetaFinanceClubInfo.sol\":2664:2674  difference */\n      dup1\n        /* \"contracts/MetaFinanceClubInfo.sol\":2646:2678  difference != 0 ? difference : 1 */\n    tag_152:\n        /* \"contracts/MetaFinanceClubInfo.sol\":2633:2678  difference = difference != 0 ? difference : 1 */\n      swap1\n      pop\n        /* \"contracts/MetaFinanceClubInfo.sol\":2709:2735  proportion.mul(difference) */\n      tag_153\n        /* \"contracts/MetaFinanceClubInfo.sol\":2724:2734  difference */\n      dup2\n        /* \"contracts/MetaFinanceClubInfo.sol\":2709:2719  proportion */\n      sload(0x01)\n        /* \"contracts/MetaFinanceClubInfo.sol\":2709:2723  proportion.mul */\n      tag_154\n      swap1\n        /* \"contracts/MetaFinanceClubInfo.sol\":2709:2735  proportion.mul(difference) */\n      swap2\n      swap1\n      0xffffffff\n      and\n      jump\t// in\n    tag_153:\n        /* \"contracts/MetaFinanceClubInfo.sol\":2696:2706  proportion */\n      0x01\n        /* \"contracts/MetaFinanceClubInfo.sol\":2696:2735  proportion = proportion.mul(difference) */\n      dup2\n      swap1\n      sstore\n      pop\n        /* \"contracts/MetaFinanceClubInfo.sol\":2763:2786  yesClub.mul(difference) */\n      tag_155\n        /* \"contracts/MetaFinanceClubInfo.sol\":2775:2785  difference */\n      dup2\n        /* \"contracts/MetaFinanceClubInfo.sol\":2763:2770  yesClub */\n      sload(0x02)\n        /* \"contracts/MetaFinanceClubInfo.sol\":2763:2774  yesClub.mul */\n      tag_154\n      swap1\n        /* \"contracts/MetaFinanceClubInfo.sol\":2763:2786  yesClub.mul(difference) */\n      swap2\n      swap1\n      0xffffffff\n      and\n      jump\t// in\n    tag_155:\n        /* \"contracts/MetaFinanceClubInfo.sol\":2753:2760  yesClub */\n      0x02\n        /* \"contracts/MetaFinanceClubInfo.sol\":2753:2786  yesClub = yesClub.mul(difference) */\n      dup2\n      swap1\n      sstore\n      pop\n        /* \"contracts/MetaFinanceClubInfo.sol\":2813:2835  noClub.mul(difference) */\n      tag_156\n        /* \"contracts/MetaFinanceClubInfo.sol\":2824:2834  difference */\n      dup2\n        /* \"contracts/MetaFinanceClubInfo.sol\":2813:2819  noClub */\n      sload(0x03)\n        /* \"contracts/MetaFinanceClubInfo.sol\":2813:2823  noClub.mul */\n      tag_154\n      swap1\n        /* \"contracts/MetaFinanceClubInfo.sol\":2813:2835  noClub.mul(difference) */\n      swap2\n      swap1\n      0xffffffff\n      and\n      jump\t// in\n    tag_156:\n        /* \"contracts/MetaFinanceClubInfo.sol\":2804:2810  noClub */\n      0x03\n        /* \"contracts/MetaFinanceClubInfo.sol\":2804:2835  noClub = noClub.mul(difference) */\n      dup2\n      swap1\n      sstore\n      pop\n        /* \"contracts/MetaFinanceClubInfo.sol\":2546:2850  {... */\n      pop\n        /* \"contracts/MetaFinanceClubInfo.sol\":2513:2850  if (newProportion_ > proportion) {... */\n    tag_148:\n        /* \"contracts/MetaFinanceClubInfo.sol\":2880:2894  newProportion_ */\n      dup2\n        /* \"contracts/MetaFinanceClubInfo.sol\":2867:2877  proportion */\n      sload(0x01)\n        /* \"contracts/MetaFinanceClubInfo.sol\":2867:2894  proportion > newProportion_ */\n      gt\n        /* \"contracts/MetaFinanceClubInfo.sol\":2863:3200  if (proportion > newProportion_) {... */\n      iszero\n      tag_157\n      jumpi\n        /* \"contracts/MetaFinanceClubInfo.sol\":2914:2932  uint256 difference */\n      0x00\n        /* \"contracts/MetaFinanceClubInfo.sol\":2935:2965  proportion.div(newProportion_) */\n      tag_158\n        /* \"contracts/MetaFinanceClubInfo.sol\":2950:2964  newProportion_ */\n      dup4\n        /* \"contracts/MetaFinanceClubInfo.sol\":2935:2945  proportion */\n      sload(0x01)\n        /* \"contracts/MetaFinanceClubInfo.sol\":2935:2949  proportion.div */\n      tag_150\n      swap1\n        /* \"contracts/MetaFinanceClubInfo.sol\":2935:2965  proportion.div(newProportion_) */\n      swap2\n      swap1\n      0xffffffff\n      and\n      jump\t// in\n    tag_158:\n        /* \"contracts/MetaFinanceClubInfo.sol\":2914:2965  uint256 difference = proportion.div(newProportion_) */\n      swap1\n      pop\n        /* \"contracts/MetaFinanceClubInfo.sol\":3010:3011  0 */\n      0x00\n        /* \"contracts/MetaFinanceClubInfo.sol\":2996:3006  difference */\n      dup2\n        /* \"contracts/MetaFinanceClubInfo.sol\":2996:3011  difference != 0 */\n      eq\n      iszero\n        /* \"contracts/MetaFinanceClubInfo.sol\":2996:3028  difference != 0 ? difference : 1 */\n      tag_159\n      jumpi\n        /* \"contracts/MetaFinanceClubInfo.sol\":3027:3028  1 */\n      0x01\n        /* \"contracts/MetaFinanceClubInfo.sol\":2996:3028  difference != 0 ? difference : 1 */\n      jump(tag_160)\n    tag_159:\n        /* \"contracts/MetaFinanceClubInfo.sol\":3014:3024  difference */\n      dup1\n        /* \"contracts/MetaFinanceClubInfo.sol\":2996:3028  difference != 0 ? difference : 1 */\n    tag_160:\n        /* \"contracts/MetaFinanceClubInfo.sol\":2983:3028  difference = difference != 0 ? difference : 1 */\n      swap1\n      pop\n        /* \"contracts/MetaFinanceClubInfo.sol\":3059:3085  proportion.div(difference) */\n      tag_161\n        /* \"contracts/MetaFinanceClubInfo.sol\":3074:3084  difference */\n      dup2\n        /* \"contracts/MetaFinanceClubInfo.sol\":3059:3069  proportion */\n      sload(0x01)\n        /* \"contracts/MetaFinanceClubInfo.sol\":3059:3073  proportion.div */\n      tag_150\n      swap1\n        /* \"contracts/MetaFinanceClubInfo.sol\":3059:3085  proportion.div(difference) */\n      swap2\n      swap1\n      0xffffffff\n      and\n      jump\t// in\n    tag_161:\n        /* \"contracts/MetaFinanceClubInfo.sol\":3046:3056  proportion */\n      0x01\n        /* \"contracts/MetaFinanceClubInfo.sol\":3046:3085  proportion = proportion.div(difference) */\n      dup2\n      swap1\n      sstore\n      pop\n        /* \"contracts/MetaFinanceClubInfo.sol\":3113:3136  yesClub.div(difference) */\n      tag_162\n        /* \"contracts/MetaFinanceClubInfo.sol\":3125:3135  difference */\n      dup2\n        /* \"contracts/MetaFinanceClubInfo.sol\":3113:3120  yesClub */\n      sload(0x02)\n        /* \"contracts/MetaFinanceClubInfo.sol\":3113:3124  yesClub.div */\n      tag_150\n      swap1\n        /* \"contracts/MetaFinanceClubInfo.sol\":3113:3136  yesClub.div(difference) */\n      swap2\n      swap1\n      0xffffffff\n      and\n      jump\t// in\n    tag_162:\n        /* \"contracts/MetaFinanceClubInfo.sol\":3103:3110  yesClub */\n      0x02\n        /* \"contracts/MetaFinanceClubInfo.sol\":3103:3136  yesClub = yesClub.div(difference) */\n      dup2\n      swap1\n      sstore\n      pop\n        /* \"contracts/MetaFinanceClubInfo.sol\":3163:3185  noClub.div(difference) */\n      tag_163\n        /* \"contracts/MetaFinanceClubInfo.sol\":3174:3184  difference */\n      dup2\n        /* \"contracts/MetaFinanceClubInfo.sol\":3163:3169  noClub */\n      sload(0x03)\n        /* \"contracts/MetaFinanceClubInfo.sol\":3163:3173  noClub.div */\n      tag_150\n      swap1\n        /* \"contracts/MetaFinanceClubInfo.sol\":3163:3185  noClub.div(difference) */\n      swap2\n      swap1\n      0xffffffff\n      and\n      jump\t// in\n    tag_163:\n        /* \"contracts/MetaFinanceClubInfo.sol\":3154:3160  noClub */\n      0x03\n        /* \"contracts/MetaFinanceClubInfo.sol\":3154:3185  noClub = noClub.div(difference) */\n      dup2\n      swap1\n      sstore\n      pop\n        /* \"contracts/MetaFinanceClubInfo.sol\":2896:3200  {... */\n      pop\n        /* \"contracts/MetaFinanceClubInfo.sol\":2863:3200  if (proportion > newProportion_) {... */\n    tag_157:\n        /* \"contracts/MetaFinanceClubInfo.sol\":2391:3210  if (newProportion_ == 100 || newProportion_ == 1000 || newProportion_ == 10000 || newProportion_ == 100000) {... */\n    tag_147:\n        /* \"contracts/MetaFinanceClubInfo.sol\":2296:3216  function setProportion(uint256 newProportion_) external onlyRole(DATA_ADMINISTRATOR) {... */\n      pop\n      pop\n      jump\t// out\n        /* \"@openzeppelin/contracts/access/AccessControl.sol\":2606:2808  function supportsInterface(bytes4 interfaceId) public view virtual override returns (bool) {... */\n    tag_43:\n        /* \"@openzeppelin/contracts/access/AccessControl.sol\":2691:2695  bool */\n      0x00\n        /* \"@openzeppelin/contracts/access/AccessControl.sol\":2729:2761  type(IAccessControl).interfaceId */\n      0x7965db0b00000000000000000000000000000000000000000000000000000000\n        /* \"@openzeppelin/contracts/access/AccessControl.sol\":2714:2761  interfaceId == type(IAccessControl).interfaceId */\n      not(0xffffffffffffffffffffffffffffffffffffffffffffffffffffffff)\n      and\n        /* \"@openzeppelin/contracts/access/AccessControl.sol\":2714:2725  interfaceId */\n      dup3\n        /* \"@openzeppelin/contracts/access/AccessControl.sol\":2714:2761  interfaceId == type(IAccessControl).interfaceId */\n      not(0xffffffffffffffffffffffffffffffffffffffffffffffffffffffff)\n      and\n      eq\n        /* \"@openzeppelin/contracts/access/AccessControl.sol\":2714:2801  interfaceId == type(IAccessControl).interfaceId || super.supportsInterface(interfaceId) */\n      dup1\n      tag_165\n      jumpi\n      pop\n        /* \"@openzeppelin/contracts/access/AccessControl.sol\":2765:2801  super.supportsInterface(interfaceId) */\n      tag_166\n        /* \"@openzeppelin/contracts/access/AccessControl.sol\":2789:2800  interfaceId */\n      dup3\n        /* \"@openzeppelin/contracts/access/AccessControl.sol\":2765:2788  super.supportsInterface */\n      tag_167\n        /* \"@openzeppelin/contracts/access/AccessControl.sol\":2765:2801  super.supportsInterface(interfaceId) */\n      jump\t// in\n    tag_166:\n        /* \"@openzeppelin/contracts/access/AccessControl.sol\":2714:2801  interfaceId == type(IAccessControl).interfaceId || super.supportsInterface(interfaceId) */\n    tag_165:\n        /* \"@openzeppelin/contracts/access/AccessControl.sol\":2707:2801  return interfaceId == type(IAccessControl).interfaceId || super.supportsInterface(interfaceId) */\n      swap1\n      pop\n        /* \"@openzeppelin/contracts/access/AccessControl.sol\":2606:2808  function supportsInterface(bytes4 interfaceId) public view virtual override returns (bool) {... */\n      swap2\n      swap1\n      pop\n      jump\t// out\n        /* \"contracts/storages/MfiClubStorages.sol\":175:196  uint256 public noClub */\n    tag_47:\n      sload(0x03)\n      dup2\n      jump\t// out\n        /* \"contracts/utils/MfiAccessControl.sol\":283:392  bytes32 public constant MONEY_ADMINISTRATOR = bytes32(keccak256(abi.encodePacked(\"MFI_Money_Administrator\"))) */\n    tag_51:\n        /* \"contracts/utils/MfiAccessControl.sol\":347:390  abi.encodePacked(\"MFI_Money_Administrator\") */\n      add(0x20, mload(0x40))\n      tag_168\n      swap1\n      tag_169\n      jump\t// in\n    tag_168:\n      mload(0x40)\n      0x20\n      dup2\n      dup4\n      sub\n      sub\n      dup2\n      mstore\n      swap1\n      0x40\n      mstore\n        /* \"contracts/utils/MfiAccessControl.sol\":337:391  keccak256(abi.encodePacked(\"MFI_Money_Administrator\")) */\n      dup1\n      mload\n      swap1\n      0x20\n      add\n      keccak256\n        /* \"contracts/utils/MfiAccessControl.sol\":283:392  bytes32 public constant MONEY_ADMINISTRATOR = bytes32(keccak256(abi.encodePacked(\"MFI_Money_Administrator\"))) */\n      dup2\n      jump\t// out\n        /* \"@openzeppelin/contracts/access/AccessControl.sol\":4391:4520  function getRoleAdmin(bytes32 role) public view virtual override returns (bytes32) {... */\n    tag_57:\n        /* \"@openzeppelin/contracts/access/AccessControl.sol\":4465:4472  bytes32 */\n      0x00\n        /* \"@openzeppelin/contracts/access/AccessControl.sol\":4491:4497  _roles */\n      dup1\n        /* \"@openzeppelin/contracts/access/AccessControl.sol\":4491:4503  _roles[role] */\n      0x00\n        /* \"@openzeppelin/contracts/access/AccessControl.sol\":4498:4502  role */\n      dup4\n        /* \"@openzeppelin/contracts/access/AccessControl.sol\":4491:4503  _roles[role] */\n      dup2\n      mstore\n      0x20\n      add\n      swap1\n      dup2\n      mstore\n      0x20\n      add\n      0x00\n      keccak256\n        /* \"@openzeppelin/contracts/access/AccessControl.sol\":4491:4513  _roles[role].adminRole */\n      0x01\n      add\n      sload\n        /* \"@openzeppelin/contracts/access/AccessControl.sol\":4484:4513  return _roles[role].adminRole */\n      swap1\n      pop\n        /* \"@openzeppelin/contracts/access/AccessControl.sol\":4391:4520  function getRoleAdmin(bytes32 role) public view virtual override returns (bytes32) {... */\n      swap2\n      swap1\n      pop\n      jump\t// out\n        /* \"contracts/utils/MfiAccessControl.sol\":425:532  bytes32 public constant DATA_ADMINISTRATOR = bytes32(keccak256(abi.encodePacked(\"MFI_Data_Administrator\"))) */\n    tag_60:\n        /* \"contracts/utils/MfiAccessControl.sol\":488:530  abi.encodePacked(\"MFI_Data_Administrator\") */\n      add(0x20, mload(0x40))\n      tag_171\n      swap1\n      tag_139\n      jump\t// in\n    tag_171:\n      mload(0x40)\n      0x20\n      dup2\n      dup4\n      sub\n      sub\n      dup2\n      mstore\n      swap1\n      0x40\n      mstore\n        /* \"contracts/utils/MfiAccessControl.sol\":478:531  keccak256(abi.encodePacked(\"MFI_Data_Administrator\")) */\n      dup1\n      mload\n      swap1\n      0x20\n      add\n      keccak256\n        /* \"contracts/utils/MfiAccessControl.sol\":425:532  bytes32 public constant DATA_ADMINISTRATOR = bytes32(keccak256(abi.encodePacked(\"MFI_Data_Administrator\"))) */\n      dup2\n      jump\t// out\n        /* \"@openzeppelin/contracts/access/AccessControl.sol\":4770:4915  function grantRole(bytes32 role, address account) public virtual override onlyRole(getRoleAdmin(role)) {... */\n    tag_65:\n        /* \"@openzeppelin/contracts/access/AccessControl.sol\":4853:4871  getRoleAdmin(role) */\n      tag_172\n        /* \"@openzeppelin/contracts/access/AccessControl.sol\":4866:4870  role */\n      dup3\n        /* \"@openzeppelin/contracts/access/AccessControl.sol\":4853:4865  getRoleAdmin */\n      tag_57\n        /* \"@openzeppelin/contracts/access/AccessControl.sol\":4853:4871  getRoleAdmin(role) */\n      jump\t// in\n    tag_172:\n        /* \"@openzeppelin/contracts/access/AccessControl.sol\":2505:2521  _checkRole(role) */\n      tag_174\n        /* \"@openzeppelin/contracts/access/AccessControl.sol\":2516:2520  role */\n      dup2\n        /* \"@openzeppelin/contracts/access/AccessControl.sol\":2505:2515  _checkRole */\n      tag_142\n        /* \"@openzeppelin/contracts/access/AccessControl.sol\":2505:2521  _checkRole(role) */\n      jump\t// in\n    tag_174:\n        /* \"@openzeppelin/contracts/access/AccessControl.sol\":4883:4908  _grantRole(role, account) */\n      tag_176\n        /* \"@openzeppelin/contracts/access/AccessControl.sol\":4894:4898  role */\n      dup4\n        /* \"@openzeppelin/contracts/access/AccessControl.sol\":4900:4907  account */\n      dup4\n        /* \"@openzeppelin/contracts/access/AccessControl.sol\":4883:4893  _grantRole */\n      tag_177\n        /* \"@openzeppelin/contracts/access/AccessControl.sol\":4883:4908  _grantRole(role, account) */\n      jump\t// in\n    tag_176:\n        /* \"@openzeppelin/contracts/access/AccessControl.sol\":4770:4915  function grantRole(bytes32 role, address account) public virtual override onlyRole(getRoleAdmin(role)) {... */\n      pop\n      pop\n      pop\n      jump\t// out\n        /* \"@openzeppelin/contracts/access/AccessControl.sol\":5787:6001  function renounceRole(bytes32 role, address account) public virtual override {... */\n    tag_68:\n        /* \"@openzeppelin/contracts/access/AccessControl.sol\":5893:5905  _msgSender() */\n      tag_179\n        /* \"@openzeppelin/contracts/access/AccessControl.sol\":5893:5903  _msgSender */\n      tag_180\n        /* \"@openzeppelin/contracts/access/AccessControl.sol\":5893:5905  _msgSender() */\n      jump\t// in\n    tag_179:\n        /* \"@openzeppelin/contracts/access/AccessControl.sol\":5882:5905  account == _msgSender() */\n      0xffffffffffffffffffffffffffffffffffffffff\n      and\n        /* \"@openzeppelin/contracts/access/AccessControl.sol\":5882:5889  account */\n      dup2\n        /* \"@openzeppelin/contracts/access/AccessControl.sol\":5882:5905  account == _msgSender() */\n      0xffffffffffffffffffffffffffffffffffffffff\n      and\n      eq\n        /* \"@openzeppelin/contracts/access/AccessControl.sol\":5874:5957  require(account == _msgSender(), \"AccessControl: can only renounce roles for self\") */\n      tag_181\n      jumpi\n      mload(0x40)\n      0x08c379a000000000000000000000000000000000000000000000000000000000\n      dup2\n      mstore\n      0x04\n      add\n      tag_182\n      swap1\n      tag_183\n      jump\t// in\n    tag_182:\n      mload(0x40)\n      dup1\n      swap2\n      sub\n      swap1\n      revert\n    tag_181:\n        /* \"@openzeppelin/contracts/access/AccessControl.sol\":5968:5994  _revokeRole(role, account) */\n      tag_184\n        /* \"@openzeppelin/contracts/access/AccessControl.sol\":5980:5984  role */\n      dup3\n        /* \"@openzeppelin/contracts/access/AccessControl.sol\":5986:5993  account */\n      dup3\n        /* \"@openzeppelin/contracts/access/AccessControl.sol\":5968:5979  _revokeRole */\n      tag_185\n        /* \"@openzeppelin/contracts/access/AccessControl.sol\":5968:5994  _revokeRole(role, account) */\n      jump\t// in\n    tag_184:\n        /* \"@openzeppelin/contracts/access/AccessControl.sol\":5787:6001  function renounceRole(bytes32 role, address account) public virtual override {... */\n      pop\n      pop\n      jump\t// out\n        /* \"contracts/storages/MfiClubStorages.sol\":202:228  address[] public userArray */\n    tag_71:\n      0x04\n      dup2\n      dup2\n      sload\n      dup2\n      lt\n      tag_186\n      jumpi\n      0x00\n      dup1\n      revert\n    tag_186:\n      swap1\n      0x00\n      mstore\n      keccak256(0x00, 0x20)\n      add\n      0x00\n      swap2\n      pop\n      sload\n      swap1\n      0x0100\n      exp\n      swap1\n      div\n      0xffffffffffffffffffffffffffffffffffffffff\n      and\n      dup2\n      jump\t// out\n        /* \"contracts/utils/MfiAccessControl.sol\":176:201  uint256 public proportion */\n    tag_75:\n      sload(0x01)\n      dup2\n      jump\t// out\n        /* \"contracts/MetaFinanceClubInfo.sol\":3664:3799  function setTreasuryAddress(address newTreasury_) external onlyRole(DATA_ADMINISTRATOR) {... */\n    tag_80:\n        /* \"contracts/utils/MfiAccessControl.sol\":488:530  abi.encodePacked(\"MFI_Data_Administrator\") */\n      add(0x20, mload(0x40))\n      tag_188\n      swap1\n      tag_139\n      jump\t// in\n    tag_188:\n      mload(0x40)\n      0x20\n      dup2\n      dup4\n      sub\n      sub\n      dup2\n      mstore\n      swap1\n      0x40\n      mstore\n        /* \"contracts/utils/MfiAccessControl.sol\":478:531  keccak256(abi.encodePacked(\"MFI_Data_Administrator\")) */\n      dup1\n      mload\n      swap1\n      0x20\n      add\n      keccak256\n        /* \"@openzeppelin/contracts/access/AccessControl.sol\":2505:2521  _checkRole(role) */\n      tag_190\n        /* \"@openzeppelin/contracts/access/AccessControl.sol\":2516:2520  role */\n      dup2\n        /* \"@openzeppelin/contracts/access/AccessControl.sol\":2505:2515  _checkRole */\n      tag_142\n        /* \"@openzeppelin/contracts/access/AccessControl.sol\":2505:2521  _checkRole(role) */\n      jump\t// in\n    tag_190:\n        /* \"contracts/MetaFinanceClubInfo.sol\":3780:3792  newTreasury_ */\n      dup2\n        /* \"contracts/MetaFinanceClubInfo.sol\":3762:3777  treasuryAddress */\n      0x06\n      0x00\n        /* \"contracts/MetaFinanceClubInfo.sol\":3762:3792  treasuryAddress = newTreasury_ */\n      0x0100\n      exp\n      dup2\n      sload\n      dup2\n      0xffffffffffffffffffffffffffffffffffffffff\n      mul\n      not\n      and\n      swap1\n      dup4\n      0xffffffffffffffffffffffffffffffffffffffff\n      and\n      mul\n      or\n      swap1\n      sstore\n      pop\n        /* \"contracts/MetaFinanceClubInfo.sol\":3664:3799  function setTreasuryAddress(address newTreasury_) external onlyRole(DATA_ADMINISTRATOR) {... */\n      pop\n      pop\n      jump\t// out\n        /* \"@openzeppelin/contracts/access/AccessControl.sol\":2895:3040  function hasRole(bytes32 role, address account) public view virtual override returns (bool) {... */\n    tag_83:\n        /* \"@openzeppelin/contracts/access/AccessControl.sol\":2981:2985  bool */\n      0x00\n        /* \"@openzeppelin/contracts/access/AccessControl.sol\":3004:3010  _roles */\n      dup1\n        /* \"@openzeppelin/contracts/access/AccessControl.sol\":3004:3016  _roles[role] */\n      0x00\n        /* \"@openzeppelin/contracts/access/AccessControl.sol\":3011:3015  role */\n      dup5\n        /* \"@openzeppelin/contracts/access/AccessControl.sol\":3004:3016  _roles[role] */\n      dup2\n      mstore\n      0x20\n      add\n      swap1\n      dup2\n      mstore\n      0x20\n      add\n      0x00\n      keccak256\n        /* \"@openzeppelin/contracts/access/AccessControl.sol\":3004:3024  _roles[role].members */\n      0x00\n      add\n        /* \"@openzeppelin/contracts/access/AccessControl.sol\":3004:3033  _roles[role].members[account] */\n      0x00\n        /* \"@openzeppelin/contracts/access/AccessControl.sol\":3025:3032  account */\n      dup4\n        /* \"@openzeppelin/contracts/access/AccessControl.sol\":3004:3033  _roles[role].members[account] */\n      0xffffffffffffffffffffffffffffffffffffffff\n      and\n      0xffffffffffffffffffffffffffffffffffffffff\n      and\n      dup2\n      mstore\n      0x20\n      add\n      swap1\n      dup2\n      mstore\n      0x20\n      add\n      0x00\n      keccak256\n      0x00\n      swap1\n      sload\n      swap1\n      0x0100\n      exp\n      swap1\n      div\n      0xff\n      and\n        /* \"@openzeppelin/contracts/access/AccessControl.sol\":2997:3033  return _roles[role].members[account] */\n      swap1\n      pop\n        /* \"@openzeppelin/contracts/access/AccessControl.sol\":2895:3040  function hasRole(bytes32 role, address account) public view virtual override returns (bool) {... */\n      swap3\n      swap2\n      pop\n      pop\n      jump\t// out\n        /* \"contracts/MetaFinanceClubInfo.sol\":799:975  function getInitializeAbi(address treasuryAddress_) public pure returns (bytes memory){... */\n    tag_87:\n        /* \"contracts/MetaFinanceClubInfo.sol\":872:884  bytes memory */\n      0x60\n        /* \"contracts/MetaFinanceClubInfo.sol\":925:949  this.initialize.selector */\n      shl(0xe0, 0xc4d66de8)\n        /* \"contracts/MetaFinanceClubInfo.sol\":951:967  treasuryAddress_ */\n      dup3\n        /* \"contracts/MetaFinanceClubInfo.sol\":902:968  abi.encodeWithSelector(this.initialize.selector, treasuryAddress_) */\n      add(0x24, mload(0x40))\n      tag_194\n      swap2\n      swap1\n      tag_73\n      jump\t// in\n    tag_194:\n      mload(0x40)\n      0x20\n      dup2\n      dup4\n      sub\n      sub\n      dup2\n      mstore\n      swap1\n      0x40\n      mstore\n      swap1\n      not(0xffffffffffffffffffffffffffffffffffffffffffffffffffffffff)\n      and\n      0x20\n      dup3\n      add\n      dup1\n      mload\n      0xffffffffffffffffffffffffffffffffffffffffffffffffffffffff\n      dup4\n      dup2\n      dup4\n      and\n      or\n      dup4\n      mstore\n      pop\n      pop\n      pop\n      pop\n        /* \"contracts/MetaFinanceClubInfo.sol\":895:968  return abi.encodeWithSelector(this.initialize.selector, treasuryAddress_) */\n      swap1\n      pop\n        /* \"contracts/MetaFinanceClubInfo.sol\":799:975  function getInitializeAbi(address treasuryAddress_) public pure returns (bytes memory){... */\n      swap2\n      swap1\n      pop\n      jump\t// out\n        /* \"@openzeppelin/contracts/access/AccessControl.sol\":2027:2076  bytes32 public constant DEFAULT_ADMIN_ROLE = 0x00 */\n    tag_91:\n        /* \"@openzeppelin/contracts/access/AccessControl.sol\":2072:2076  0x00 */\n      0x00\n        /* \"@openzeppelin/contracts/access/AccessControl.sol\":2027:2076  bytes32 public constant DEFAULT_ADMIN_ROLE = 0x00 */\n      dup1\n      shl\n      dup2\n      jump\t// out\n        /* \"contracts/utils/MfiAccessControl.sol\":729:846  bytes32 public constant META_FINANCE_TRIGGER_POOL = bytes32(keccak256(abi.encodePacked(\"META_FINANCE_TRIGGER_POOL\"))) */\n    tag_94:\n        /* \"contracts/utils/MfiAccessControl.sol\":799:844  abi.encodePacked(\"META_FINANCE_TRIGGER_POOL\") */\n      add(0x20, mload(0x40))\n      tag_195\n      swap1\n      tag_196\n      jump\t// in\n    tag_195:\n      mload(0x40)\n      0x20\n      dup2\n      dup4\n      sub\n      sub\n      dup2\n      mstore\n      swap1\n      0x40\n      mstore\n        /* \"contracts/utils/MfiAccessControl.sol\":789:845  keccak256(abi.encodePacked(\"META_FINANCE_TRIGGER_POOL\")) */\n      dup1\n      mload\n      swap1\n      0x20\n      add\n      keccak256\n        /* \"contracts/utils/MfiAccessControl.sol\":729:846  bytes32 public constant META_FINANCE_TRIGGER_POOL = bytes32(keccak256(abi.encodePacked(\"META_FINANCE_TRIGGER_POOL\"))) */\n      dup2\n      jump\t// out\n        /* \"contracts/utils/MfiAccessControl.sol\":568:681  bytes32 public constant PROJECT_ADMINISTRATOR = bytes32(keccak256(abi.encodePacked(\"MFI_Project_Administrator\"))) */\n    tag_97:\n        /* \"contracts/utils/MfiAccessControl.sol\":634:679  abi.encodePacked(\"MFI_Project_Administrator\") */\n      add(0x20, mload(0x40))\n      tag_197\n      swap1\n      tag_198\n      jump\t// in\n    tag_197:\n      mload(0x40)\n      0x20\n      dup2\n      dup4\n      sub\n      sub\n      dup2\n      mstore\n      swap1\n      0x40\n      mstore\n        /* \"contracts/utils/MfiAccessControl.sol\":624:680  keccak256(abi.encodePacked(\"MFI_Project_Administrator\")) */\n      dup1\n      mload\n      swap1\n      0x20\n      add\n      keccak256\n        /* \"contracts/utils/MfiAccessControl.sol\":568:681  bytes32 public constant PROJECT_ADMINISTRATOR = bytes32(keccak256(abi.encodePacked(\"MFI_Project_Administrator\"))) */\n      dup2\n      jump\t// out\n        /* \"contracts/MetaFinanceClubInfo.sol\":1145:1622  function boundClub(address userAddress_, address clubAddress_) external onlyRole(META_FINANCE_TRIGGER_POOL) {... */\n    tag_102:\n        /* \"contracts/utils/MfiAccessControl.sol\":799:844  abi.encodePacked(\"META_FINANCE_TRIGGER_POOL\") */\n      add(0x20, mload(0x40))\n      tag_199\n      swap1\n      tag_196\n      jump\t// in\n    tag_199:\n      mload(0x40)\n      0x20\n      dup2\n      dup4\n      sub\n      sub\n      dup2\n      mstore\n      swap1\n      0x40\n      mstore\n        /* \"contracts/utils/MfiAccessControl.sol\":789:845  keccak256(abi.encodePacked(\"META_FINANCE_TRIGGER_POOL\")) */\n      dup1\n      mload\n      swap1\n      0x20\n      add\n      keccak256\n        /* \"@openzeppelin/contracts/access/AccessControl.sol\":2505:2521  _checkRole(role) */\n      tag_201\n        /* \"@openzeppelin/contracts/access/AccessControl.sol\":2516:2520  role */\n      dup2\n        /* \"@openzeppelin/contracts/access/AccessControl.sol\":2505:2515  _checkRole */\n      tag_142\n        /* \"@openzeppelin/contracts/access/AccessControl.sol\":2505:2521  _checkRole(role) */\n      jump\t// in\n    tag_201:\n        /* \"contracts/MetaFinanceClubInfo.sol\":1305:1306  0 */\n      0x00\n        /* \"contracts/MetaFinanceClubInfo.sol\":1271:1307  userClub[userAddress_] == address(0) */\n      0xffffffffffffffffffffffffffffffffffffffff\n      and\n        /* \"contracts/MetaFinanceClubInfo.sol\":1271:1279  userClub */\n      0x07\n        /* \"contracts/MetaFinanceClubInfo.sol\":1271:1293  userClub[userAddress_] */\n      0x00\n        /* \"contracts/MetaFinanceClubInfo.sol\":1280:1292  userAddress_ */\n      dup6\n        /* \"contracts/MetaFinanceClubInfo.sol\":1271:1293  userClub[userAddress_] */\n      0xffffffffffffffffffffffffffffffffffffffff\n      and\n      0xffffffffffffffffffffffffffffffffffffffff\n      and\n      dup2\n      mstore\n      0x20\n      add\n      swap1\n      dup2\n      mstore\n      0x20\n      add\n      0x00\n      keccak256\n      0x00\n      swap1\n      sload\n      swap1\n      0x0100\n      exp\n      swap1\n      div\n      0xffffffffffffffffffffffffffffffffffffffff\n      and\n        /* \"contracts/MetaFinanceClubInfo.sol\":1271:1307  userClub[userAddress_] == address(0) */\n      0xffffffffffffffffffffffffffffffffffffffff\n      and\n      eq\n        /* \"contracts/MetaFinanceClubInfo.sol\":1271:1339  userClub[userAddress_] == address(0) && clubAddress_ != userAddress_ */\n      dup1\n      iszero\n      tag_203\n      jumpi\n      pop\n        /* \"contracts/MetaFinanceClubInfo.sol\":1327:1339  userAddress_ */\n      dup3\n        /* \"contracts/MetaFinanceClubInfo.sol\":1311:1339  clubAddress_ != userAddress_ */\n      0xffffffffffffffffffffffffffffffffffffffff\n      and\n        /* \"contracts/MetaFinanceClubInfo.sol\":1311:1323  clubAddress_ */\n      dup3\n        /* \"contracts/MetaFinanceClubInfo.sol\":1311:1339  clubAddress_ != userAddress_ */\n      0xffffffffffffffffffffffffffffffffffffffff\n      and\n      eq\n      iszero\n        /* \"contracts/MetaFinanceClubInfo.sol\":1271:1339  userClub[userAddress_] == address(0) && clubAddress_ != userAddress_ */\n    tag_203:\n        /* \"contracts/MetaFinanceClubInfo.sol\":1271:1372  userClub[userAddress_] == address(0) && clubAddress_ != userAddress_ && treasuryAddress != address(0) */\n      dup1\n      iszero\n      tag_204\n      jumpi\n      pop\n        /* \"contracts/MetaFinanceClubInfo.sol\":1370:1371  0 */\n      0x00\n        /* \"contracts/MetaFinanceClubInfo.sol\":1343:1372  treasuryAddress != address(0) */\n      0xffffffffffffffffffffffffffffffffffffffff\n      and\n        /* \"contracts/MetaFinanceClubInfo.sol\":1343:1358  treasuryAddress */\n      0x06\n      0x00\n      swap1\n      sload\n      swap1\n      0x0100\n      exp\n      swap1\n      div\n      0xffffffffffffffffffffffffffffffffffffffff\n      and\n        /* \"contracts/MetaFinanceClubInfo.sol\":1343:1372  treasuryAddress != address(0) */\n      0xffffffffffffffffffffffffffffffffffffffff\n      and\n      eq\n      iszero\n        /* \"contracts/MetaFinanceClubInfo.sol\":1271:1372  userClub[userAddress_] == address(0) && clubAddress_ != userAddress_ && treasuryAddress != address(0) */\n    tag_204:\n        /* \"contracts/MetaFinanceClubInfo.sol\":1263:1384  require(userClub[userAddress_] == address(0) && clubAddress_ != userAddress_ && treasuryAddress != address(0), \"MFCI:E1\") */\n      tag_205\n      jumpi\n      mload(0x40)\n      0x08c379a000000000000000000000000000000000000000000000000000000000\n      dup2\n      mstore\n      0x04\n      add\n      tag_206\n      swap1\n      tag_207\n      jump\t// in\n    tag_206:\n      mload(0x40)\n      dup1\n      swap2\n      sub\n      swap1\n      revert\n    tag_205:\n        /* \"contracts/MetaFinanceClubInfo.sol\":1419:1431  clubAddress_ */\n      dup2\n        /* \"contracts/MetaFinanceClubInfo.sol\":1394:1402  userClub */\n      0x07\n        /* \"contracts/MetaFinanceClubInfo.sol\":1394:1416  userClub[userAddress_] */\n      0x00\n        /* \"contracts/MetaFinanceClubInfo.sol\":1403:1415  userAddress_ */\n      dup6\n        /* \"contracts/MetaFinanceClubInfo.sol\":1394:1416  userClub[userAddress_] */\n      0xffffffffffffffffffffffffffffffffffffffff\n      and\n      0xffffffffffffffffffffffffffffffffffffffff\n      and\n      dup2\n      mstore\n      0x20\n      add\n      swap1\n      dup2\n      mstore\n      0x20\n      add\n      0x00\n      keccak256\n      0x00\n        /* \"contracts/MetaFinanceClubInfo.sol\":1394:1431  userClub[userAddress_] = clubAddress_ */\n      0x0100\n      exp\n      dup2\n      sload\n      dup2\n      0xffffffffffffffffffffffffffffffffffffffff\n      mul\n      not\n      and\n      swap1\n      dup4\n      0xffffffffffffffffffffffffffffffffffffffff\n      and\n      mul\n      or\n      swap1\n      sstore\n      pop\n        /* \"contracts/MetaFinanceClubInfo.sol\":1441:1450  userArray */\n      0x04\n        /* \"contracts/MetaFinanceClubInfo.sol\":1456:1468  userAddress_ */\n      dup4\n        /* \"contracts/MetaFinanceClubInfo.sol\":1441:1469  userArray.push(userAddress_) */\n      swap1\n      dup1\n      0x01\n      dup2\n      sload\n      add\n      dup1\n      dup3\n      sstore\n      dup1\n      swap2\n      pop\n      pop\n      0x01\n      swap1\n      sub\n      swap1\n      0x00\n      mstore\n      keccak256(0x00, 0x20)\n      add\n      0x00\n      swap1\n      swap2\n      swap1\n      swap2\n      swap1\n      swap2\n      0x0100\n      exp\n      dup2\n      sload\n      dup2\n      0xffffffffffffffffffffffffffffffffffffffff\n      mul\n      not\n      and\n      swap1\n      dup4\n      0xffffffffffffffffffffffffffffffffffffffff\n      and\n      mul\n      or\n      swap1\n      sstore\n      pop\n        /* \"contracts/MetaFinanceClubInfo.sol\":1499:1514  treasuryAddress */\n      0x06\n      0x00\n      swap1\n      sload\n      swap1\n      0x0100\n      exp\n      swap1\n      div\n      0xffffffffffffffffffffffffffffffffffffffff\n      and\n        /* \"contracts/MetaFinanceClubInfo.sol\":1483:1514  clubAddress_ != treasuryAddress */\n      0xffffffffffffffffffffffffffffffffffffffff\n      and\n        /* \"contracts/MetaFinanceClubInfo.sol\":1483:1495  clubAddress_ */\n      dup3\n        /* \"contracts/MetaFinanceClubInfo.sol\":1483:1514  clubAddress_ != treasuryAddress */\n      0xffffffffffffffffffffffffffffffffffffffff\n      and\n      eq\n        /* \"contracts/MetaFinanceClubInfo.sol\":1479:1556  if (clubAddress_ != treasuryAddress)... */\n      tag_209\n      jumpi\n        /* \"contracts/MetaFinanceClubInfo.sol\":1528:1537  clubArray */\n      0x05\n        /* \"contracts/MetaFinanceClubInfo.sol\":1543:1555  clubAddress_ */\n      dup3\n        /* \"contracts/MetaFinanceClubInfo.sol\":1528:1556  clubArray.push(clubAddress_) */\n      swap1\n      dup1\n      0x01\n      dup2\n      sload\n      add\n      dup1\n      dup3\n      sstore\n      dup1\n      swap2\n      pop\n      pop\n      0x01\n      swap1\n      sub\n      swap1\n      0x00\n      mstore\n      keccak256(0x00, 0x20)\n      add\n      0x00\n      swap1\n      swap2\n      swap1\n      swap2\n      swap1\n      swap2\n      0x0100\n      exp\n      dup2\n      sload\n      dup2\n      0xffffffffffffffffffffffffffffffffffffffff\n      mul\n      not\n      and\n      swap1\n      dup4\n      0xffffffffffffffffffffffffffffffffffffffff\n      and\n      mul\n      or\n      swap1\n      sstore\n      pop\n        /* \"contracts/MetaFinanceClubInfo.sol\":1479:1556  if (clubAddress_ != treasuryAddress)... */\n    tag_209:\n        /* \"contracts/MetaFinanceClubInfo.sol\":1571:1615  UserRegistration(userAddress_, clubAddress_) */\n      0x0cdf87eff0154a894757bc9fe1893d3f37e143e8145478358591401036f588af\n        /* \"contracts/MetaFinanceClubInfo.sol\":1588:1600  userAddress_ */\n      dup4\n        /* \"contracts/MetaFinanceClubInfo.sol\":1602:1614  clubAddress_ */\n      dup4\n        /* \"contracts/MetaFinanceClubInfo.sol\":1571:1615  UserRegistration(userAddress_, clubAddress_) */\n      mload(0x40)\n      tag_211\n      swap3\n      swap2\n      swap1\n      tag_212\n      jump\t// in\n    tag_211:\n      mload(0x40)\n      dup1\n      swap2\n      sub\n      swap1\n      log1\n        /* \"contracts/MetaFinanceClubInfo.sol\":1145:1622  function boundClub(address userAddress_, address clubAddress_) external onlyRole(META_FINANCE_TRIGGER_POOL) {... */\n      pop\n      pop\n      pop\n      jump\t// out\n        /* \"contracts/MetaFinanceClubInfo.sol\":554:793  function initialize(address treasuryAddress_) initializer public {... */\n    tag_105:\n        /* \"@openzeppelin/contracts-upgradeable/proxy/utils/Initializable.sol\":3111:3130  bool isTopLevelCall */\n      0x00\n        /* \"@openzeppelin/contracts-upgradeable/proxy/utils/Initializable.sol\":3133:3158  _setInitializedVersion(1) */\n      tag_214\n        /* \"@openzeppelin/contracts-upgradeable/proxy/utils/Initializable.sol\":3156:3157  1 */\n      0x01\n        /* \"@openzeppelin/contracts-upgradeable/proxy/utils/Initializable.sol\":3133:3155  _setInitializedVersion */\n      tag_215\n        /* \"@openzeppelin/contracts-upgradeable/proxy/utils/Initializable.sol\":3133:3158  _setInitializedVersion(1) */\n      jump\t// in\n    tag_214:\n        /* \"@openzeppelin/contracts-upgradeable/proxy/utils/Initializable.sol\":3111:3158  bool isTopLevelCall = _setInitializedVersion(1) */\n      swap1\n      pop\n        /* \"@openzeppelin/contracts-upgradeable/proxy/utils/Initializable.sol\":3172:3186  isTopLevelCall */\n      dup1\n        /* \"@openzeppelin/contracts-upgradeable/proxy/utils/Initializable.sol\":3168:3233  if (isTopLevelCall) {... */\n      iszero\n      tag_216\n      jumpi\n        /* \"@openzeppelin/contracts-upgradeable/proxy/utils/Initializable.sol\":3218:3222  true */\n      0x01\n        /* \"@openzeppelin/contracts-upgradeable/proxy/utils/Initializable.sol\":3202:3215  _initializing */\n      0x09\n      0x01\n        /* \"@openzeppelin/contracts-upgradeable/proxy/utils/Initializable.sol\":3202:3222  _initializing = true */\n      0x0100\n      exp\n      dup2\n      sload\n      dup2\n      0xff\n      mul\n      not\n      and\n      swap1\n      dup4\n      iszero\n      iszero\n      mul\n      or\n      swap1\n      sstore\n      pop\n        /* \"@openzeppelin/contracts-upgradeable/proxy/utils/Initializable.sol\":3168:3233  if (isTopLevelCall) {... */\n    tag_216:\n        /* \"contracts/MetaFinanceClubInfo.sol\":638:640  85 */\n      0x55\n        /* \"contracts/MetaFinanceClubInfo.sol\":629:635  noClub */\n      0x03\n        /* \"contracts/MetaFinanceClubInfo.sol\":629:640  noClub = 85 */\n      dup2\n      swap1\n      sstore\n      pop\n        /* \"contracts/MetaFinanceClubInfo.sol\":660:662  80 */\n      0x50\n        /* \"contracts/MetaFinanceClubInfo.sol\":650:657  yesClub */\n      0x02\n        /* \"contracts/MetaFinanceClubInfo.sol\":650:662  yesClub = 80 */\n      dup2\n      swap1\n      sstore\n      pop\n        /* \"contracts/MetaFinanceClubInfo.sol\":685:688  100 */\n      0x64\n        /* \"contracts/MetaFinanceClubInfo.sol\":672:682  proportion */\n      0x01\n        /* \"contracts/MetaFinanceClubInfo.sol\":672:688  proportion = 100 */\n      dup2\n      swap1\n      sstore\n      pop\n        /* \"contracts/MetaFinanceClubInfo.sol\":716:732  treasuryAddress_ */\n      dup2\n        /* \"contracts/MetaFinanceClubInfo.sol\":698:713  treasuryAddress */\n      0x06\n      0x00\n        /* \"contracts/MetaFinanceClubInfo.sol\":698:732  treasuryAddress = treasuryAddress_ */\n      0x0100\n      exp\n      dup2\n      sload\n      dup2\n      0xffffffffffffffffffffffffffffffffffffffff\n      mul\n      not\n      and\n      swap1\n      dup4\n      0xffffffffffffffffffffffffffffffffffffffff\n      and\n      mul\n      or\n      swap1\n      sstore\n      pop\n        /* \"contracts/MetaFinanceClubInfo.sol\":742:786  _setupRole(DEFAULT_ADMIN_ROLE, _msgSender()) */\n      tag_218\n        /* \"@openzeppelin/contracts/access/AccessControl.sol\":2072:2076  0x00 */\n      0x00\n        /* \"contracts/MetaFinanceClubInfo.sol\":753:771  DEFAULT_ADMIN_ROLE */\n      dup1\n      shl\n        /* \"contracts/MetaFinanceClubInfo.sol\":773:785  _msgSender() */\n      tag_219\n        /* \"contracts/MetaFinanceClubInfo.sol\":773:783  _msgSender */\n      tag_180\n        /* \"contracts/MetaFinanceClubInfo.sol\":773:785  _msgSender() */\n      jump\t// in\n    tag_219:\n        /* \"contracts/MetaFinanceClubInfo.sol\":742:752  _setupRole */\n      tag_220\n        /* \"contracts/MetaFinanceClubInfo.sol\":742:786  _setupRole(DEFAULT_ADMIN_ROLE, _msgSender()) */\n      jump\t// in\n    tag_218:\n        /* \"@openzeppelin/contracts-upgradeable/proxy/utils/Initializable.sol\":3257:3271  isTopLevelCall */\n      dup1\n        /* \"@openzeppelin/contracts-upgradeable/proxy/utils/Initializable.sol\":3253:3352  if (isTopLevelCall) {... */\n      iszero\n      tag_221\n      jumpi\n        /* \"@openzeppelin/contracts-upgradeable/proxy/utils/Initializable.sol\":3303:3308  false */\n      0x00\n        /* \"@openzeppelin/contracts-upgradeable/proxy/utils/Initializable.sol\":3287:3300  _initializing */\n      0x09\n      0x01\n        /* \"@openzeppelin/contracts-upgradeable/proxy/utils/Initializable.sol\":3287:3308  _initializing = false */\n      0x0100\n      exp\n      dup2\n      sload\n      dup2\n      0xff\n      mul\n      not\n      and\n      swap1\n      dup4\n      iszero\n      iszero\n      mul\n      or\n      swap1\n      sstore\n      pop\n        /* \"@openzeppelin/contracts-upgradeable/proxy/utils/Initializable.sol\":3327:3341  Initialized(1) */\n      0x7f26b83ff96e1f2b6a682f133852f6798a09c465da95921460cefb3847402498\n        /* \"@openzeppelin/contracts-upgradeable/proxy/utils/Initializable.sol\":3339:3340  1 */\n      0x01\n        /* \"@openzeppelin/contracts-upgradeable/proxy/utils/Initializable.sol\":3327:3341  Initialized(1) */\n      mload(0x40)\n      tag_222\n      swap2\n      swap1\n      tag_223\n      jump\t// in\n    tag_222:\n      mload(0x40)\n      dup1\n      swap2\n      sub\n      swap1\n      log1\n        /* \"@openzeppelin/contracts-upgradeable/proxy/utils/Initializable.sol\":3253:3352  if (isTopLevelCall) {... */\n    tag_221:\n        /* \"@openzeppelin/contracts-upgradeable/proxy/utils/Initializable.sol\":3101:3358  {... */\n      pop\n        /* \"contracts/MetaFinanceClubInfo.sol\":554:793  function initialize(address treasuryAddress_) initializer public {... */\n      pop\n      jump\t// out\n        /* \"contracts/storages/MfiClubStorages.sol\":266:296  address public treasuryAddress */\n    tag_107:\n      0x06\n      0x00\n      swap1\n      sload\n      swap1\n      0x0100\n      exp\n      swap1\n      div\n      0xffffffffffffffffffffffffffffffffffffffff\n      and\n      dup2\n      jump\t// out\n        /* \"contracts/utils/MfiAccessControl.sol\":208:249  uint256 public constant MAX = ~uint256(0) */\n    tag_110:\n        /* \"contracts/utils/MfiAccessControl.sol\":247:248  0 */\n      0x00\n        /* \"contracts/utils/MfiAccessControl.sol\":238:249  ~uint256(0) */\n      not\n        /* \"contracts/utils/MfiAccessControl.sol\":208:249  uint256 public constant MAX = ~uint256(0) */\n      dup2\n      jump\t// out\n        /* \"contracts/storages/MfiClubStorages.sol\":234:260  address[] public clubArray */\n    tag_114:\n      0x05\n      dup2\n      dup2\n      sload\n      dup2\n      lt\n      tag_224\n      jumpi\n      0x00\n      dup1\n      revert\n    tag_224:\n      swap1\n      0x00\n      mstore\n      keccak256(0x00, 0x20)\n      add\n      0x00\n      swap2\n      pop\n      sload\n      swap1\n      0x0100\n      exp\n      swap1\n      div\n      0xffffffffffffffffffffffffffffffffffffffff\n      and\n      dup2\n      jump\t// out\n        /* \"@openzeppelin/contracts/access/AccessControl.sol\":5149:5296  function revokeRole(bytes32 role, address account) public virtual override onlyRole(getRoleAdmin(role)) {... */\n    tag_118:\n        /* \"@openzeppelin/contracts/access/AccessControl.sol\":5233:5251  getRoleAdmin(role) */\n      tag_226\n        /* \"@openzeppelin/contracts/access/AccessControl.sol\":5246:5250  role */\n      dup3\n        /* \"@openzeppelin/contracts/access/AccessControl.sol\":5233:5245  getRoleAdmin */\n      tag_57\n        /* \"@openzeppelin/contracts/access/AccessControl.sol\":5233:5251  getRoleAdmin(role) */\n      jump\t// in\n    tag_226:\n        /* \"@openzeppelin/contracts/access/AccessControl.sol\":2505:2521  _checkRole(role) */\n      tag_228\n        /* \"@openzeppelin/contracts/access/AccessControl.sol\":2516:2520  role */\n      dup2\n        /* \"@openzeppelin/contracts/access/AccessControl.sol\":2505:2515  _checkRole */\n      tag_142\n        /* \"@openzeppelin/contracts/access/AccessControl.sol\":2505:2521  _checkRole(role) */\n      jump\t// in\n    tag_228:\n        /* \"@openzeppelin/contracts/access/AccessControl.sol\":5263:5289  _revokeRole(role, account) */\n      tag_230\n        /* \"@openzeppelin/contracts/access/AccessControl.sol\":5275:5279  role */\n      dup4\n        /* \"@openzeppelin/contracts/access/AccessControl.sol\":5281:5288  account */\n      dup4\n        /* \"@openzeppelin/contracts/access/AccessControl.sol\":5263:5274  _revokeRole */\n      tag_185\n        /* \"@openzeppelin/contracts/access/AccessControl.sol\":5263:5289  _revokeRole(role, account) */\n      jump\t// in\n    tag_230:\n        /* \"@openzeppelin/contracts/access/AccessControl.sol\":5149:5296  function revokeRole(bytes32 role, address account) public virtual override onlyRole(getRoleAdmin(role)) {... */\n      pop\n      pop\n      pop\n      jump\t// out\n        /* \"contracts/storages/MfiClubStorages.sol\":147:169  uint256 public yesClub */\n    tag_120:\n      sload(0x02)\n      dup2\n      jump\t// out\n        /* \"contracts/MetaFinanceClubInfo.sol\":3348:3564  function setClubProportion(uint256 newYesClub_, uint256 newNoClub_) external onlyRole(DATA_ADMINISTRATOR) {... */\n    tag_125:\n        /* \"contracts/utils/MfiAccessControl.sol\":488:530  abi.encodePacked(\"MFI_Data_Administrator\") */\n      add(0x20, mload(0x40))\n      tag_231\n      swap1\n      tag_139\n      jump\t// in\n    tag_231:\n      mload(0x40)\n      0x20\n      dup2\n      dup4\n      sub\n      sub\n      dup2\n      mstore\n      swap1\n      0x40\n      mstore\n        /* \"contracts/utils/MfiAccessControl.sol\":478:531  keccak256(abi.encodePacked(\"MFI_Data_Administrator\")) */\n      dup1\n      mload\n      swap1\n      0x20\n      add\n      keccak256\n        /* \"@openzeppelin/contracts/access/AccessControl.sol\":2505:2521  _checkRole(role) */\n      tag_233\n        /* \"@openzeppelin/contracts/access/AccessControl.sol\":2516:2520  role */\n      dup2\n        /* \"@openzeppelin/contracts/access/AccessControl.sol\":2505:2515  _checkRole */\n      tag_142\n        /* \"@openzeppelin/contracts/access/AccessControl.sol\":2505:2521  _checkRole(role) */\n      jump\t// in\n    tag_233:\n        /* \"contracts/MetaFinanceClubInfo.sol\":3483:3484  0 */\n      0x00\n        /* \"contracts/MetaFinanceClubInfo.sol\":3468:3479  newYesClub_ */\n      dup4\n        /* \"contracts/MetaFinanceClubInfo.sol\":3468:3484  newYesClub_ != 0 */\n      eq\n        /* \"contracts/MetaFinanceClubInfo.sol\":3464:3507  if (newYesClub_ != 0) yesClub = newYesClub_ */\n      tag_235\n      jumpi\n        /* \"contracts/MetaFinanceClubInfo.sol\":3496:3507  newYesClub_ */\n      dup3\n        /* \"contracts/MetaFinanceClubInfo.sol\":3486:3493  yesClub */\n      0x02\n        /* \"contracts/MetaFinanceClubInfo.sol\":3486:3507  yesClub = newYesClub_ */\n      dup2\n      swap1\n      sstore\n      pop\n        /* \"contracts/MetaFinanceClubInfo.sol\":3464:3507  if (newYesClub_ != 0) yesClub = newYesClub_ */\n    tag_235:\n        /* \"contracts/MetaFinanceClubInfo.sol\":3535:3536  0 */\n      0x00\n        /* \"contracts/MetaFinanceClubInfo.sol\":3521:3531  newNoClub_ */\n      dup3\n        /* \"contracts/MetaFinanceClubInfo.sol\":3521:3536  newNoClub_ != 0 */\n      eq\n        /* \"contracts/MetaFinanceClubInfo.sol\":3517:3557  if (newNoClub_ != 0) noClub = newNoClub_ */\n      tag_236\n      jumpi\n        /* \"contracts/MetaFinanceClubInfo.sol\":3547:3557  newNoClub_ */\n      dup2\n        /* \"contracts/MetaFinanceClubInfo.sol\":3538:3544  noClub */\n      0x03\n        /* \"contracts/MetaFinanceClubInfo.sol\":3538:3557  noClub = newNoClub_ */\n      dup2\n      swap1\n      sstore\n      pop\n        /* \"contracts/MetaFinanceClubInfo.sol\":3517:3557  if (newNoClub_ != 0) noClub = newNoClub_ */\n    tag_236:\n        /* \"contracts/MetaFinanceClubInfo.sol\":3348:3564  function setClubProportion(uint256 newYesClub_, uint256 newNoClub_) external onlyRole(DATA_ADMINISTRATOR) {... */\n      pop\n      pop\n      pop\n      jump\t// out\n        /* \"contracts/storages/MfiClubStorages.sol\":398:467  mapping(address => mapping(address => uint256)) public foundationData */\n    tag_128:\n      mstore(0x20, 0x08)\n      dup2\n      0x00\n      mstore\n      mstore(0x20, keccak256(0x00, 0x40))\n      dup1\n      0x00\n      mstore\n      keccak256(0x00, 0x40)\n      0x00\n      swap2\n      pop\n      swap2\n      pop\n      pop\n      sload\n      dup2\n      jump\t// out\n        /* \"contracts/storages/MfiClubStorages.sol\":332:375  mapping(address => address) public userClub */\n    tag_132:\n      mstore(0x20, 0x07)\n      dup1\n      0x00\n      mstore\n      keccak256(0x00, 0x40)\n      0x00\n      swap2\n      pop\n      sload\n      swap1\n      0x0100\n      exp\n      swap1\n      div\n      0xffffffffffffffffffffffffffffffffffffffff\n      and\n      dup2\n      jump\t// out\n        /* \"contracts/MetaFinanceClubInfo.sol\":1819:2206  function calculateReward(... */\n    tag_137:\n        /* \"contracts/utils/MfiAccessControl.sol\":799:844  abi.encodePacked(\"META_FINANCE_TRIGGER_POOL\") */\n      add(0x20, mload(0x40))\n      tag_237\n      swap1\n      tag_196\n      jump\t// in\n    tag_237:\n      mload(0x40)\n      0x20\n      dup2\n      dup4\n      sub\n      sub\n      dup2\n      mstore\n      swap1\n      0x40\n      mstore\n        /* \"contracts/utils/MfiAccessControl.sol\":789:845  keccak256(abi.encodePacked(\"META_FINANCE_TRIGGER_POOL\")) */\n      dup1\n      mload\n      swap1\n      0x20\n      add\n      keccak256\n        /* \"@openzeppelin/contracts/access/AccessControl.sol\":2505:2521  _checkRole(role) */\n      tag_239\n        /* \"@openzeppelin/contracts/access/AccessControl.sol\":2516:2520  role */\n      dup2\n        /* \"@openzeppelin/contracts/access/AccessControl.sol\":2505:2515  _checkRole */\n      tag_142\n        /* \"@openzeppelin/contracts/access/AccessControl.sol\":2505:2521  _checkRole(role) */\n      jump\t// in\n    tag_239:\n        /* \"contracts/MetaFinanceClubInfo.sol\":2056:2065  addOrSub_ */\n      dup2\n        /* \"contracts/MetaFinanceClubInfo.sol\":2056:2199  addOrSub_ ?... */\n      tag_241\n      jumpi\n        /* \"contracts/MetaFinanceClubInfo.sol\":2143:2199  foundationData[clubAddress_][tokenAddress_].sub(amount_) */\n      tag_242\n        /* \"contracts/MetaFinanceClubInfo.sol\":2191:2198  amount_ */\n      dup4\n        /* \"contracts/MetaFinanceClubInfo.sol\":2143:2157  foundationData */\n      0x08\n        /* \"contracts/MetaFinanceClubInfo.sol\":2143:2171  foundationData[clubAddress_] */\n      0x00\n        /* \"contracts/MetaFinanceClubInfo.sol\":2158:2170  clubAddress_ */\n      dup9\n        /* \"contracts/MetaFinanceClubInfo.sol\":2143:2171  foundationData[clubAddress_] */\n      0xffffffffffffffffffffffffffffffffffffffff\n      and\n      0xffffffffffffffffffffffffffffffffffffffff\n      and\n      dup2\n      mstore\n      0x20\n      add\n      swap1\n      dup2\n      mstore\n      0x20\n      add\n      0x00\n      keccak256\n        /* \"contracts/MetaFinanceClubInfo.sol\":2143:2186  foundationData[clubAddress_][tokenAddress_] */\n      0x00\n        /* \"contracts/MetaFinanceClubInfo.sol\":2172:2185  tokenAddress_ */\n      dup8\n        /* \"contracts/MetaFinanceClubInfo.sol\":2143:2186  foundationData[clubAddress_][tokenAddress_] */\n      0xffffffffffffffffffffffffffffffffffffffff\n      and\n      0xffffffffffffffffffffffffffffffffffffffff\n      and\n      dup2\n      mstore\n      0x20\n      add\n      swap1\n      dup2\n      mstore\n      0x20\n      add\n      0x00\n      keccak256\n      sload\n        /* \"contracts/MetaFinanceClubInfo.sol\":2143:2190  foundationData[clubAddress_][tokenAddress_].sub */\n      tag_243\n      swap1\n        /* \"contracts/MetaFinanceClubInfo.sol\":2143:2199  foundationData[clubAddress_][tokenAddress_].sub(amount_) */\n      swap2\n      swap1\n      0xffffffff\n      and\n      jump\t// in\n    tag_242:\n        /* \"contracts/MetaFinanceClubInfo.sol\":2056:2199  addOrSub_ ?... */\n      jump(tag_244)\n    tag_241:\n        /* \"contracts/MetaFinanceClubInfo.sol\":2076:2132  foundationData[clubAddress_][tokenAddress_].add(amount_) */\n      tag_245\n        /* \"contracts/MetaFinanceClubInfo.sol\":2124:2131  amount_ */\n      dup4\n        /* \"contracts/MetaFinanceClubInfo.sol\":2076:2090  foundationData */\n      0x08\n        /* \"contracts/MetaFinanceClubInfo.sol\":2076:2104  foundationData[clubAddress_] */\n      0x00\n        /* \"contracts/MetaFinanceClubInfo.sol\":2091:2103  clubAddress_ */\n      dup9\n        /* \"contracts/MetaFinanceClubInfo.sol\":2076:2104  foundationData[clubAddress_] */\n      0xffffffffffffffffffffffffffffffffffffffff\n      and\n      0xffffffffffffffffffffffffffffffffffffffff\n      and\n      dup2\n      mstore\n      0x20\n      add\n      swap1\n      dup2\n      mstore\n      0x20\n      add\n      0x00\n      keccak256\n        /* \"contracts/MetaFinanceClubInfo.sol\":2076:2119  foundationData[clubAddress_][tokenAddress_] */\n      0x00\n        /* \"contracts/MetaFinanceClubInfo.sol\":2105:2118  tokenAddress_ */\n      dup8\n        /* \"contracts/MetaFinanceClubInfo.sol\":2076:2119  foundationData[clubAddress_][tokenAddress_] */\n      0xffffffffffffffffffffffffffffffffffffffff\n      and\n      0xffffffffffffffffffffffffffffffffffffffff\n      and\n      dup2\n      mstore\n      0x20\n      add\n      swap1\n      dup2\n      mstore\n      0x20\n      add\n      0x00\n      keccak256\n      sload\n        /* \"contracts/MetaFinanceClubInfo.sol\":2076:2123  foundationData[clubAddress_][tokenAddress_].add */\n      tag_246\n      swap1\n        /* \"contracts/MetaFinanceClubInfo.sol\":2076:2132  foundationData[clubAddress_][tokenAddress_].add(amount_) */\n      swap2\n      swap1\n      0xffffffff\n      and\n      jump\t// in\n    tag_245:\n        /* \"contracts/MetaFinanceClubInfo.sol\":2056:2199  addOrSub_ ?... */\n    tag_244:\n        /* \"contracts/MetaFinanceClubInfo.sol\":2010:2024  foundationData */\n      0x08\n        /* \"contracts/MetaFinanceClubInfo.sol\":2010:2038  foundationData[clubAddress_] */\n      0x00\n        /* \"contracts/MetaFinanceClubInfo.sol\":2025:2037  clubAddress_ */\n      dup8\n        /* \"contracts/MetaFinanceClubInfo.sol\":2010:2038  foundationData[clubAddress_] */\n      0xffffffffffffffffffffffffffffffffffffffff\n      and\n      0xffffffffffffffffffffffffffffffffffffffff\n      and\n      dup2\n      mstore\n      0x20\n      add\n      swap1\n      dup2\n      mstore\n      0x20\n      add\n      0x00\n      keccak256\n        /* \"contracts/MetaFinanceClubInfo.sol\":2010:2053  foundationData[clubAddress_][tokenAddress_] */\n      0x00\n        /* \"contracts/MetaFinanceClubInfo.sol\":2039:2052  tokenAddress_ */\n      dup7\n        /* \"contracts/MetaFinanceClubInfo.sol\":2010:2053  foundationData[clubAddress_][tokenAddress_] */\n      0xffffffffffffffffffffffffffffffffffffffff\n      and\n      0xffffffffffffffffffffffffffffffffffffffff\n      and\n      dup2\n      mstore\n      0x20\n      add\n      swap1\n      dup2\n      mstore\n      0x20\n      add\n      0x00\n      keccak256\n        /* \"contracts/MetaFinanceClubInfo.sol\":2010:2199  foundationData[clubAddress_][tokenAddress_] = addOrSub_ ?... */\n      dup2\n      swap1\n      sstore\n      pop\n        /* \"contracts/MetaFinanceClubInfo.sol\":1819:2206  function calculateReward(... */\n      pop\n      pop\n      pop\n      pop\n      pop\n      jump\t// out\n        /* \"@openzeppelin/contracts/access/AccessControl.sol\":3334:3437  function _checkRole(bytes32 role) internal view virtual {... */\n    tag_142:\n        /* \"@openzeppelin/contracts/access/AccessControl.sol\":3400:3430  _checkRole(role, _msgSender()) */\n      tag_248\n        /* \"@openzeppelin/contracts/access/AccessControl.sol\":3411:3415  role */\n      dup2\n        /* \"@openzeppelin/contracts/access/AccessControl.sol\":3417:3429  _msgSender() */\n      tag_249\n        /* \"@openzeppelin/contracts/access/AccessControl.sol\":3417:3427  _msgSender */\n      tag_180\n        /* \"@openzeppelin/contracts/access/AccessControl.sol\":3417:3429  _msgSender() */\n      jump\t// in\n    tag_249:\n        /* \"@openzeppelin/contracts/access/AccessControl.sol\":3400:3410  _checkRole */\n      tag_250\n        /* \"@openzeppelin/contracts/access/AccessControl.sol\":3400:3430  _checkRole(role, _msgSender()) */\n      jump\t// in\n    tag_248:\n        /* \"@openzeppelin/contracts/access/AccessControl.sol\":3334:3437  function _checkRole(bytes32 role) internal view virtual {... */\n      pop\n      jump\t// out\n        /* \"@openzeppelin/contracts/utils/math/SafeMath.sol\":3850:3946  function div(uint256 a, uint256 b) internal pure returns (uint256) {... */\n    tag_150:\n        /* \"@openzeppelin/contracts/utils/math/SafeMath.sol\":3908:3915  uint256 */\n      0x00\n        /* \"@openzeppelin/contracts/utils/math/SafeMath.sol\":3938:3939  b */\n      dup2\n        /* \"@openzeppelin/contracts/utils/math/SafeMath.sol\":3934:3935  a */\n      dup4\n        /* \"@openzeppelin/contracts/utils/math/SafeMath.sol\":3934:3939  a / b */\n      tag_252\n      swap2\n      swap1\n      tag_253\n      jump\t// in\n    tag_252:\n        /* \"@openzeppelin/contracts/utils/math/SafeMath.sol\":3927:3939  return a / b */\n      swap1\n      pop\n        /* \"@openzeppelin/contracts/utils/math/SafeMath.sol\":3850:3946  function div(uint256 a, uint256 b) internal pure returns (uint256) {... */\n      swap3\n      swap2\n      pop\n      pop\n      jump\t// out\n        /* \"@openzeppelin/contracts/utils/math/SafeMath.sol\":3465:3561  function mul(uint256 a, uint256 b) internal pure returns (uint256) {... */\n    tag_154:\n        /* \"@openzeppelin/contracts/utils/math/SafeMath.sol\":3523:3530  uint256 */\n      0x00\n        /* \"@openzeppelin/contracts/utils/math/SafeMath.sol\":3553:3554  b */\n      dup2\n        /* \"@openzeppelin/contracts/utils/math/SafeMath.sol\":3549:3550  a */\n      dup4\n        /* \"@openzeppelin/contracts/utils/math/SafeMath.sol\":3549:3554  a * b */\n      tag_255\n      swap2\n      swap1\n      tag_256\n      jump\t// in\n    tag_255:\n        /* \"@openzeppelin/contracts/utils/math/SafeMath.sol\":3542:3554  return a * b */\n      swap1\n      pop\n        /* \"@openzeppelin/contracts/utils/math/SafeMath.sol\":3465:3561  function mul(uint256 a, uint256 b) internal pure returns (uint256) {... */\n      swap3\n      swap2\n      pop\n      pop\n      jump\t// out\n        /* \"@openzeppelin/contracts/utils/introspection/ERC165.sol\":829:984  function supportsInterface(bytes4 interfaceId) public view virtual override returns (bool) {... */\n    tag_167:\n        /* \"@openzeppelin/contracts/utils/introspection/ERC165.sol\":914:918  bool */\n      0x00\n        /* \"@openzeppelin/contracts/utils/introspection/ERC165.sol\":952:977  type(IERC165).interfaceId */\n      0x01ffc9a700000000000000000000000000000000000000000000000000000000\n        /* \"@openzeppelin/contracts/utils/introspection/ERC165.sol\":937:977  interfaceId == type(IERC165).interfaceId */\n      not(0xffffffffffffffffffffffffffffffffffffffffffffffffffffffff)\n      and\n        /* \"@openzeppelin/contracts/utils/introspection/ERC165.sol\":937:948  interfaceId */\n      dup3\n        /* \"@openzeppelin/contracts/utils/introspection/ERC165.sol\":937:977  interfaceId == type(IERC165).interfaceId */\n      not(0xffffffffffffffffffffffffffffffffffffffffffffffffffffffff)\n      and\n      eq\n        /* \"@openzeppelin/contracts/utils/introspection/ERC165.sol\":930:977  return interfaceId == type(IERC165).interfaceId */\n      swap1\n      pop\n        /* \"@openzeppelin/contracts/utils/introspection/ERC165.sol\":829:984  function supportsInterface(bytes4 interfaceId) public view virtual override returns (bool) {... */\n      swap2\n      swap1\n      pop\n      jump\t// out\n        /* \"@openzeppelin/contracts/access/AccessControl.sol\":7244:7477  function _grantRole(bytes32 role, address account) internal virtual {... */\n    tag_177:\n        /* \"@openzeppelin/contracts/access/AccessControl.sol\":7327:7349  hasRole(role, account) */\n      tag_259\n        /* \"@openzeppelin/contracts/access/AccessControl.sol\":7335:7339  role */\n      dup3\n        /* \"@openzeppelin/contracts/access/AccessControl.sol\":7341:7348  account */\n      dup3\n        /* \"@openzeppelin/contracts/access/AccessControl.sol\":7327:7334  hasRole */\n      tag_83\n        /* \"@openzeppelin/contracts/access/AccessControl.sol\":7327:7349  hasRole(role, account) */\n      jump\t// in\n    tag_259:\n        /* \"@openzeppelin/contracts/access/AccessControl.sol\":7322:7471  if (!hasRole(role, account)) {... */\n      tag_260\n      jumpi\n        /* \"@openzeppelin/contracts/access/AccessControl.sol\":7397:7401  true */\n      0x01\n        /* \"@openzeppelin/contracts/access/AccessControl.sol\":7365:7371  _roles */\n      0x00\n        /* \"@openzeppelin/contracts/access/AccessControl.sol\":7365:7377  _roles[role] */\n      dup1\n        /* \"@openzeppelin/contracts/access/AccessControl.sol\":7372:7376  role */\n      dup5\n        /* \"@openzeppelin/contracts/access/AccessControl.sol\":7365:7377  _roles[role] */\n      dup2\n      mstore\n      0x20\n      add\n      swap1\n      dup2\n      mstore\n      0x20\n      add\n      0x00\n      keccak256\n        /* \"@openzeppelin/contracts/access/AccessControl.sol\":7365:7385  _roles[role].members */\n      0x00\n      add\n        /* \"@openzeppelin/contracts/access/AccessControl.sol\":7365:7394  _roles[role].members[account] */\n      0x00\n        /* \"@openzeppelin/contracts/access/AccessControl.sol\":7386:7393  account */\n      dup4\n        /* \"@openzeppelin/contracts/access/AccessControl.sol\":7365:7394  _roles[role].members[account] */\n      0xffffffffffffffffffffffffffffffffffffffff\n      and\n      0xffffffffffffffffffffffffffffffffffffffff\n      and\n      dup2\n      mstore\n      0x20\n      add\n      swap1\n      dup2\n      mstore\n      0x20\n      add\n      0x00\n      keccak256\n      0x00\n        /* \"@openzeppelin/contracts/access/AccessControl.sol\":7365:7401  _roles[role].members[account] = true */\n      0x0100\n      exp\n      dup2\n      sload\n      dup2\n      0xff\n      mul\n      not\n      and\n      swap1\n      dup4\n      iszero\n      iszero\n      mul\n      or\n      swap1\n      sstore\n      pop\n        /* \"@openzeppelin/contracts/access/AccessControl.sol\":7447:7459  _msgSender() */\n      tag_261\n        /* \"@openzeppelin/contracts/access/AccessControl.sol\":7447:7457  _msgSender */\n      tag_180\n        /* \"@openzeppelin/contracts/access/AccessControl.sol\":7447:7459  _msgSender() */\n      jump\t// in\n    tag_261:\n        /* \"@openzeppelin/contracts/access/AccessControl.sol\":7420:7460  RoleGranted(role, account, _msgSender()) */\n      0xffffffffffffffffffffffffffffffffffffffff\n      and\n        /* \"@openzeppelin/contracts/access/AccessControl.sol\":7438:7445  account */\n      dup2\n        /* \"@openzeppelin/contracts/access/AccessControl.sol\":7420:7460  RoleGranted(role, account, _msgSender()) */\n      0xffffffffffffffffffffffffffffffffffffffff\n      and\n        /* \"@openzeppelin/contracts/access/AccessControl.sol\":7432:7436  role */\n      dup4\n        /* \"@openzeppelin/contracts/access/AccessControl.sol\":7420:7460  RoleGranted(role, account, _msgSender()) */\n      0x2f8788117e7eff1d82e926ec794901d17c78024a50270940304540a733656f0d\n      mload(0x40)\n      mload(0x40)\n      dup1\n      swap2\n      sub\n      swap1\n      log4\n        /* \"@openzeppelin/contracts/access/AccessControl.sol\":7322:7471  if (!hasRole(role, account)) {... */\n    tag_260:\n        /* \"@openzeppelin/contracts/access/AccessControl.sol\":7244:7477  function _grantRole(bytes32 role, address account) internal virtual {... */\n      pop\n      pop\n      jump\t// out\n        /* \"@openzeppelin/contracts/utils/Context.sol\":640:736  function _msgSender() internal view virtual returns (address) {... */\n    tag_180:\n        /* \"@openzeppelin/contracts/utils/Context.sol\":693:700  address */\n      0x00\n        /* \"@openzeppelin/contracts/utils/Context.sol\":719:729  msg.sender */\n      caller\n        /* \"@openzeppelin/contracts/utils/Context.sol\":712:729  return msg.sender */\n      swap1\n      pop\n        /* \"@openzeppelin/contracts/utils/Context.sol\":640:736  function _msgSender() internal view virtual returns (address) {... */\n      swap1\n      jump\t// out\n        /* \"@openzeppelin/contracts/access/AccessControl.sol\":7602:7836  function _revokeRole(bytes32 role, address account) internal virtual {... */\n    tag_185:\n        /* \"@openzeppelin/contracts/access/AccessControl.sol\":7685:7707  hasRole(role, account) */\n      tag_264\n        /* \"@openzeppelin/contracts/access/AccessControl.sol\":7693:7697  role */\n      dup3\n        /* \"@openzeppelin/contracts/access/AccessControl.sol\":7699:7706  account */\n      dup3\n        /* \"@openzeppelin/contracts/access/AccessControl.sol\":7685:7692  hasRole */\n      tag_83\n        /* \"@openzeppelin/contracts/access/AccessControl.sol\":7685:7707  hasRole(role, account) */\n      jump\t// in\n    tag_264:\n        /* \"@openzeppelin/contracts/access/AccessControl.sol\":7681:7830  if (hasRole(role, account)) {... */\n      iszero\n      tag_265\n      jumpi\n        /* \"@openzeppelin/contracts/access/AccessControl.sol\":7755:7760  false */\n      0x00\n        /* \"@openzeppelin/contracts/access/AccessControl.sol\":7723:7729  _roles */\n      dup1\n        /* \"@openzeppelin/contracts/access/AccessControl.sol\":7723:7735  _roles[role] */\n      0x00\n        /* \"@openzeppelin/contracts/access/AccessControl.sol\":7730:7734  role */\n      dup5\n        /* \"@openzeppelin/contracts/access/AccessControl.sol\":7723:7735  _roles[role] */\n      dup2\n      mstore\n      0x20\n      add\n      swap1\n      dup2\n      mstore\n      0x20\n      add\n      0x00\n      keccak256\n        /* \"@openzeppelin/contracts/access/AccessControl.sol\":7723:7743  _roles[role].members */\n      0x00\n      add\n        /* \"@openzeppelin/contracts/access/AccessControl.sol\":7723:7752  _roles[role].members[account] */\n      0x00\n        /* \"@openzeppelin/contracts/access/AccessControl.sol\":7744:7751  account */\n      dup4\n        /* \"@openzeppelin/contracts/access/AccessControl.sol\":7723:7752  _roles[role].members[account] */\n      0xffffffffffffffffffffffffffffffffffffffff\n      and\n      0xffffffffffffffffffffffffffffffffffffffff\n      and\n      dup2\n      mstore\n      0x20\n      add\n      swap1\n      dup2\n      mstore\n      0x20\n      add\n      0x00\n      keccak256\n      0x00\n        /* \"@openzeppelin/contracts/access/AccessControl.sol\":7723:7760  _roles[role].members[account] = false */\n      0x0100\n      exp\n      dup2\n      sload\n      dup2\n      0xff\n      mul\n      not\n      and\n      swap1\n      dup4\n      iszero\n      iszero\n      mul\n      or\n      swap1\n      sstore\n      pop\n        /* \"@openzeppelin/contracts/access/AccessControl.sol\":7806:7818  _msgSender() */\n      tag_266\n        /* \"@openzeppelin/contracts/access/AccessControl.sol\":7806:7816  _msgSender */\n      tag_180\n        /* \"@openzeppelin/contracts/access/AccessControl.sol\":7806:7818  _msgSender() */\n      jump\t// in\n    tag_266:\n        /* \"@openzeppelin/contracts/access/AccessControl.sol\":7779:7819  RoleRevoked(role, account, _msgSender()) */\n      0xffffffffffffffffffffffffffffffffffffffff\n      and\n        /* \"@openzeppelin/contracts/access/AccessControl.sol\":7797:7804  account */\n      dup2\n        /* \"@openzeppelin/contracts/access/AccessControl.sol\":7779:7819  RoleRevoked(role, account, _msgSender()) */\n      0xffffffffffffffffffffffffffffffffffffffff\n      and\n        /* \"@openzeppelin/contracts/access/AccessControl.sol\":7791:7795  role */\n      dup4\n        /* \"@openzeppelin/contracts/access/AccessControl.sol\":7779:7819  RoleRevoked(role, account, _msgSender()) */\n      0xf6391f5c32d9c69d2a47ea670b442974b53935d1edc7fd64eb21e047a839171b\n      mload(0x40)\n      mload(0x40)\n      dup1\n      swap2\n      sub\n      swap1\n      log4\n        /* \"@openzeppelin/contracts/access/AccessControl.sol\":7681:7830  if (hasRole(role, account)) {... */\n    tag_265:\n        /* \"@openzeppelin/contracts/access/AccessControl.sol\":7602:7836  function _revokeRole(bytes32 role, address account) internal virtual {... */\n      pop\n      pop\n      jump\t// out\n        /* \"@openzeppelin/contracts-upgradeable/proxy/utils/Initializable.sol\":5287:6095  function _setInitializedVersion(uint8 version) private returns (bool) {... */\n    tag_215:\n        /* \"@openzeppelin/contracts-upgradeable/proxy/utils/Initializable.sol\":5351:5355  bool */\n      0x00\n        /* \"@openzeppelin/contracts-upgradeable/proxy/utils/Initializable.sol\":5684:5697  _initializing */\n      0x09\n      0x01\n      swap1\n      sload\n      swap1\n      0x0100\n      exp\n      swap1\n      div\n      0xff\n      and\n        /* \"@openzeppelin/contracts-upgradeable/proxy/utils/Initializable.sol\":5680:6089  if (_initializing) {... */\n      iszero\n      tag_268\n      jumpi\n        /* \"@openzeppelin/contracts-upgradeable/proxy/utils/Initializable.sol\":5749:5750  1 */\n      0x01\n        /* \"@openzeppelin/contracts-upgradeable/proxy/utils/Initializable.sol\":5738:5745  version */\n      dup3\n        /* \"@openzeppelin/contracts-upgradeable/proxy/utils/Initializable.sol\":5738:5750  version == 1 */\n      0xff\n      and\n      eq\n        /* \"@openzeppelin/contracts-upgradeable/proxy/utils/Initializable.sol\":5738:5799  version == 1 && !AddressUpgradeable.isContract(address(this)) */\n      dup1\n      iszero\n      tag_269\n      jumpi\n      pop\n        /* \"@openzeppelin/contracts-upgradeable/proxy/utils/Initializable.sol\":5755:5799  AddressUpgradeable.isContract(address(this)) */\n      tag_270\n        /* \"@openzeppelin/contracts-upgradeable/proxy/utils/Initializable.sol\":5793:5797  this */\n      address\n        /* \"@openzeppelin/contracts-upgradeable/proxy/utils/Initializable.sol\":5755:5784  AddressUpgradeable.isContract */\n      tag_271\n        /* \"@openzeppelin/contracts-upgradeable/proxy/utils/Initializable.sol\":5755:5799  AddressUpgradeable.isContract(address(this)) */\n      jump\t// in\n    tag_270:\n        /* \"@openzeppelin/contracts-upgradeable/proxy/utils/Initializable.sol\":5754:5799  !AddressUpgradeable.isContract(address(this)) */\n      iszero\n        /* \"@openzeppelin/contracts-upgradeable/proxy/utils/Initializable.sol\":5738:5799  version == 1 && !AddressUpgradeable.isContract(address(this)) */\n    tag_269:\n        /* \"@openzeppelin/contracts-upgradeable/proxy/utils/Initializable.sol\":5713:5879  require(... */\n      tag_272\n      jumpi\n      mload(0x40)\n      0x08c379a000000000000000000000000000000000000000000000000000000000\n      dup2\n      mstore\n      0x04\n      add\n      tag_273\n      swap1\n      tag_274\n      jump\t// in\n    tag_273:\n      mload(0x40)\n      dup1\n      swap2\n      sub\n      swap1\n      revert\n    tag_272:\n        /* \"@openzeppelin/contracts-upgradeable/proxy/utils/Initializable.sol\":5900:5905  false */\n      0x00\n        /* \"@openzeppelin/contracts-upgradeable/proxy/utils/Initializable.sol\":5893:5905  return false */\n      swap1\n      pop\n      jump(tag_267)\n        /* \"@openzeppelin/contracts-upgradeable/proxy/utils/Initializable.sol\":5680:6089  if (_initializing) {... */\n    tag_268:\n        /* \"@openzeppelin/contracts-upgradeable/proxy/utils/Initializable.sol\":5959:5966  version */\n      dup2\n        /* \"@openzeppelin/contracts-upgradeable/proxy/utils/Initializable.sol\":5944:5966  _initialized < version */\n      0xff\n      and\n        /* \"@openzeppelin/contracts-upgradeable/proxy/utils/Initializable.sol\":5944:5956  _initialized */\n      0x09\n      0x00\n      swap1\n      sload\n      swap1\n      0x0100\n      exp\n      swap1\n      div\n      0xff\n      and\n        /* \"@openzeppelin/contracts-upgradeable/proxy/utils/Initializable.sol\":5944:5966  _initialized < version */\n      0xff\n      and\n      lt\n        /* \"@openzeppelin/contracts-upgradeable/proxy/utils/Initializable.sol\":5936:6017  require(_initialized < version, \"Initializable: contract is already initialized\") */\n      tag_276\n      jumpi\n      mload(0x40)\n      0x08c379a000000000000000000000000000000000000000000000000000000000\n      dup2\n      mstore\n      0x04\n      add\n      tag_277\n      swap1\n      tag_274\n      jump\t// in\n    tag_277:\n      mload(0x40)\n      dup1\n      swap2\n      sub\n      swap1\n      revert\n    tag_276:\n        /* \"@openzeppelin/contracts-upgradeable/proxy/utils/Initializable.sol\":6046:6053  version */\n      dup2\n        /* \"@openzeppelin/contracts-upgradeable/proxy/utils/Initializable.sol\":6031:6043  _initialized */\n      0x09\n      0x00\n        /* \"@openzeppelin/contracts-upgradeable/proxy/utils/Initializable.sol\":6031:6053  _initialized = version */\n      0x0100\n      exp\n      dup2\n      sload\n      dup2\n      0xff\n      mul\n      not\n      and\n      swap1\n      dup4\n      0xff\n      and\n      mul\n      or\n      swap1\n      sstore\n      pop\n        /* \"@openzeppelin/contracts-upgradeable/proxy/utils/Initializable.sol\":6074:6078  true */\n      0x01\n        /* \"@openzeppelin/contracts-upgradeable/proxy/utils/Initializable.sol\":6067:6078  return true */\n      swap1\n      pop\n        /* \"@openzeppelin/contracts-upgradeable/proxy/utils/Initializable.sol\":5287:6095  function _setInitializedVersion(uint8 version) private returns (bool) {... */\n    tag_267:\n      swap2\n      swap1\n      pop\n      jump\t// out\n        /* \"@openzeppelin/contracts/access/AccessControl.sol\":6640:6750  function _setupRole(bytes32 role, address account) internal virtual {... */\n    tag_220:\n        /* \"@openzeppelin/contracts/access/AccessControl.sol\":6718:6743  _grantRole(role, account) */\n      tag_279\n        /* \"@openzeppelin/contracts/access/AccessControl.sol\":6729:6733  role */\n      dup3\n        /* \"@openzeppelin/contracts/access/AccessControl.sol\":6735:6742  account */\n      dup3\n        /* \"@openzeppelin/contracts/access/AccessControl.sol\":6718:6728  _grantRole */\n      tag_177\n        /* \"@openzeppelin/contracts/access/AccessControl.sol\":6718:6743  _grantRole(role, account) */\n      jump\t// in\n    tag_279:\n        /* \"@openzeppelin/contracts/access/AccessControl.sol\":6640:6750  function _setupRole(bytes32 role, address account) internal virtual {... */\n      pop\n      pop\n      jump\t// out\n        /* \"@openzeppelin/contracts/utils/math/SafeMath.sol\":3122:3218  function sub(uint256 a, uint256 b) internal pure returns (uint256) {... */\n    tag_243:\n        /* \"@openzeppelin/contracts/utils/math/SafeMath.sol\":3180:3187  uint256 */\n      0x00\n        /* \"@openzeppelin/contracts/utils/math/SafeMath.sol\":3210:3211  b */\n      dup2\n        /* \"@openzeppelin/contracts/utils/math/SafeMath.sol\":3206:3207  a */\n      dup4\n        /* \"@openzeppelin/contracts/utils/math/SafeMath.sol\":3206:3211  a - b */\n      tag_281\n      swap2\n      swap1\n      tag_282\n      jump\t// in\n    tag_281:\n        /* \"@openzeppelin/contracts/utils/math/SafeMath.sol\":3199:3211  return a - b */\n      swap1\n      pop\n        /* \"@openzeppelin/contracts/utils/math/SafeMath.sol\":3122:3218  function sub(uint256 a, uint256 b) internal pure returns (uint256) {... */\n      swap3\n      swap2\n      pop\n      pop\n      jump\t// out\n        /* \"@openzeppelin/contracts/utils/math/SafeMath.sol\":2755:2851  function add(uint256 a, uint256 b) internal pure returns (uint256) {... */\n    tag_246:\n        /* \"@openzeppelin/contracts/utils/math/SafeMath.sol\":2813:2820  uint256 */\n      0x00\n        /* \"@openzeppelin/contracts/utils/math/SafeMath.sol\":2843:2844  b */\n      dup2\n        /* \"@openzeppelin/contracts/utils/math/SafeMath.sol\":2839:2840  a */\n      dup4\n        /* \"@openzeppelin/contracts/utils/math/SafeMath.sol\":2839:2844  a + b */\n      tag_284\n      swap2\n      swap1\n      tag_285\n      jump\t// in\n    tag_284:\n        /* \"@openzeppelin/contracts/utils/math/SafeMath.sol\":2832:2844  return a + b */\n      swap1\n      pop\n        /* \"@openzeppelin/contracts/utils/math/SafeMath.sol\":2755:2851  function add(uint256 a, uint256 b) internal pure returns (uint256) {... */\n      swap3\n      swap2\n      pop\n      pop\n      jump\t// out\n        /* \"@openzeppelin/contracts/access/AccessControl.sol\":3718:4210  function _checkRole(bytes32 role, address account) internal view virtual {... */\n    tag_250:\n        /* \"@openzeppelin/contracts/access/AccessControl.sol\":3806:3828  hasRole(role, account) */\n      tag_287\n        /* \"@openzeppelin/contracts/access/AccessControl.sol\":3814:3818  role */\n      dup3\n        /* \"@openzeppelin/contracts/access/AccessControl.sol\":3820:3827  account */\n      dup3\n        /* \"@openzeppelin/contracts/access/AccessControl.sol\":3806:3813  hasRole */\n      tag_83\n        /* \"@openzeppelin/contracts/access/AccessControl.sol\":3806:3828  hasRole(role, account) */\n      jump\t// in\n    tag_287:\n        /* \"@openzeppelin/contracts/access/AccessControl.sol\":3801:4204  if (!hasRole(role, account)) {... */\n      tag_288\n      jumpi\n        /* \"@openzeppelin/contracts/access/AccessControl.sol\":3989:4030  Strings.toHexString(uint160(account), 20) */\n      tag_289\n        /* \"@openzeppelin/contracts/access/AccessControl.sol\":4017:4024  account */\n      dup2\n        /* \"@openzeppelin/contracts/access/AccessControl.sol\":3989:4030  Strings.toHexString(uint160(account), 20) */\n      0xffffffffffffffffffffffffffffffffffffffff\n      and\n        /* \"@openzeppelin/contracts/access/AccessControl.sol\":4027:4029  20 */\n      0x14\n        /* \"@openzeppelin/contracts/access/AccessControl.sol\":3989:4008  Strings.toHexString */\n      tag_290\n        /* \"@openzeppelin/contracts/access/AccessControl.sol\":3989:4030  Strings.toHexString(uint160(account), 20) */\n      jump\t// in\n    tag_289:\n        /* \"@openzeppelin/contracts/access/AccessControl.sol\":4101:4139  Strings.toHexString(uint256(role), 32) */\n      tag_291\n        /* \"@openzeppelin/contracts/access/AccessControl.sol\":4129:4133  role */\n      dup4\n        /* \"@openzeppelin/contracts/access/AccessControl.sol\":4121:4134  uint256(role) */\n      0x00\n      shr\n        /* \"@openzeppelin/contracts/access/AccessControl.sol\":4136:4138  32 */\n      0x20\n        /* \"@openzeppelin/contracts/access/AccessControl.sol\":4101:4120  Strings.toHexString */\n      tag_290\n        /* \"@openzeppelin/contracts/access/AccessControl.sol\":4101:4139  Strings.toHexString(uint256(role), 32) */\n      jump\t// in\n    tag_291:\n        /* \"@openzeppelin/contracts/access/AccessControl.sol\":3896:4161  abi.encodePacked(... */\n      add(0x20, mload(0x40))\n      tag_292\n      swap3\n      swap2\n      swap1\n      tag_293\n      jump\t// in\n    tag_292:\n      mload(0x40)\n      0x20\n      dup2\n      dup4\n      sub\n      sub\n      dup2\n      mstore\n      swap1\n      0x40\n      mstore\n        /* \"@openzeppelin/contracts/access/AccessControl.sol\":3844:4193  revert(... */\n      mload(0x40)\n      0x08c379a000000000000000000000000000000000000000000000000000000000\n      dup2\n      mstore\n      0x04\n      add\n      tag_294\n      swap2\n      swap1\n      tag_295\n      jump\t// in\n    tag_294:\n      mload(0x40)\n      dup1\n      swap2\n      sub\n      swap1\n      revert\n        /* \"@openzeppelin/contracts/access/AccessControl.sol\":3801:4204  if (!hasRole(role, account)) {... */\n    tag_288:\n        /* \"@openzeppelin/contracts/access/AccessControl.sol\":3718:4210  function _checkRole(bytes32 role, address account) internal view virtual {... */\n      pop\n      pop\n      jump\t// out\n        /* \"@openzeppelin/contracts-upgradeable/utils/AddressUpgradeable.sol\":1186:1506  function isContract(address account) internal view returns (bool) {... */\n    tag_271:\n        /* \"@openzeppelin/contracts-upgradeable/utils/AddressUpgradeable.sol\":1246:1250  bool */\n      0x00\n        /* \"@openzeppelin/contracts-upgradeable/utils/AddressUpgradeable.sol\":1498:1499  0 */\n      dup1\n        /* \"@openzeppelin/contracts-upgradeable/utils/AddressUpgradeable.sol\":1476:1483  account */\n      dup3\n        /* \"@openzeppelin/contracts-upgradeable/utils/AddressUpgradeable.sol\":1476:1495  account.code.length */\n      0xffffffffffffffffffffffffffffffffffffffff\n      and\n      extcodesize\n        /* \"@openzeppelin/contracts-upgradeable/utils/AddressUpgradeable.sol\":1476:1499  account.code.length > 0 */\n      gt\n        /* \"@openzeppelin/contracts-upgradeable/utils/AddressUpgradeable.sol\":1469:1499  return account.code.length > 0 */\n      swap1\n      pop\n        /* \"@openzeppelin/contracts-upgradeable/utils/AddressUpgradeable.sol\":1186:1506  function isContract(address account) internal view returns (bool) {... */\n      swap2\n      swap1\n      pop\n      jump\t// out\n        /* \"@openzeppelin/contracts/utils/Strings.sol\":1588:2029  function toHexString(uint256 value, uint256 length) internal pure returns (string memory) {... */\n    tag_290:\n        /* \"@openzeppelin/contracts/utils/Strings.sol\":1663:1676  string memory */\n      0x60\n        /* \"@openzeppelin/contracts/utils/Strings.sol\":1688:1707  bytes memory buffer */\n      0x00\n        /* \"@openzeppelin/contracts/utils/Strings.sol\":1733:1734  2 */\n      0x02\n        /* \"@openzeppelin/contracts/utils/Strings.sol\":1724:1730  length */\n      dup4\n        /* \"@openzeppelin/contracts/utils/Strings.sol\":1720:1721  2 */\n      0x02\n        /* \"@openzeppelin/contracts/utils/Strings.sol\":1720:1730  2 * length */\n      tag_298\n      swap2\n      swap1\n      tag_256\n      jump\t// in\n    tag_298:\n        /* \"@openzeppelin/contracts/utils/Strings.sol\":1720:1734  2 * length + 2 */\n      tag_299\n      swap2\n      swap1\n      tag_285\n      jump\t// in\n    tag_299:\n        /* \"@openzeppelin/contracts/utils/Strings.sol\":1710:1735  new bytes(2 * length + 2) */\n      0xffffffffffffffff\n      dup2\n      gt\n      iszero\n      tag_300\n      jumpi\n      tag_301\n      tag_302\n      jump\t// in\n    tag_301:\n    tag_300:\n      mload(0x40)\n      swap1\n      dup1\n      dup3\n      mstore\n      dup1\n      0x1f\n      add\n      not(0x1f)\n      and\n      0x20\n      add\n      dup3\n      add\n      0x40\n      mstore\n      dup1\n      iszero\n      tag_303\n      jumpi\n      dup2\n      0x20\n      add\n      0x01\n      dup3\n      mul\n      dup1\n      calldatasize\n      dup4\n      calldatacopy\n      dup1\n      dup3\n      add\n      swap2\n      pop\n      pop\n      swap1\n      pop\n    tag_303:\n      pop\n        /* \"@openzeppelin/contracts/utils/Strings.sol\":1688:1735  bytes memory buffer = new bytes(2 * length + 2) */\n      swap1\n      pop\n        /* \"@openzeppelin/contracts/utils/Strings.sol\":1745:1760  buffer[0] = \"0\" */\n      0x3000000000000000000000000000000000000000000000000000000000000000\n        /* \"@openzeppelin/contracts/utils/Strings.sol\":1745:1751  buffer */\n      dup2\n        /* \"@openzeppelin/contracts/utils/Strings.sol\":1752:1753  0 */\n      0x00\n        /* \"@openzeppelin/contracts/utils/Strings.sol\":1745:1754  buffer[0] */\n      dup2\n      mload\n      dup2\n      lt\n      tag_304\n      jumpi\n      tag_305\n      tag_306\n      jump\t// in\n    tag_305:\n    tag_304:\n      0x20\n      add\n      add\n        /* \"@openzeppelin/contracts/utils/Strings.sol\":1745:1760  buffer[0] = \"0\" */\n      swap1\n      not(0xffffffffffffffffffffffffffffffffffffffffffffffffffffffffffffff)\n      and\n      swap1\n      dup2\n      0x00\n      byte\n      swap1\n      mstore8\n      pop\n        /* \"@openzeppelin/contracts/utils/Strings.sol\":1770:1785  buffer[1] = \"x\" */\n      0x7800000000000000000000000000000000000000000000000000000000000000\n        /* \"@openzeppelin/contracts/utils/Strings.sol\":1770:1776  buffer */\n      dup2\n        /* \"@openzeppelin/contracts/utils/Strings.sol\":1777:1778  1 */\n      0x01\n        /* \"@openzeppelin/contracts/utils/Strings.sol\":1770:1779  buffer[1] */\n      dup2\n      mload\n      dup2\n      lt\n      tag_307\n      jumpi\n      tag_308\n      tag_306\n      jump\t// in\n    tag_308:\n    tag_307:\n      0x20\n      add\n      add\n        /* \"@openzeppelin/contracts/utils/Strings.sol\":1770:1785  buffer[1] = \"x\" */\n      swap1\n      not(0xffffffffffffffffffffffffffffffffffffffffffffffffffffffffffffff)\n      and\n      swap1\n      dup2\n      0x00\n      byte\n      swap1\n      mstore8\n      pop\n        /* \"@openzeppelin/contracts/utils/Strings.sol\":1800:1809  uint256 i */\n      0x00\n        /* \"@openzeppelin/contracts/utils/Strings.sol\":1825:1826  1 */\n      0x01\n        /* \"@openzeppelin/contracts/utils/Strings.sol\":1816:1822  length */\n      dup5\n        /* \"@openzeppelin/contracts/utils/Strings.sol\":1812:1813  2 */\n      0x02\n        /* \"@openzeppelin/contracts/utils/Strings.sol\":1812:1822  2 * length */\n      tag_312\n      swap2\n      swap1\n      tag_256\n      jump\t// in\n    tag_312:\n        /* \"@openzeppelin/contracts/utils/Strings.sol\":1812:1826  2 * length + 1 */\n      tag_313\n      swap2\n      swap1\n      tag_285\n      jump\t// in\n    tag_313:\n        /* \"@openzeppelin/contracts/utils/Strings.sol\":1800:1826  uint256 i = 2 * length + 1 */\n      swap1\n      pop\n        /* \"@openzeppelin/contracts/utils/Strings.sol\":1795:1927  for (uint256 i = 2 * length + 1; i > 1; --i) {... */\n    tag_309:\n        /* \"@openzeppelin/contracts/utils/Strings.sol\":1832:1833  1 */\n      0x01\n        /* \"@openzeppelin/contracts/utils/Strings.sol\":1828:1829  i */\n      dup2\n        /* \"@openzeppelin/contracts/utils/Strings.sol\":1828:1833  i > 1 */\n      gt\n        /* \"@openzeppelin/contracts/utils/Strings.sol\":1795:1927  for (uint256 i = 2 * length + 1; i > 1; --i) {... */\n      iszero\n      tag_310\n      jumpi\n        /* \"@openzeppelin/contracts/utils/Strings.sol\":1866:1878  _HEX_SYMBOLS */\n      0x3031323334353637383961626364656600000000000000000000000000000000\n        /* \"@openzeppelin/contracts/utils/Strings.sol\":1887:1890  0xf */\n      0x0f\n        /* \"@openzeppelin/contracts/utils/Strings.sol\":1879:1884  value */\n      dup7\n        /* \"@openzeppelin/contracts/utils/Strings.sol\":1879:1890  value & 0xf */\n      and\n        /* \"@openzeppelin/contracts/utils/Strings.sol\":1866:1891  _HEX_SYMBOLS[value & 0xf] */\n      0x10\n      dup2\n      lt\n      tag_314\n      jumpi\n      tag_315\n      tag_306\n      jump\t// in\n    tag_315:\n    tag_314:\n      byte\n      0xf8\n      shl\n        /* \"@openzeppelin/contracts/utils/Strings.sol\":1854:1860  buffer */\n      dup3\n        /* \"@openzeppelin/contracts/utils/Strings.sol\":1861:1862  i */\n      dup3\n        /* \"@openzeppelin/contracts/utils/Strings.sol\":1854:1863  buffer[i] */\n      dup2\n      mload\n      dup2\n      lt\n      tag_316\n      jumpi\n      tag_317\n      tag_306\n      jump\t// in\n    tag_317:\n    tag_316:\n      0x20\n      add\n      add\n        /* \"@openzeppelin/contracts/utils/Strings.sol\":1854:1891  buffer[i] = _HEX_SYMBOLS[value & 0xf] */\n      swap1\n      not(0xffffffffffffffffffffffffffffffffffffffffffffffffffffffffffffff)\n      and\n      swap1\n      dup2\n      0x00\n      byte\n      swap1\n      mstore8\n      pop\n        /* \"@openzeppelin/contracts/utils/Strings.sol\":1915:1916  4 */\n      0x04\n        /* \"@openzeppelin/contracts/utils/Strings.sol\":1905:1916  value >>= 4 */\n      dup6\n      swap1\n      shr\n      swap5\n      pop\n        /* \"@openzeppelin/contracts/utils/Strings.sol\":1835:1838  --i */\n      dup1\n      tag_318\n      swap1\n      tag_319\n      jump\t// in\n    tag_318:\n      swap1\n      pop\n        /* \"@openzeppelin/contracts/utils/Strings.sol\":1795:1927  for (uint256 i = 2 * length + 1; i > 1; --i) {... */\n      jump(tag_309)\n    tag_310:\n      pop\n        /* \"@openzeppelin/contracts/utils/Strings.sol\":1953:1954  0 */\n      0x00\n        /* \"@openzeppelin/contracts/utils/Strings.sol\":1944:1949  value */\n      dup5\n        /* \"@openzeppelin/contracts/utils/Strings.sol\":1944:1954  value == 0 */\n      eq\n        /* \"@openzeppelin/contracts/utils/Strings.sol\":1936:1991  require(value == 0, \"Strings: hex length insufficient\") */\n      tag_320\n      jumpi\n      mload(0x40)\n      0x08c379a000000000000000000000000000000000000000000000000000000000\n      dup2\n      mstore\n      0x04\n      add\n      tag_321\n      swap1\n      tag_322\n      jump\t// in\n    tag_321:\n      mload(0x40)\n      dup1\n      swap2\n      sub\n      swap1\n      revert\n    tag_320:\n        /* \"@openzeppelin/contracts/utils/Strings.sol\":2015:2021  buffer */\n      dup1\n        /* \"@openzeppelin/contracts/utils/Strings.sol\":2001:2022  return string(buffer) */\n      swap2\n      pop\n      pop\n        /* \"@openzeppelin/contracts/utils/Strings.sol\":1588:2029  function toHexString(uint256 value, uint256 length) internal pure returns (string memory) {... */\n      swap3\n      swap2\n      pop\n      pop\n      jump\t// out\n        /* \"#utility.yul\":7:146   */\n    tag_324:\n        /* \"#utility.yul\":53:58   */\n      0x00\n        /* \"#utility.yul\":91:97   */\n      dup2\n        /* \"#utility.yul\":78:98   */\n      calldataload\n        /* \"#utility.yul\":69:98   */\n      swap1\n      pop\n        /* \"#utility.yul\":107:140   */\n      tag_326\n        /* \"#utility.yul\":134:139   */\n      dup2\n        /* \"#utility.yul\":107:140   */\n      tag_327\n      jump\t// in\n    tag_326:\n        /* \"#utility.yul\":59:146   */\n      swap3\n      swap2\n      pop\n      pop\n      jump\t// out\n        /* \"#utility.yul\":152:285   */\n    tag_328:\n        /* \"#utility.yul\":195:200   */\n      0x00\n        /* \"#utility.yul\":233:239   */\n      dup2\n        /* \"#utility.yul\":220:240   */\n      calldataload\n        /* \"#utility.yul\":211:240   */\n      swap1\n      pop\n        /* \"#utility.yul\":249:279   */\n      tag_330\n        /* \"#utility.yul\":273:278   */\n      dup2\n        /* \"#utility.yul\":249:279   */\n      tag_331\n      jump\t// in\n    tag_330:\n        /* \"#utility.yul\":201:285   */\n      swap3\n      swap2\n      pop\n      pop\n      jump\t// out\n        /* \"#utility.yul\":291:430   */\n    tag_332:\n        /* \"#utility.yul\":337:342   */\n      0x00\n        /* \"#utility.yul\":375:381   */\n      dup2\n        /* \"#utility.yul\":362:382   */\n      calldataload\n        /* \"#utility.yul\":353:382   */\n      swap1\n      pop\n        /* \"#utility.yul\":391:424   */\n      tag_334\n        /* \"#utility.yul\":418:423   */\n      dup2\n        /* \"#utility.yul\":391:424   */\n      tag_335\n      jump\t// in\n    tag_334:\n        /* \"#utility.yul\":343:430   */\n      swap3\n      swap2\n      pop\n      pop\n      jump\t// out\n        /* \"#utility.yul\":436:573   */\n    tag_336:\n        /* \"#utility.yul\":481:486   */\n      0x00\n        /* \"#utility.yul\":519:525   */\n      dup2\n        /* \"#utility.yul\":506:526   */\n      calldataload\n        /* \"#utility.yul\":497:526   */\n      swap1\n      pop\n        /* \"#utility.yul\":535:567   */\n      tag_338\n        /* \"#utility.yul\":561:566   */\n      dup2\n        /* \"#utility.yul\":535:567   */\n      tag_339\n      jump\t// in\n    tag_338:\n        /* \"#utility.yul\":487:573   */\n      swap3\n      swap2\n      pop\n      pop\n      jump\t// out\n        /* \"#utility.yul\":579:718   */\n    tag_340:\n        /* \"#utility.yul\":625:630   */\n      0x00\n        /* \"#utility.yul\":663:669   */\n      dup2\n        /* \"#utility.yul\":650:670   */\n      calldataload\n        /* \"#utility.yul\":641:670   */\n      swap1\n      pop\n        /* \"#utility.yul\":679:712   */\n      tag_342\n        /* \"#utility.yul\":706:711   */\n      dup2\n        /* \"#utility.yul\":679:712   */\n      tag_343\n      jump\t// in\n    tag_342:\n        /* \"#utility.yul\":631:718   */\n      swap3\n      swap2\n      pop\n      pop\n      jump\t// out\n        /* \"#utility.yul\":724:1053   */\n    tag_79:\n        /* \"#utility.yul\":783:789   */\n      0x00\n        /* \"#utility.yul\":832:834   */\n      0x20\n        /* \"#utility.yul\":820:829   */\n      dup3\n        /* \"#utility.yul\":811:818   */\n      dup5\n        /* \"#utility.yul\":807:830   */\n      sub\n        /* \"#utility.yul\":803:835   */\n      slt\n        /* \"#utility.yul\":800:802   */\n      iszero\n      tag_345\n      jumpi\n        /* \"#utility.yul\":838:917   */\n      tag_346\n      tag_347\n      jump\t// in\n    tag_346:\n        /* \"#utility.yul\":800:802   */\n    tag_345:\n        /* \"#utility.yul\":958:959   */\n      0x00\n        /* \"#utility.yul\":983:1036   */\n      tag_348\n        /* \"#utility.yul\":1028:1035   */\n      dup5\n        /* \"#utility.yul\":1019:1025   */\n      dup3\n        /* \"#utility.yul\":1008:1017   */\n      dup6\n        /* \"#utility.yul\":1004:1026   */\n      add\n        /* \"#utility.yul\":983:1036   */\n      tag_324\n      jump\t// in\n    tag_348:\n        /* \"#utility.yul\":973:1036   */\n      swap2\n      pop\n        /* \"#utility.yul\":929:1046   */\n      pop\n        /* \"#utility.yul\":790:1053   */\n      swap3\n      swap2\n      pop\n      pop\n      jump\t// out\n        /* \"#utility.yul\":1059:1533   */\n    tag_101:\n        /* \"#utility.yul\":1127:1133   */\n      0x00\n        /* \"#utility.yul\":1135:1141   */\n      dup1\n        /* \"#utility.yul\":1184:1186   */\n      0x40\n        /* \"#utility.yul\":1172:1181   */\n      dup4\n        /* \"#utility.yul\":1163:1170   */\n      dup6\n        /* \"#utility.yul\":1159:1182   */\n      sub\n        /* \"#utility.yul\":1155:1187   */\n      slt\n        /* \"#utility.yul\":1152:1154   */\n      iszero\n      tag_350\n      jumpi\n        /* \"#utility.yul\":1190:1269   */\n      tag_351\n      tag_347\n      jump\t// in\n    tag_351:\n        /* \"#utility.yul\":1152:1154   */\n    tag_350:\n        /* \"#utility.yul\":1310:1311   */\n      0x00\n        /* \"#utility.yul\":1335:1388   */\n      tag_352\n        /* \"#utility.yul\":1380:1387   */\n      dup6\n        /* \"#utility.yul\":1371:1377   */\n      dup3\n        /* \"#utility.yul\":1360:1369   */\n      dup7\n        /* \"#utility.yul\":1356:1378   */\n      add\n        /* \"#utility.yul\":1335:1388   */\n      tag_324\n      jump\t// in\n    tag_352:\n        /* \"#utility.yul\":1325:1388   */\n      swap3\n      pop\n        /* \"#utility.yul\":1281:1398   */\n      pop\n        /* \"#utility.yul\":1437:1439   */\n      0x20\n        /* \"#utility.yul\":1463:1516   */\n      tag_353\n        /* \"#utility.yul\":1508:1515   */\n      dup6\n        /* \"#utility.yul\":1499:1505   */\n      dup3\n        /* \"#utility.yul\":1488:1497   */\n      dup7\n        /* \"#utility.yul\":1484:1506   */\n      add\n        /* \"#utility.yul\":1463:1516   */\n      tag_324\n      jump\t// in\n    tag_353:\n        /* \"#utility.yul\":1453:1516   */\n      swap2\n      pop\n        /* \"#utility.yul\":1408:1526   */\n      pop\n        /* \"#utility.yul\":1142:1533   */\n      swap3\n      pop\n      swap3\n      swap1\n      pop\n      jump\t// out\n        /* \"#utility.yul\":1539:2298   */\n    tag_136:\n        /* \"#utility.yul\":1622:1628   */\n      0x00\n        /* \"#utility.yul\":1630:1636   */\n      dup1\n        /* \"#utility.yul\":1638:1644   */\n      0x00\n        /* \"#utility.yul\":1646:1652   */\n      dup1\n        /* \"#utility.yul\":1695:1698   */\n      0x80\n        /* \"#utility.yul\":1683:1692   */\n      dup6\n        /* \"#utility.yul\":1674:1681   */\n      dup8\n        /* \"#utility.yul\":1670:1693   */\n      sub\n        /* \"#utility.yul\":1666:1699   */\n      slt\n        /* \"#utility.yul\":1663:1665   */\n      iszero\n      tag_355\n      jumpi\n        /* \"#utility.yul\":1702:1781   */\n      tag_356\n      tag_347\n      jump\t// in\n    tag_356:\n        /* \"#utility.yul\":1663:1665   */\n    tag_355:\n        /* \"#utility.yul\":1822:1823   */\n      0x00\n        /* \"#utility.yul\":1847:1900   */\n      tag_357\n        /* \"#utility.yul\":1892:1899   */\n      dup8\n        /* \"#utility.yul\":1883:1889   */\n      dup3\n        /* \"#utility.yul\":1872:1881   */\n      dup9\n        /* \"#utility.yul\":1868:1890   */\n      add\n        /* \"#utility.yul\":1847:1900   */\n      tag_324\n      jump\t// in\n    tag_357:\n        /* \"#utility.yul\":1837:1900   */\n      swap5\n      pop\n        /* \"#utility.yul\":1793:1910   */\n      pop\n        /* \"#utility.yul\":1949:1951   */\n      0x20\n        /* \"#utility.yul\":1975:2028   */\n      tag_358\n        /* \"#utility.yul\":2020:2027   */\n      dup8\n        /* \"#utility.yul\":2011:2017   */\n      dup3\n        /* \"#utility.yul\":2000:2009   */\n      dup9\n        /* \"#utility.yul\":1996:2018   */\n      add\n        /* \"#utility.yul\":1975:2028   */\n      tag_324\n      jump\t// in\n    tag_358:\n        /* \"#utility.yul\":1965:2028   */\n      swap4\n      pop\n        /* \"#utility.yul\":1920:2038   */\n      pop\n        /* \"#utility.yul\":2077:2079   */\n      0x40\n        /* \"#utility.yul\":2103:2156   */\n      tag_359\n        /* \"#utility.yul\":2148:2155   */\n      dup8\n        /* \"#utility.yul\":2139:2145   */\n      dup3\n        /* \"#utility.yul\":2128:2137   */\n      dup9\n        /* \"#utility.yul\":2124:2146   */\n      add\n        /* \"#utility.yul\":2103:2156   */\n      tag_340\n      jump\t// in\n    tag_359:\n        /* \"#utility.yul\":2093:2156   */\n      swap3\n      pop\n        /* \"#utility.yul\":2048:2166   */\n      pop\n        /* \"#utility.yul\":2205:2207   */\n      0x60\n        /* \"#utility.yul\":2231:2281   */\n      tag_360\n        /* \"#utility.yul\":2273:2280   */\n      dup8\n        /* \"#utility.yul\":2264:2270   */\n      dup3\n        /* \"#utility.yul\":2253:2262   */\n      dup9\n        /* \"#utility.yul\":2249:2271   */\n      add\n        /* \"#utility.yul\":2231:2281   */\n      tag_328\n      jump\t// in\n    tag_360:\n        /* \"#utility.yul\":2221:2281   */\n      swap2\n      pop\n        /* \"#utility.yul\":2176:2291   */\n      pop\n        /* \"#utility.yul\":1653:2298   */\n      swap3\n      swap6\n      swap2\n      swap5\n      pop\n      swap3\n      pop\n      jump\t// out\n        /* \"#utility.yul\":2304:2633   */\n    tag_56:\n        /* \"#utility.yul\":2363:2369   */\n      0x00\n        /* \"#utility.yul\":2412:2414   */\n      0x20\n        /* \"#utility.yul\":2400:2409   */\n      dup3\n        /* \"#utility.yul\":2391:2398   */\n      dup5\n        /* \"#utility.yul\":2387:2410   */\n      sub\n        /* \"#utility.yul\":2383:2415   */\n      slt\n        /* \"#utility.yul\":2380:2382   */\n      iszero\n      tag_362\n      jumpi\n        /* \"#utility.yul\":2418:2497   */\n      tag_363\n      tag_347\n      jump\t// in\n    tag_363:\n        /* \"#utility.yul\":2380:2382   */\n    tag_362:\n        /* \"#utility.yul\":2538:2539   */\n      0x00\n        /* \"#utility.yul\":2563:2616   */\n      tag_364\n        /* \"#utility.yul\":2608:2615   */\n      dup5\n        /* \"#utility.yul\":2599:2605   */\n      dup3\n        /* \"#utility.yul\":2588:2597   */\n      dup6\n        /* \"#utility.yul\":2584:2606   */\n      add\n        /* \"#utility.yul\":2563:2616   */\n      tag_332\n      jump\t// in\n    tag_364:\n        /* \"#utility.yul\":2553:2616   */\n      swap2\n      pop\n        /* \"#utility.yul\":2509:2626   */\n      pop\n        /* \"#utility.yul\":2370:2633   */\n      swap3\n      swap2\n      pop\n      pop\n      jump\t// out\n        /* \"#utility.yul\":2639:3113   */\n    tag_64:\n        /* \"#utility.yul\":2707:2713   */\n      0x00\n        /* \"#utility.yul\":2715:2721   */\n      dup1\n        /* \"#utility.yul\":2764:2766   */\n      0x40\n        /* \"#utility.yul\":2752:2761   */\n      dup4\n        /* \"#utility.yul\":2743:2750   */\n      dup6\n        /* \"#utility.yul\":2739:2762   */\n      sub\n        /* \"#utility.yul\":2735:2767   */\n      slt\n        /* \"#utility.yul\":2732:2734   */\n      iszero\n      tag_366\n      jumpi\n        /* \"#utility.yul\":2770:2849   */\n      tag_367\n      tag_347\n      jump\t// in\n    tag_367:\n        /* \"#utility.yul\":2732:2734   */\n    tag_366:\n        /* \"#utility.yul\":2890:2891   */\n      0x00\n        /* \"#utility.yul\":2915:2968   */\n      tag_368\n        /* \"#utility.yul\":2960:2967   */\n      dup6\n        /* \"#utility.yul\":2951:2957   */\n      dup3\n        /* \"#utility.yul\":2940:2949   */\n      dup7\n        /* \"#utility.yul\":2936:2958   */\n      add\n        /* \"#utility.yul\":2915:2968   */\n      tag_332\n      jump\t// in\n    tag_368:\n        /* \"#utility.yul\":2905:2968   */\n      swap3\n      pop\n        /* \"#utility.yul\":2861:2978   */\n      pop\n        /* \"#utility.yul\":3017:3019   */\n      0x20\n        /* \"#utility.yul\":3043:3096   */\n      tag_369\n        /* \"#utility.yul\":3088:3095   */\n      dup6\n        /* \"#utility.yul\":3079:3085   */\n      dup3\n        /* \"#utility.yul\":3068:3077   */\n      dup7\n        /* \"#utility.yul\":3064:3086   */\n      add\n        /* \"#utility.yul\":3043:3096   */\n      tag_324\n      jump\t// in\n    tag_369:\n        /* \"#utility.yul\":3033:3096   */\n      swap2\n      pop\n        /* \"#utility.yul\":2988:3106   */\n      pop\n        /* \"#utility.yul\":2722:3113   */\n      swap3\n      pop\n      swap3\n      swap1\n      pop\n      jump\t// out\n        /* \"#utility.yul\":3119:3446   */\n    tag_42:\n        /* \"#utility.yul\":3177:3183   */\n      0x00\n        /* \"#utility.yul\":3226:3228   */\n      0x20\n        /* \"#utility.yul\":3214:3223   */\n      dup3\n        /* \"#utility.yul\":3205:3212   */\n      dup5\n        /* \"#utility.yul\":3201:3224   */\n      sub\n        /* \"#utility.yul\":3197:3229   */\n      slt\n        /* \"#utility.yul\":3194:3196   */\n      iszero\n      tag_371\n      jumpi\n        /* \"#utility.yul\":3232:3311   */\n      tag_372\n      tag_347\n      jump\t// in\n    tag_372:\n        /* \"#utility.yul\":3194:3196   */\n    tag_371:\n        /* \"#utility.yul\":3352:3353   */\n      0x00\n        /* \"#utility.yul\":3377:3429   */\n      tag_373\n        /* \"#utility.yul\":3421:3428   */\n      dup5\n        /* \"#utility.yul\":3412:3418   */\n      dup3\n        /* \"#utility.yul\":3401:3410   */\n      dup6\n        /* \"#utility.yul\":3397:3419   */\n      add\n        /* \"#utility.yul\":3377:3429   */\n      tag_336\n      jump\t// in\n    tag_373:\n        /* \"#utility.yul\":3367:3429   */\n      swap2\n      pop\n        /* \"#utility.yul\":3323:3439   */\n      pop\n        /* \"#utility.yul\":3184:3446   */\n      swap3\n      swap2\n      pop\n      pop\n      jump\t// out\n        /* \"#utility.yul\":3452:3781   */\n    tag_38:\n        /* \"#utility.yul\":3511:3517   */\n      0x00\n        /* \"#utility.yul\":3560:3562   */\n      0x20\n        /* \"#utility.yul\":3548:3557   */\n      dup3\n        /* \"#utility.yul\":3539:3546   */\n      dup5\n        /* \"#utility.yul\":3535:3558   */\n      sub\n        /* \"#utility.yul\":3531:3563   */\n      slt\n        /* \"#utility.yul\":3528:3530   */\n      iszero\n      tag_375\n      jumpi\n        /* \"#utility.yul\":3566:3645   */\n      tag_376\n      tag_347\n      jump\t// in\n    tag_376:\n        /* \"#utility.yul\":3528:3530   */\n    tag_375:\n        /* \"#utility.yul\":3686:3687   */\n      0x00\n        /* \"#utility.yul\":3711:3764   */\n      tag_377\n        /* \"#utility.yul\":3756:3763   */\n      dup5\n        /* \"#utility.yul\":3747:3753   */\n      dup3\n        /* \"#utility.yul\":3736:3745   */\n      dup6\n        /* \"#utility.yul\":3732:3754   */\n      add\n        /* \"#utility.yul\":3711:3764   */\n      tag_340\n      jump\t// in\n    tag_377:\n        /* \"#utility.yul\":3701:3764   */\n      swap2\n      pop\n        /* \"#utility.yul\":3657:3774   */\n      pop\n        /* \"#utility.yul\":3518:3781   */\n      swap3\n      swap2\n      pop\n      pop\n      jump\t// out\n        /* \"#utility.yul\":3787:4261   */\n    tag_124:\n        /* \"#utility.yul\":3855:3861   */\n      0x00\n        /* \"#utility.yul\":3863:3869   */\n      dup1\n        /* \"#utility.yul\":3912:3914   */\n      0x40\n        /* \"#utility.yul\":3900:3909   */\n      dup4\n        /* \"#utility.yul\":3891:3898   */\n      dup6\n        /* \"#utility.yul\":3887:3910   */\n      sub\n        /* \"#utility.yul\":3883:3915   */\n      slt\n        /* \"#utility.yul\":3880:3882   */\n      iszero\n      tag_379\n      jumpi\n        /* \"#utility.yul\":3918:3997   */\n      tag_380\n      tag_347\n      jump\t// in\n    tag_380:\n        /* \"#utility.yul\":3880:3882   */\n    tag_379:\n        /* \"#utility.yul\":4038:4039   */\n      0x00\n        /* \"#utility.yul\":4063:4116   */\n      tag_381\n        /* \"#utility.yul\":4108:4115   */\n      dup6\n        /* \"#utility.yul\":4099:4105   */\n      dup3\n        /* \"#utility.yul\":4088:4097   */\n      dup7\n        /* \"#utility.yul\":4084:4106   */\n      add\n        /* \"#utility.yul\":4063:4116   */\n      tag_340\n      jump\t// in\n    tag_381:\n        /* \"#utility.yul\":4053:4116   */\n      swap3\n      pop\n        /* \"#utility.yul\":4009:4126   */\n      pop\n        /* \"#utility.yul\":4165:4167   */\n      0x20\n        /* \"#utility.yul\":4191:4244   */\n      tag_382\n        /* \"#utility.yul\":4236:4243   */\n      dup6\n        /* \"#utility.yul\":4227:4233   */\n      dup3\n        /* \"#utility.yul\":4216:4225   */\n      dup7\n        /* \"#utility.yul\":4212:4234   */\n      add\n        /* \"#utility.yul\":4191:4244   */\n      tag_340\n      jump\t// in\n    tag_382:\n        /* \"#utility.yul\":4181:4244   */\n      swap2\n      pop\n        /* \"#utility.yul\":4136:4254   */\n      pop\n        /* \"#utility.yul\":3870:4261   */\n      swap3\n      pop\n      swap3\n      swap1\n      pop\n      jump\t// out\n        /* \"#utility.yul\":4267:4385   */\n    tag_383:\n        /* \"#utility.yul\":4354:4378   */\n      tag_385\n        /* \"#utility.yul\":4372:4377   */\n      dup2\n        /* \"#utility.yul\":4354:4378   */\n      tag_386\n      jump\t// in\n    tag_385:\n        /* \"#utility.yul\":4349:4352   */\n      dup3\n        /* \"#utility.yul\":4342:4379   */\n      mstore\n        /* \"#utility.yul\":4332:4385   */\n      pop\n      pop\n      jump\t// out\n        /* \"#utility.yul\":4391:4500   */\n    tag_387:\n        /* \"#utility.yul\":4472:4493   */\n      tag_389\n        /* \"#utility.yul\":4487:4492   */\n      dup2\n        /* \"#utility.yul\":4472:4493   */\n      tag_390\n      jump\t// in\n    tag_389:\n        /* \"#utility.yul\":4467:4470   */\n      dup3\n        /* \"#utility.yul\":4460:4494   */\n      mstore\n        /* \"#utility.yul\":4450:4500   */\n      pop\n      pop\n      jump\t// out\n        /* \"#utility.yul\":4506:4624   */\n    tag_391:\n        /* \"#utility.yul\":4593:4617   */\n      tag_393\n        /* \"#utility.yul\":4611:4616   */\n      dup2\n        /* \"#utility.yul\":4593:4617   */\n      tag_394\n      jump\t// in\n    tag_393:\n        /* \"#utility.yul\":4588:4591   */\n      dup3\n        /* \"#utility.yul\":4581:4618   */\n      mstore\n        /* \"#utility.yul\":4571:4624   */\n      pop\n      pop\n      jump\t// out\n        /* \"#utility.yul\":4630:4990   */\n    tag_395:\n        /* \"#utility.yul\":4716:4719   */\n      0x00\n        /* \"#utility.yul\":4744:4782   */\n      tag_397\n        /* \"#utility.yul\":4776:4781   */\n      dup3\n        /* \"#utility.yul\":4744:4782   */\n      tag_398\n      jump\t// in\n    tag_397:\n        /* \"#utility.yul\":4798:4868   */\n      tag_399\n        /* \"#utility.yul\":4861:4867   */\n      dup2\n        /* \"#utility.yul\":4856:4859   */\n      dup6\n        /* \"#utility.yul\":4798:4868   */\n      tag_400\n      jump\t// in\n    tag_399:\n        /* \"#utility.yul\":4791:4868   */\n      swap4\n      pop\n        /* \"#utility.yul\":4877:4929   */\n      tag_401\n        /* \"#utility.yul\":4922:4928   */\n      dup2\n        /* \"#utility.yul\":4917:4920   */\n      dup6\n        /* \"#utility.yul\":4910:4914   */\n      0x20\n        /* \"#utility.yul\":4903:4908   */\n      dup7\n        /* \"#utility.yul\":4899:4915   */\n      add\n        /* \"#utility.yul\":4877:4929   */\n      tag_402\n      jump\t// in\n    tag_401:\n        /* \"#utility.yul\":4954:4983   */\n      tag_403\n        /* \"#utility.yul\":4976:4982   */\n      dup2\n        /* \"#utility.yul\":4954:4983   */\n      tag_404\n      jump\t// in\n    tag_403:\n        /* \"#utility.yul\":4949:4952   */\n      dup5\n        /* \"#utility.yul\":4945:4984   */\n      add\n        /* \"#utility.yul\":4938:4984   */\n      swap2\n      pop\n        /* \"#utility.yul\":4720:4990   */\n      pop\n      swap3\n      swap2\n      pop\n      pop\n      jump\t// out\n        /* \"#utility.yul\":4996:5139   */\n    tag_405:\n        /* \"#utility.yul\":5089:5132   */\n      tag_407\n        /* \"#utility.yul\":5126:5131   */\n      dup2\n        /* \"#utility.yul\":5089:5132   */\n      tag_408\n      jump\t// in\n    tag_407:\n        /* \"#utility.yul\":5084:5087   */\n      dup3\n        /* \"#utility.yul\":5077:5133   */\n      mstore\n        /* \"#utility.yul\":5067:5139   */\n      pop\n      pop\n      jump\t// out\n        /* \"#utility.yul\":5145:5509   */\n    tag_409:\n        /* \"#utility.yul\":5233:5236   */\n      0x00\n        /* \"#utility.yul\":5261:5300   */\n      tag_411\n        /* \"#utility.yul\":5294:5299   */\n      dup3\n        /* \"#utility.yul\":5261:5300   */\n      tag_412\n      jump\t// in\n    tag_411:\n        /* \"#utility.yul\":5316:5387   */\n      tag_413\n        /* \"#utility.yul\":5380:5386   */\n      dup2\n        /* \"#utility.yul\":5375:5378   */\n      dup6\n        /* \"#utility.yul\":5316:5387   */\n      tag_414\n      jump\t// in\n    tag_413:\n        /* \"#utility.yul\":5309:5387   */\n      swap4\n      pop\n        /* \"#utility.yul\":5396:5448   */\n      tag_415\n        /* \"#utility.yul\":5441:5447   */\n      dup2\n        /* \"#utility.yul\":5436:5439   */\n      dup6\n        /* \"#utility.yul\":5429:5433   */\n      0x20\n        /* \"#utility.yul\":5422:5427   */\n      dup7\n        /* \"#utility.yul\":5418:5434   */\n      add\n        /* \"#utility.yul\":5396:5448   */\n      tag_402\n      jump\t// in\n    tag_415:\n        /* \"#utility.yul\":5473:5502   */\n      tag_416\n        /* \"#utility.yul\":5495:5501   */\n      dup2\n        /* \"#utility.yul\":5473:5502   */\n      tag_404\n      jump\t// in\n    tag_416:\n        /* \"#utility.yul\":5468:5471   */\n      dup5\n        /* \"#utility.yul\":5464:5503   */\n      add\n        /* \"#utility.yul\":5457:5503   */\n      swap2\n      pop\n        /* \"#utility.yul\":5237:5509   */\n      pop\n      swap3\n      swap2\n      pop\n      pop\n      jump\t// out\n        /* \"#utility.yul\":5515:5892   */\n    tag_417:\n        /* \"#utility.yul\":5621:5624   */\n      0x00\n        /* \"#utility.yul\":5649:5688   */\n      tag_419\n        /* \"#utility.yul\":5682:5687   */\n      dup3\n        /* \"#utility.yul\":5649:5688   */\n      tag_412\n      jump\t// in\n    tag_419:\n        /* \"#utility.yul\":5704:5793   */\n      tag_420\n        /* \"#utility.yul\":5786:5792   */\n      dup2\n        /* \"#utility.yul\":5781:5784   */\n      dup6\n        /* \"#utility.yul\":5704:5793   */\n      tag_421\n      jump\t// in\n    tag_420:\n        /* \"#utility.yul\":5697:5793   */\n      swap4\n      pop\n        /* \"#utility.yul\":5802:5854   */\n      tag_422\n        /* \"#utility.yul\":5847:5853   */\n      dup2\n        /* \"#utility.yul\":5842:5845   */\n      dup6\n        /* \"#utility.yul\":5835:5839   */\n      0x20\n        /* \"#utility.yul\":5828:5833   */\n      dup7\n        /* \"#utility.yul\":5824:5840   */\n      add\n        /* \"#utility.yul\":5802:5854   */\n      tag_402\n      jump\t// in\n    tag_422:\n        /* \"#utility.yul\":5879:5885   */\n      dup1\n        /* \"#utility.yul\":5874:5877   */\n      dup5\n        /* \"#utility.yul\":5870:5886   */\n      add\n        /* \"#utility.yul\":5863:5886   */\n      swap2\n      pop\n        /* \"#utility.yul\":5625:5892   */\n      pop\n      swap3\n      swap2\n      pop\n      pop\n      jump\t// out\n        /* \"#utility.yul\":5898:6264   */\n    tag_423:\n        /* \"#utility.yul\":6040:6043   */\n      0x00\n        /* \"#utility.yul\":6061:6128   */\n      tag_425\n        /* \"#utility.yul\":6125:6127   */\n      0x20\n        /* \"#utility.yul\":6120:6123   */\n      dup4\n        /* \"#utility.yul\":6061:6128   */\n      tag_414\n      jump\t// in\n    tag_425:\n        /* \"#utility.yul\":6054:6128   */\n      swap2\n      pop\n        /* \"#utility.yul\":6137:6230   */\n      tag_426\n        /* \"#utility.yul\":6226:6229   */\n      dup3\n        /* \"#utility.yul\":6137:6230   */\n      tag_427\n      jump\t// in\n    tag_426:\n        /* \"#utility.yul\":6255:6257   */\n      0x20\n        /* \"#utility.yul\":6250:6253   */\n      dup3\n        /* \"#utility.yul\":6246:6258   */\n      add\n        /* \"#utility.yul\":6239:6258   */\n      swap1\n      pop\n        /* \"#utility.yul\":6044:6264   */\n      swap2\n      swap1\n      pop\n      jump\t// out\n        /* \"#utility.yul\":6270:6672   */\n    tag_428:\n        /* \"#utility.yul\":6430:6433   */\n      0x00\n        /* \"#utility.yul\":6451:6536   */\n      tag_430\n        /* \"#utility.yul\":6533:6535   */\n      0x17\n        /* \"#utility.yul\":6528:6531   */\n      dup4\n        /* \"#utility.yul\":6451:6536   */\n      tag_421\n      jump\t// in\n    tag_430:\n        /* \"#utility.yul\":6444:6536   */\n      swap2\n      pop\n        /* \"#utility.yul\":6545:6638   */\n      tag_431\n        /* \"#utility.yul\":6634:6637   */\n      dup3\n        /* \"#utility.yul\":6545:6638   */\n      tag_432\n      jump\t// in\n    tag_431:\n        /* \"#utility.yul\":6663:6665   */\n      0x17\n        /* \"#utility.yul\":6658:6661   */\n      dup3\n        /* \"#utility.yul\":6654:6666   */\n      add\n        /* \"#utility.yul\":6647:6666   */\n      swap1\n      pop\n        /* \"#utility.yul\":6434:6672   */\n      swap2\n      swap1\n      pop\n      jump\t// out\n        /* \"#utility.yul\":6678:7080   */\n    tag_433:\n        /* \"#utility.yul\":6838:6841   */\n      0x00\n        /* \"#utility.yul\":6859:6944   */\n      tag_435\n        /* \"#utility.yul\":6941:6943   */\n      0x19\n        /* \"#utility.yul\":6936:6939   */\n      dup4\n        /* \"#utility.yul\":6859:6944   */\n      tag_421\n      jump\t// in\n    tag_435:\n        /* \"#utility.yul\":6852:6944   */\n      swap2\n      pop\n        /* \"#utility.yul\":6953:7046   */\n      tag_436\n        /* \"#utility.yul\":7042:7045   */\n      dup3\n        /* \"#utility.yul\":6953:7046   */\n      tag_437\n      jump\t// in\n    tag_436:\n        /* \"#utility.yul\":7071:7073   */\n      0x19\n        /* \"#utility.yul\":7066:7069   */\n      dup3\n        /* \"#utility.yul\":7062:7074   */\n      add\n        /* \"#utility.yul\":7055:7074   */\n      swap1\n      pop\n        /* \"#utility.yul\":6842:7080   */\n      swap2\n      swap1\n      pop\n      jump\t// out\n        /* \"#utility.yul\":7086:7452   */\n    tag_438:\n        /* \"#utility.yul\":7228:7231   */\n      0x00\n        /* \"#utility.yul\":7249:7316   */\n      tag_440\n        /* \"#utility.yul\":7313:7315   */\n      0x2e\n        /* \"#utility.yul\":7308:7311   */\n      dup4\n        /* \"#utility.yul\":7249:7316   */\n      tag_414\n      jump\t// in\n    tag_440:\n        /* \"#utility.yul\":7242:7316   */\n      swap2\n      pop\n        /* \"#utility.yul\":7325:7418   */\n      tag_441\n        /* \"#utility.yul\":7414:7417   */\n      dup3\n        /* \"#utility.yul\":7325:7418   */\n      tag_442\n      jump\t// in\n    tag_441:\n        /* \"#utility.yul\":7443:7445   */\n      0x40\n        /* \"#utility.yul\":7438:7441   */\n      dup3\n        /* \"#utility.yul\":7434:7446   */\n      add\n        /* \"#utility.yul\":7427:7446   */\n      swap1\n      pop\n        /* \"#utility.yul\":7232:7452   */\n      swap2\n      swap1\n      pop\n      jump\t// out\n        /* \"#utility.yul\":7458:7860   */\n    tag_443:\n        /* \"#utility.yul\":7618:7621   */\n      0x00\n        /* \"#utility.yul\":7639:7724   */\n      tag_445\n        /* \"#utility.yul\":7721:7723   */\n      0x16\n        /* \"#utility.yul\":7716:7719   */\n      dup4\n        /* \"#utility.yul\":7639:7724   */\n      tag_421\n      jump\t// in\n    tag_445:\n        /* \"#utility.yul\":7632:7724   */\n      swap2\n      pop\n        /* \"#utility.yul\":7733:7826   */\n      tag_446\n        /* \"#utility.yul\":7822:7825   */\n      dup3\n        /* \"#utility.yul\":7733:7826   */\n      tag_447\n      jump\t// in\n    tag_446:\n        /* \"#utility.yul\":7851:7853   */\n      0x16\n        /* \"#utility.yul\":7846:7849   */\n      dup3\n        /* \"#utility.yul\":7842:7854   */\n      add\n        /* \"#utility.yul\":7835:7854   */\n      swap1\n      pop\n        /* \"#utility.yul\":7622:7860   */\n      swap2\n      swap1\n      pop\n      jump\t// out\n        /* \"#utility.yul\":7866:8268   */\n    tag_448:\n        /* \"#utility.yul\":8026:8029   */\n      0x00\n        /* \"#utility.yul\":8047:8132   */\n      tag_450\n        /* \"#utility.yul\":8129:8131   */\n      0x19\n        /* \"#utility.yul\":8124:8127   */\n      dup4\n        /* \"#utility.yul\":8047:8132   */\n      tag_421\n      jump\t// in\n    tag_450:\n        /* \"#utility.yul\":8040:8132   */\n      swap2\n      pop\n        /* \"#utility.yul\":8141:8234   */\n      tag_451\n        /* \"#utility.yul\":8230:8233   */\n      dup3\n        /* \"#utility.yul\":8141:8234   */\n      tag_452\n      jump\t// in\n    tag_451:\n        /* \"#utility.yul\":8259:8261   */\n      0x19\n        /* \"#utility.yul\":8254:8257   */\n      dup3\n        /* \"#utility.yul\":8250:8262   */\n      add\n        /* \"#utility.yul\":8243:8262   */\n      swap1\n      pop\n        /* \"#utility.yul\":8030:8268   */\n      swap2\n      swap1\n      pop\n      jump\t// out\n        /* \"#utility.yul\":8274:8676   */\n    tag_453:\n        /* \"#utility.yul\":8434:8437   */\n      0x00\n        /* \"#utility.yul\":8455:8540   */\n      tag_455\n        /* \"#utility.yul\":8537:8539   */\n      0x17\n        /* \"#utility.yul\":8532:8535   */\n      dup4\n        /* \"#utility.yul\":8455:8540   */\n      tag_421\n      jump\t// in\n    tag_455:\n        /* \"#utility.yul\":8448:8540   */\n      swap2\n      pop\n        /* \"#utility.yul\":8549:8642   */\n      tag_456\n        /* \"#utility.yul\":8638:8641   */\n      dup3\n        /* \"#utility.yul\":8549:8642   */\n      tag_457\n      jump\t// in\n    tag_456:\n        /* \"#utility.yul\":8667:8669   */\n      0x17\n        /* \"#utility.yul\":8662:8665   */\n      dup3\n        /* \"#utility.yul\":8658:8670   */\n      add\n        /* \"#utility.yul\":8651:8670   */\n      swap1\n      pop\n        /* \"#utility.yul\":8438:8676   */\n      swap2\n      swap1\n      pop\n      jump\t// out\n        /* \"#utility.yul\":8682:9047   */\n    tag_458:\n        /* \"#utility.yul\":8824:8827   */\n      0x00\n        /* \"#utility.yul\":8845:8911   */\n      tag_460\n        /* \"#utility.yul\":8909:8910   */\n      0x07\n        /* \"#utility.yul\":8904:8907   */\n      dup4\n        /* \"#utility.yul\":8845:8911   */\n      tag_414\n      jump\t// in\n    tag_460:\n        /* \"#utility.yul\":8838:8911   */\n      swap2\n      pop\n        /* \"#utility.yul\":8920:9013   */\n      tag_461\n        /* \"#utility.yul\":9009:9012   */\n      dup3\n        /* \"#utility.yul\":8920:9013   */\n      tag_462\n      jump\t// in\n    tag_461:\n        /* \"#utility.yul\":9038:9040   */\n      0x20\n        /* \"#utility.yul\":9033:9036   */\n      dup3\n        /* \"#utility.yul\":9029:9041   */\n      add\n        /* \"#utility.yul\":9022:9041   */\n      swap1\n      pop\n        /* \"#utility.yul\":8828:9047   */\n      swap2\n      swap1\n      pop\n      jump\t// out\n        /* \"#utility.yul\":9053:9455   */\n    tag_463:\n        /* \"#utility.yul\":9213:9216   */\n      0x00\n        /* \"#utility.yul\":9234:9319   */\n      tag_465\n        /* \"#utility.yul\":9316:9318   */\n      0x11\n        /* \"#utility.yul\":9311:9314   */\n      dup4\n        /* \"#utility.yul\":9234:9319   */\n      tag_421\n      jump\t// in\n    tag_465:\n        /* \"#utility.yul\":9227:9319   */\n      swap2\n      pop\n        /* \"#utility.yul\":9328:9421   */\n      tag_466\n        /* \"#utility.yul\":9417:9420   */\n      dup3\n        /* \"#utility.yul\":9328:9421   */\n      tag_467\n      jump\t// in\n    tag_466:\n        /* \"#utility.yul\":9446:9448   */\n      0x11\n        /* \"#utility.yul\":9441:9444   */\n      dup3\n        /* \"#utility.yul\":9437:9449   */\n      add\n        /* \"#utility.yul\":9430:9449   */\n      swap1\n      pop\n        /* \"#utility.yul\":9217:9455   */\n      swap2\n      swap1\n      pop\n      jump\t// out\n        /* \"#utility.yul\":9461:9827   */\n    tag_468:\n        /* \"#utility.yul\":9603:9606   */\n      0x00\n        /* \"#utility.yul\":9624:9691   */\n      tag_470\n        /* \"#utility.yul\":9688:9690   */\n      0x2f\n        /* \"#utility.yul\":9683:9686   */\n      dup4\n        /* \"#utility.yul\":9624:9691   */\n      tag_414\n      jump\t// in\n    tag_470:\n        /* \"#utility.yul\":9617:9691   */\n      swap2\n      pop\n        /* \"#utility.yul\":9700:9793   */\n      tag_471\n        /* \"#utility.yul\":9789:9792   */\n      dup3\n        /* \"#utility.yul\":9700:9793   */\n      tag_472\n      jump\t// in\n    tag_471:\n        /* \"#utility.yul\":9818:9820   */\n      0x40\n        /* \"#utility.yul\":9813:9816   */\n      dup3\n        /* \"#utility.yul\":9809:9821   */\n      add\n        /* \"#utility.yul\":9802:9821   */\n      swap1\n      pop\n        /* \"#utility.yul\":9607:9827   */\n      swap2\n      swap1\n      pop\n      jump\t// out\n        /* \"#utility.yul\":9833:9951   */\n    tag_473:\n        /* \"#utility.yul\":9920:9944   */\n      tag_475\n        /* \"#utility.yul\":9938:9943   */\n      dup2\n        /* \"#utility.yul\":9920:9944   */\n      tag_476\n      jump\t// in\n    tag_475:\n        /* \"#utility.yul\":9915:9918   */\n      dup3\n        /* \"#utility.yul\":9908:9945   */\n      mstore\n        /* \"#utility.yul\":9898:9951   */\n      pop\n      pop\n      jump\t// out\n        /* \"#utility.yul\":9957:10338   */\n    tag_169:\n        /* \"#utility.yul\":10142:10145   */\n      0x00\n        /* \"#utility.yul\":10164:10312   */\n      tag_478\n        /* \"#utility.yul\":10308:10311   */\n      dup3\n        /* \"#utility.yul\":10164:10312   */\n      tag_428\n      jump\t// in\n    tag_478:\n        /* \"#utility.yul\":10157:10312   */\n      swap2\n      pop\n        /* \"#utility.yul\":10329:10332   */\n      dup2\n        /* \"#utility.yul\":10322:10332   */\n      swap1\n      pop\n        /* \"#utility.yul\":10146:10338   */\n      swap2\n      swap1\n      pop\n      jump\t// out\n        /* \"#utility.yul\":10344:10725   */\n    tag_198:\n        /* \"#utility.yul\":10529:10532   */\n      0x00\n        /* \"#utility.yul\":10551:10699   */\n      tag_480\n        /* \"#utility.yul\":10695:10698   */\n      dup3\n        /* \"#utility.yul\":10551:10699   */\n      tag_433\n      jump\t// in\n    tag_480:\n        /* \"#utility.yul\":10544:10699   */\n      swap2\n      pop\n        /* \"#utility.yul\":10716:10719   */\n      dup2\n        /* \"#utility.yul\":10709:10719   */\n      swap1\n      pop\n        /* \"#utility.yul\":10533:10725   */\n      swap2\n      swap1\n      pop\n      jump\t// out\n        /* \"#utility.yul\":10731:11112   */\n    tag_139:\n        /* \"#utility.yul\":10916:10919   */\n      0x00\n        /* \"#utility.yul\":10938:11086   */\n      tag_482\n        /* \"#utility.yul\":11082:11085   */\n      dup3\n        /* \"#utility.yul\":10938:11086   */\n      tag_443\n      jump\t// in\n    tag_482:\n        /* \"#utility.yul\":10931:11086   */\n      swap2\n      pop\n        /* \"#utility.yul\":11103:11106   */\n      dup2\n        /* \"#utility.yul\":11096:11106   */\n      swap1\n      pop\n        /* \"#utility.yul\":10920:11112   */\n      swap2\n      swap1\n      pop\n      jump\t// out\n        /* \"#utility.yul\":11118:11499   */\n    tag_196:\n        /* \"#utility.yul\":11303:11306   */\n      0x00\n        /* \"#utility.yul\":11325:11473   */\n      tag_484\n        /* \"#utility.yul\":11469:11472   */\n      dup3\n        /* \"#utility.yul\":11325:11473   */\n      tag_448\n      jump\t// in\n    tag_484:\n        /* \"#utility.yul\":11318:11473   */\n      swap2\n      pop\n        /* \"#utility.yul\":11490:11493   */\n      dup2\n        /* \"#utility.yul\":11483:11493   */\n      swap1\n      pop\n        /* \"#utility.yul\":11307:11499   */\n      swap2\n      swap1\n      pop\n      jump\t// out\n        /* \"#utility.yul\":11505:12472   */\n    tag_293:\n        /* \"#utility.yul\":11887:11890   */\n      0x00\n        /* \"#utility.yul\":11909:12057   */\n      tag_486\n        /* \"#utility.yul\":12053:12056   */\n      dup3\n        /* \"#utility.yul\":11909:12057   */\n      tag_453\n      jump\t// in\n    tag_486:\n        /* \"#utility.yul\":11902:12057   */\n      swap2\n      pop\n        /* \"#utility.yul\":12074:12169   */\n      tag_487\n        /* \"#utility.yul\":12165:12168   */\n      dup3\n        /* \"#utility.yul\":12156:12162   */\n      dup6\n        /* \"#utility.yul\":12074:12169   */\n      tag_417\n      jump\t// in\n    tag_487:\n        /* \"#utility.yul\":12067:12169   */\n      swap2\n      pop\n        /* \"#utility.yul\":12186:12334   */\n      tag_488\n        /* \"#utility.yul\":12330:12333   */\n      dup3\n        /* \"#utility.yul\":12186:12334   */\n      tag_463\n      jump\t// in\n    tag_488:\n        /* \"#utility.yul\":12179:12334   */\n      swap2\n      pop\n        /* \"#utility.yul\":12351:12446   */\n      tag_489\n        /* \"#utility.yul\":12442:12445   */\n      dup3\n        /* \"#utility.yul\":12433:12439   */\n      dup5\n        /* \"#utility.yul\":12351:12446   */\n      tag_417\n      jump\t// in\n    tag_489:\n        /* \"#utility.yul\":12344:12446   */\n      swap2\n      pop\n        /* \"#utility.yul\":12463:12466   */\n      dup2\n        /* \"#utility.yul\":12456:12466   */\n      swap1\n      pop\n        /* \"#utility.yul\":11891:12472   */\n      swap4\n      swap3\n      pop\n      pop\n      pop\n      jump\t// out\n        /* \"#utility.yul\":12478:12700   */\n    tag_73:\n        /* \"#utility.yul\":12571:12575   */\n      0x00\n        /* \"#utility.yul\":12609:12611   */\n      0x20\n        /* \"#utility.yul\":12598:12607   */\n      dup3\n        /* \"#utility.yul\":12594:12612   */\n      add\n        /* \"#utility.yul\":12586:12612   */\n      swap1\n      pop\n        /* \"#utility.yul\":12622:12693   */\n      tag_491\n        /* \"#utility.yul\":12690:12691   */\n      0x00\n        /* \"#utility.yul\":12679:12688   */\n      dup4\n        /* \"#utility.yul\":12675:12692   */\n      add\n        /* \"#utility.yul\":12666:12672   */\n      dup5\n        /* \"#utility.yul\":12622:12693   */\n      tag_383\n      jump\t// in\n    tag_491:\n        /* \"#utility.yul\":12576:12700   */\n      swap3\n      swap2\n      pop\n      pop\n      jump\t// out\n        /* \"#utility.yul\":12706:13038   */\n    tag_212:\n        /* \"#utility.yul\":12827:12831   */\n      0x00\n        /* \"#utility.yul\":12865:12867   */\n      0x40\n        /* \"#utility.yul\":12854:12863   */\n      dup3\n        /* \"#utility.yul\":12850:12868   */\n      add\n        /* \"#utility.yul\":12842:12868   */\n      swap1\n      pop\n        /* \"#utility.yul\":12878:12949   */\n      tag_493\n        /* \"#utility.yul\":12946:12947   */\n      0x00\n        /* \"#utility.yul\":12935:12944   */\n      dup4\n        /* \"#utility.yul\":12931:12948   */\n      add\n        /* \"#utility.yul\":12922:12928   */\n      dup6\n        /* \"#utility.yul\":12878:12949   */\n      tag_383\n      jump\t// in\n    tag_493:\n        /* \"#utility.yul\":12959:13031   */\n      tag_494\n        /* \"#utility.yul\":13027:13029   */\n      0x20\n        /* \"#utility.yul\":13016:13025   */\n      dup4\n        /* \"#utility.yul\":13012:13030   */\n      add\n        /* \"#utility.yul\":13003:13009   */\n      dup5\n        /* \"#utility.yul\":12959:13031   */\n      tag_383\n      jump\t// in\n    tag_494:\n        /* \"#utility.yul\":12832:13038   */\n      swap4\n      swap3\n      pop\n      pop\n      pop\n      jump\t// out\n        /* \"#utility.yul\":13044:13254   */\n    tag_45:\n        /* \"#utility.yul\":13131:13135   */\n      0x00\n        /* \"#utility.yul\":13169:13171   */\n      0x20\n        /* \"#utility.yul\":13158:13167   */\n      dup3\n        /* \"#utility.yul\":13154:13172   */\n      add\n        /* \"#utility.yul\":13146:13172   */\n      swap1\n      pop\n        /* \"#utility.yul\":13182:13247   */\n      tag_496\n        /* \"#utility.yul\":13244:13245   */\n      0x00\n        /* \"#utility.yul\":13233:13242   */\n      dup4\n        /* \"#utility.yul\":13229:13246   */\n      add\n        /* \"#utility.yul\":13220:13226   */\n      dup5\n        /* \"#utility.yul\":13182:13247   */\n      tag_387\n      jump\t// in\n    tag_496:\n        /* \"#utility.yul\":13136:13254   */\n      swap3\n      swap2\n      pop\n      pop\n      jump\t// out\n        /* \"#utility.yul\":13260:13482   */\n    tag_53:\n        /* \"#utility.yul\":13353:13357   */\n      0x00\n        /* \"#utility.yul\":13391:13393   */\n      0x20\n        /* \"#utility.yul\":13380:13389   */\n      dup3\n        /* \"#utility.yul\":13376:13394   */\n      add\n        /* \"#utility.yul\":13368:13394   */\n      swap1\n      pop\n        /* \"#utility.yul\":13404:13475   */\n      tag_498\n        /* \"#utility.yul\":13472:13473   */\n      0x00\n        /* \"#utility.yul\":13461:13470   */\n      dup4\n        /* \"#utility.yul\":13457:13474   */\n      add\n        /* \"#utility.yul\":13448:13454   */\n      dup5\n        /* \"#utility.yul\":13404:13475   */\n      tag_391\n      jump\t// in\n    tag_498:\n        /* \"#utility.yul\":13358:13482   */\n      swap3\n      swap2\n      pop\n      pop\n      jump\t// out\n        /* \"#utility.yul\":13488:13797   */\n    tag_89:\n        /* \"#utility.yul\":13599:13603   */\n      0x00\n        /* \"#utility.yul\":13637:13639   */\n      0x20\n        /* \"#utility.yul\":13626:13635   */\n      dup3\n        /* \"#utility.yul\":13622:13640   */\n      add\n        /* \"#utility.yul\":13614:13640   */\n      swap1\n      pop\n        /* \"#utility.yul\":13686:13695   */\n      dup2\n        /* \"#utility.yul\":13680:13684   */\n      dup2\n        /* \"#utility.yul\":13676:13696   */\n      sub\n        /* \"#utility.yul\":13672:13673   */\n      0x00\n        /* \"#utility.yul\":13661:13670   */\n      dup4\n        /* \"#utility.yul\":13657:13674   */\n      add\n        /* \"#utility.yul\":13650:13697   */\n      mstore\n        /* \"#utility.yul\":13714:13790   */\n      tag_500\n        /* \"#utility.yul\":13785:13789   */\n      dup2\n        /* \"#utility.yul\":13776:13782   */\n      dup5\n        /* \"#utility.yul\":13714:13790   */\n      tag_395\n      jump\t// in\n    tag_500:\n        /* \"#utility.yul\":13706:13790   */\n      swap1\n      pop\n        /* \"#utility.yul\":13604:13797   */\n      swap3\n      swap2\n      pop\n      pop\n      jump\t// out\n        /* \"#utility.yul\":13803:14037   */\n    tag_223:\n        /* \"#utility.yul\":13902:13906   */\n      0x00\n        /* \"#utility.yul\":13940:13942   */\n      0x20\n        /* \"#utility.yul\":13929:13938   */\n      dup3\n        /* \"#utility.yul\":13925:13943   */\n      add\n        /* \"#utility.yul\":13917:13943   */\n      swap1\n      pop\n        /* \"#utility.yul\":13953:14030   */\n      tag_502\n        /* \"#utility.yul\":14027:14028   */\n      0x00\n        /* \"#utility.yul\":14016:14025   */\n      dup4\n        /* \"#utility.yul\":14012:14029   */\n      add\n        /* \"#utility.yul\":14003:14009   */\n      dup5\n        /* \"#utility.yul\":13953:14030   */\n      tag_405\n      jump\t// in\n    tag_502:\n        /* \"#utility.yul\":13907:14037   */\n      swap3\n      swap2\n      pop\n      pop\n      jump\t// out\n        /* \"#utility.yul\":14043:14356   */\n    tag_295:\n        /* \"#utility.yul\":14156:14160   */\n      0x00\n        /* \"#utility.yul\":14194:14196   */\n      0x20\n        /* \"#utility.yul\":14183:14192   */\n      dup3\n        /* \"#utility.yul\":14179:14197   */\n      add\n        /* \"#utility.yul\":14171:14197   */\n      swap1\n      pop\n        /* \"#utility.yul\":14243:14252   */\n      dup2\n        /* \"#utility.yul\":14237:14241   */\n      dup2\n        /* \"#utility.yul\":14233:14253   */\n      sub\n        /* \"#utility.yul\":14229:14230   */\n      0x00\n        /* \"#utility.yul\":14218:14227   */\n      dup4\n        /* \"#utility.yul\":14214:14231   */\n      add\n        /* \"#utility.yul\":14207:14254   */\n      mstore\n        /* \"#utility.yul\":14271:14349   */\n      tag_504\n        /* \"#utility.yul\":14344:14348   */\n      dup2\n        /* \"#utility.yul\":14335:14341   */\n      dup5\n        /* \"#utility.yul\":14271:14349   */\n      tag_409\n      jump\t// in\n    tag_504:\n        /* \"#utility.yul\":14263:14349   */\n      swap1\n      pop\n        /* \"#utility.yul\":14161:14356   */\n      swap3\n      swap2\n      pop\n      pop\n      jump\t// out\n        /* \"#utility.yul\":14362:14781   */\n    tag_322:\n        /* \"#utility.yul\":14528:14532   */\n      0x00\n        /* \"#utility.yul\":14566:14568   */\n      0x20\n        /* \"#utility.yul\":14555:14564   */\n      dup3\n        /* \"#utility.yul\":14551:14569   */\n      add\n        /* \"#utility.yul\":14543:14569   */\n      swap1\n      pop\n        /* \"#utility.yul\":14615:14624   */\n      dup2\n        /* \"#utility.yul\":14609:14613   */\n      dup2\n        /* \"#utility.yul\":14605:14625   */\n      sub\n        /* \"#utility.yul\":14601:14602   */\n      0x00\n        /* \"#utility.yul\":14590:14599   */\n      dup4\n        /* \"#utility.yul\":14586:14603   */\n      add\n        /* \"#utility.yul\":14579:14626   */\n      mstore\n        /* \"#utility.yul\":14643:14774   */\n      tag_506\n        /* \"#utility.yul\":14769:14773   */\n      dup2\n        /* \"#utility.yul\":14643:14774   */\n      tag_423\n      jump\t// in\n    tag_506:\n        /* \"#utility.yul\":14635:14774   */\n      swap1\n      pop\n        /* \"#utility.yul\":14533:14781   */\n      swap2\n      swap1\n      pop\n      jump\t// out\n        /* \"#utility.yul\":14787:15206   */\n    tag_274:\n        /* \"#utility.yul\":14953:14957   */\n      0x00\n        /* \"#utility.yul\":14991:14993   */\n      0x20\n        /* \"#utility.yul\":14980:14989   */\n      dup3\n        /* \"#utility.yul\":14976:14994   */\n      add\n        /* \"#utility.yul\":14968:14994   */\n      swap1\n      pop\n        /* \"#utility.yul\":15040:15049   */\n      dup2\n        /* \"#utility.yul\":15034:15038   */\n      dup2\n        /* \"#utility.yul\":15030:15050   */\n      sub\n        /* \"#utility.yul\":15026:15027   */\n      0x00\n        /* \"#utility.yul\":15015:15024   */\n      dup4\n        /* \"#utility.yul\":15011:15028   */\n      add\n        /* \"#utility.yul\":15004:15051   */\n      mstore\n        /* \"#utility.yul\":15068:15199   */\n      tag_508\n        /* \"#utility.yul\":15194:15198   */\n      dup2\n        /* \"#utility.yul\":15068:15199   */\n      tag_438\n      jump\t// in\n    tag_508:\n        /* \"#utility.yul\":15060:15199   */\n      swap1\n      pop\n        /* \"#utility.yul\":14958:15206   */\n      swap2\n      swap1\n      pop\n      jump\t// out\n        /* \"#utility.yul\":15212:15631   */\n    tag_207:\n        /* \"#utility.yul\":15378:15382   */\n      0x00\n        /* \"#utility.yul\":15416:15418   */\n      0x20\n        /* \"#utility.yul\":15405:15414   */\n      dup3\n        /* \"#utility.yul\":15401:15419   */\n      add\n        /* \"#utility.yul\":15393:15419   */\n      swap1\n      pop\n        /* \"#utility.yul\":15465:15474   */\n      dup2\n        /* \"#utility.yul\":15459:15463   */\n      dup2\n        /* \"#utility.yul\":15455:15475   */\n      sub\n        /* \"#utility.yul\":15451:15452   */\n      0x00\n        /* \"#utility.yul\":15440:15449   */\n      dup4\n        /* \"#utility.yul\":15436:15453   */\n      add\n        /* \"#utility.yul\":15429:15476   */\n      mstore\n        /* \"#utility.yul\":15493:15624   */\n      tag_510\n        /* \"#utility.yul\":15619:15623   */\n      dup2\n        /* \"#utility.yul\":15493:15624   */\n      tag_458\n      jump\t// in\n    tag_510:\n        /* \"#utility.yul\":15485:15624   */\n      swap1\n      pop\n        /* \"#utility.yul\":15383:15631   */\n      swap2\n      swap1\n      pop\n      jump\t// out\n        /* \"#utility.yul\":15637:16056   */\n    tag_183:\n        /* \"#utility.yul\":15803:15807   */\n      0x00\n        /* \"#utility.yul\":15841:15843   */\n      0x20\n        /* \"#utility.yul\":15830:15839   */\n      dup3\n        /* \"#utility.yul\":15826:15844   */\n      add\n        /* \"#utility.yul\":15818:15844   */\n      swap1\n      pop\n        /* \"#utility.yul\":15890:15899   */\n      dup2\n        /* \"#utility.yul\":15884:15888   */\n      dup2\n        /* \"#utility.yul\":15880:15900   */\n      sub\n        /* \"#utility.yul\":15876:15877   */\n      0x00\n        /* \"#utility.yul\":15865:15874   */\n      dup4\n        /* \"#utility.yul\":15861:15878   */\n      add\n        /* \"#utility.yul\":15854:15901   */\n      mstore\n        /* \"#utility.yul\":15918:16049   */\n      tag_512\n        /* \"#utility.yul\":16044:16048   */\n      dup2\n        /* \"#utility.yul\":15918:16049   */\n      tag_468\n      jump\t// in\n    tag_512:\n        /* \"#utility.yul\":15910:16049   */\n      swap1\n      pop\n        /* \"#utility.yul\":15808:16056   */\n      swap2\n      swap1\n      pop\n      jump\t// out\n        /* \"#utility.yul\":16062:16284   */\n    tag_49:\n        /* \"#utility.yul\":16155:16159   */\n      0x00\n        /* \"#utility.yul\":16193:16195   */\n      0x20\n        /* \"#utility.yul\":16182:16191   */\n      dup3\n        /* \"#utility.yul\":16178:16196   */\n      add\n        /* \"#utility.yul\":16170:16196   */\n      swap1\n      pop\n        /* \"#utility.yul\":16206:16277   */\n      tag_514\n        /* \"#utility.yul\":16274:16275   */\n      0x00\n        /* \"#utility.yul\":16263:16272   */\n      dup4\n        /* \"#utility.yul\":16259:16276   */\n      add\n        /* \"#utility.yul\":16250:16256   */\n      dup5\n        /* \"#utility.yul\":16206:16277   */\n      tag_473\n      jump\t// in\n    tag_514:\n        /* \"#utility.yul\":16160:16284   */\n      swap3\n      swap2\n      pop\n      pop\n      jump\t// out\n        /* \"#utility.yul\":16371:16469   */\n    tag_398:\n        /* \"#utility.yul\":16422:16428   */\n      0x00\n        /* \"#utility.yul\":16456:16461   */\n      dup2\n        /* \"#utility.yul\":16450:16462   */\n      mload\n        /* \"#utility.yul\":16440:16462   */\n      swap1\n      pop\n        /* \"#utility.yul\":16429:16469   */\n      swap2\n      swap1\n      pop\n      jump\t// out\n        /* \"#utility.yul\":16475:16574   */\n    tag_412:\n        /* \"#utility.yul\":16527:16533   */\n      0x00\n        /* \"#utility.yul\":16561:16566   */\n      dup2\n        /* \"#utility.yul\":16555:16567   */\n      mload\n        /* \"#utility.yul\":16545:16567   */\n      swap1\n      pop\n        /* \"#utility.yul\":16534:16574   */\n      swap2\n      swap1\n      pop\n      jump\t// out\n        /* \"#utility.yul\":16580:16748   */\n    tag_400:\n        /* \"#utility.yul\":16663:16674   */\n      0x00\n        /* \"#utility.yul\":16697:16703   */\n      dup3\n        /* \"#utility.yul\":16692:16695   */\n      dup3\n        /* \"#utility.yul\":16685:16704   */\n      mstore\n        /* \"#utility.yul\":16737:16741   */\n      0x20\n        /* \"#utility.yul\":16732:16735   */\n      dup3\n        /* \"#utility.yul\":16728:16742   */\n      add\n        /* \"#utility.yul\":16713:16742   */\n      swap1\n      pop\n        /* \"#utility.yul\":16675:16748   */\n      swap3\n      swap2\n      pop\n      pop\n      jump\t// out\n        /* \"#utility.yul\":16754:16923   */\n    tag_414:\n        /* \"#utility.yul\":16838:16849   */\n      0x00\n        /* \"#utility.yul\":16872:16878   */\n      dup3\n        /* \"#utility.yul\":16867:16870   */\n      dup3\n        /* \"#utility.yul\":16860:16879   */\n      mstore\n        /* \"#utility.yul\":16912:16916   */\n      0x20\n        /* \"#utility.yul\":16907:16910   */\n      dup3\n        /* \"#utility.yul\":16903:16917   */\n      add\n        /* \"#utility.yul\":16888:16917   */\n      swap1\n      pop\n        /* \"#utility.yul\":16850:16923   */\n      swap3\n      swap2\n      pop\n      pop\n      jump\t// out\n        /* \"#utility.yul\":16929:17077   */\n    tag_421:\n        /* \"#utility.yul\":17031:17042   */\n      0x00\n        /* \"#utility.yul\":17068:17071   */\n      dup2\n        /* \"#utility.yul\":17053:17071   */\n      swap1\n      pop\n        /* \"#utility.yul\":17043:17077   */\n      swap3\n      swap2\n      pop\n      pop\n      jump\t// out\n        /* \"#utility.yul\":17083:17388   */\n    tag_285:\n        /* \"#utility.yul\":17123:17126   */\n      0x00\n        /* \"#utility.yul\":17142:17162   */\n      tag_523\n        /* \"#utility.yul\":17160:17161   */\n      dup3\n        /* \"#utility.yul\":17142:17162   */\n      tag_476\n      jump\t// in\n    tag_523:\n        /* \"#utility.yul\":17137:17162   */\n      swap2\n      pop\n        /* \"#utility.yul\":17176:17196   */\n      tag_524\n        /* \"#utility.yul\":17194:17195   */\n      dup4\n        /* \"#utility.yul\":17176:17196   */\n      tag_476\n      jump\t// in\n    tag_524:\n        /* \"#utility.yul\":17171:17196   */\n      swap3\n      pop\n        /* \"#utility.yul\":17330:17331   */\n      dup3\n        /* \"#utility.yul\":17262:17328   */\n      0xffffffffffffffffffffffffffffffffffffffffffffffffffffffffffffffff\n        /* \"#utility.yul\":17258:17332   */\n      sub\n        /* \"#utility.yul\":17255:17256   */\n      dup3\n        /* \"#utility.yul\":17252:17333   */\n      gt\n        /* \"#utility.yul\":17249:17251   */\n      iszero\n      tag_525\n      jumpi\n        /* \"#utility.yul\":17336:17354   */\n      tag_526\n      tag_527\n      jump\t// in\n    tag_526:\n        /* \"#utility.yul\":17249:17251   */\n    tag_525:\n        /* \"#utility.yul\":17380:17381   */\n      dup3\n        /* \"#utility.yul\":17377:17378   */\n      dup3\n        /* \"#utility.yul\":17373:17382   */\n      add\n        /* \"#utility.yul\":17366:17382   */\n      swap1\n      pop\n        /* \"#utility.yul\":17127:17388   */\n      swap3\n      swap2\n      pop\n      pop\n      jump\t// out\n        /* \"#utility.yul\":17394:17579   */\n    tag_253:\n        /* \"#utility.yul\":17434:17435   */\n      0x00\n        /* \"#utility.yul\":17451:17471   */\n      tag_529\n        /* \"#utility.yul\":17469:17470   */\n      dup3\n        /* \"#utility.yul\":17451:17471   */\n      tag_476\n      jump\t// in\n    tag_529:\n        /* \"#utility.yul\":17446:17471   */\n      swap2\n      pop\n        /* \"#utility.yul\":17485:17505   */\n      tag_530\n        /* \"#utility.yul\":17503:17504   */\n      dup4\n        /* \"#utility.yul\":17485:17505   */\n      tag_476\n      jump\t// in\n    tag_530:\n        /* \"#utility.yul\":17480:17505   */\n      swap3\n      pop\n        /* \"#utility.yul\":17524:17525   */\n      dup3\n        /* \"#utility.yul\":17514:17516   */\n      tag_531\n      jumpi\n        /* \"#utility.yul\":17529:17547   */\n      tag_532\n      tag_533\n      jump\t// in\n    tag_532:\n        /* \"#utility.yul\":17514:17516   */\n    tag_531:\n        /* \"#utility.yul\":17571:17572   */\n      dup3\n        /* \"#utility.yul\":17568:17569   */\n      dup3\n        /* \"#utility.yul\":17564:17573   */\n      div\n        /* \"#utility.yul\":17559:17573   */\n      swap1\n      pop\n        /* \"#utility.yul\":17436:17579   */\n      swap3\n      swap2\n      pop\n      pop\n      jump\t// out\n        /* \"#utility.yul\":17585:17933   */\n    tag_256:\n        /* \"#utility.yul\":17625:17632   */\n      0x00\n        /* \"#utility.yul\":17648:17668   */\n      tag_535\n        /* \"#utility.yul\":17666:17667   */\n      dup3\n        /* \"#utility.yul\":17648:17668   */\n      tag_476\n      jump\t// in\n    tag_535:\n        /* \"#utility.yul\":17643:17668   */\n      swap2\n      pop\n        /* \"#utility.yul\":17682:17702   */\n      tag_536\n        /* \"#utility.yul\":17700:17701   */\n      dup4\n        /* \"#utility.yul\":17682:17702   */\n      tag_476\n      jump\t// in\n    tag_536:\n        /* \"#utility.yul\":17677:17702   */\n      swap3\n      pop\n        /* \"#utility.yul\":17870:17871   */\n      dup2\n        /* \"#utility.yul\":17802:17868   */\n      0xffffffffffffffffffffffffffffffffffffffffffffffffffffffffffffffff\n        /* \"#utility.yul\":17798:17872   */\n      div\n        /* \"#utility.yul\":17795:17796   */\n      dup4\n        /* \"#utility.yul\":17792:17873   */\n      gt\n        /* \"#utility.yul\":17787:17788   */\n      dup3\n        /* \"#utility.yul\":17780:17789   */\n      iszero\n        /* \"#utility.yul\":17773:17790   */\n      iszero\n        /* \"#utility.yul\":17769:17874   */\n      and\n        /* \"#utility.yul\":17766:17768   */\n      iszero\n      tag_537\n      jumpi\n        /* \"#utility.yul\":17877:17895   */\n      tag_538\n      tag_527\n      jump\t// in\n    tag_538:\n        /* \"#utility.yul\":17766:17768   */\n    tag_537:\n        /* \"#utility.yul\":17925:17926   */\n      dup3\n        /* \"#utility.yul\":17922:17923   */\n      dup3\n        /* \"#utility.yul\":17918:17927   */\n      mul\n        /* \"#utility.yul\":17907:17927   */\n      swap1\n      pop\n        /* \"#utility.yul\":17633:17933   */\n      swap3\n      swap2\n      pop\n      pop\n      jump\t// out\n        /* \"#utility.yul\":17939:18130   */\n    tag_282:\n        /* \"#utility.yul\":17979:17983   */\n      0x00\n        /* \"#utility.yul\":17999:18019   */\n      tag_540\n        /* \"#utility.yul\":18017:18018   */\n      dup3\n        /* \"#utility.yul\":17999:18019   */\n      tag_476\n      jump\t// in\n    tag_540:\n        /* \"#utility.yul\":17994:18019   */\n      swap2\n      pop\n        /* \"#utility.yul\":18033:18053   */\n      tag_541\n        /* \"#utility.yul\":18051:18052   */\n      dup4\n        /* \"#utility.yul\":18033:18053   */\n      tag_476\n      jump\t// in\n    tag_541:\n        /* \"#utility.yul\":18028:18053   */\n      swap3\n      pop\n        /* \"#utility.yul\":18072:18073   */\n      dup3\n        /* \"#utility.yul\":18069:18070   */\n      dup3\n        /* \"#utility.yul\":18066:18074   */\n      lt\n        /* \"#utility.yul\":18063:18065   */\n      iszero\n      tag_542\n      jumpi\n        /* \"#utility.yul\":18077:18095   */\n      tag_543\n      tag_527\n      jump\t// in\n    tag_543:\n        /* \"#utility.yul\":18063:18065   */\n    tag_542:\n        /* \"#utility.yul\":18122:18123   */\n      dup3\n        /* \"#utility.yul\":18119:18120   */\n      dup3\n        /* \"#utility.yul\":18115:18124   */\n      sub\n        /* \"#utility.yul\":18107:18124   */\n      swap1\n      pop\n        /* \"#utility.yul\":17984:18130   */\n      swap3\n      swap2\n      pop\n      pop\n      jump\t// out\n        /* \"#utility.yul\":18136:18232   */\n    tag_386:\n        /* \"#utility.yul\":18173:18180   */\n      0x00\n        /* \"#utility.yul\":18202:18226   */\n      tag_545\n        /* \"#utility.yul\":18220:18225   */\n      dup3\n        /* \"#utility.yul\":18202:18226   */\n      tag_546\n      jump\t// in\n    tag_545:\n        /* \"#utility.yul\":18191:18226   */\n      swap1\n      pop\n        /* \"#utility.yul\":18181:18232   */\n      swap2\n      swap1\n      pop\n      jump\t// out\n        /* \"#utility.yul\":18238:18328   */\n    tag_390:\n        /* \"#utility.yul\":18272:18279   */\n      0x00\n        /* \"#utility.yul\":18315:18320   */\n      dup2\n        /* \"#utility.yul\":18308:18321   */\n      iszero\n        /* \"#utility.yul\":18301:18322   */\n      iszero\n        /* \"#utility.yul\":18290:18322   */\n      swap1\n      pop\n        /* \"#utility.yul\":18280:18328   */\n      swap2\n      swap1\n      pop\n      jump\t// out\n        /* \"#utility.yul\":18334:18411   */\n    tag_394:\n        /* \"#utility.yul\":18371:18378   */\n      0x00\n        /* \"#utility.yul\":18400:18405   */\n      dup2\n        /* \"#utility.yul\":18389:18405   */\n      swap1\n      pop\n        /* \"#utility.yul\":18379:18411   */\n      swap2\n      swap1\n      pop\n      jump\t// out\n        /* \"#utility.yul\":18417:18566   */\n    tag_549:\n        /* \"#utility.yul\":18453:18460   */\n      0x00\n        /* \"#utility.yul\":18493:18559   */\n      0xffffffff00000000000000000000000000000000000000000000000000000000\n        /* \"#utility.yul\":18486:18491   */\n      dup3\n        /* \"#utility.yul\":18482:18560   */\n      and\n        /* \"#utility.yul\":18471:18560   */\n      swap1\n      pop\n        /* \"#utility.yul\":18461:18566   */\n      swap2\n      swap1\n      pop\n      jump\t// out\n        /* \"#utility.yul\":18572:18698   */\n    tag_546:\n        /* \"#utility.yul\":18609:18616   */\n      0x00\n        /* \"#utility.yul\":18649:18691   */\n      0xffffffffffffffffffffffffffffffffffffffff\n        /* \"#utility.yul\":18642:18647   */\n      dup3\n        /* \"#utility.yul\":18638:18692   */\n      and\n        /* \"#utility.yul\":18627:18692   */\n      swap1\n      pop\n        /* \"#utility.yul\":18617:18698   */\n      swap2\n      swap1\n      pop\n      jump\t// out\n        /* \"#utility.yul\":18704:18781   */\n    tag_476:\n        /* \"#utility.yul\":18741:18748   */\n      0x00\n        /* \"#utility.yul\":18770:18775   */\n      dup2\n        /* \"#utility.yul\":18759:18775   */\n      swap1\n      pop\n        /* \"#utility.yul\":18749:18781   */\n      swap2\n      swap1\n      pop\n      jump\t// out\n        /* \"#utility.yul\":18787:18873   */\n    tag_553:\n        /* \"#utility.yul\":18822:18829   */\n      0x00\n        /* \"#utility.yul\":18862:18866   */\n      0xff\n        /* \"#utility.yul\":18855:18860   */\n      dup3\n        /* \"#utility.yul\":18851:18867   */\n      and\n        /* \"#utility.yul\":18840:18867   */\n      swap1\n      pop\n        /* \"#utility.yul\":18830:18873   */\n      swap2\n      swap1\n      pop\n      jump\t// out\n        /* \"#utility.yul\":18879:18996   */\n    tag_408:\n        /* \"#utility.yul\":18935:18944   */\n      0x00\n        /* \"#utility.yul\":18968:18990   */\n      tag_556\n        /* \"#utility.yul\":18984:18989   */\n      dup3\n        /* \"#utility.yul\":18968:18990   */\n      tag_553\n      jump\t// in\n    tag_556:\n        /* \"#utility.yul\":18955:18990   */\n      swap1\n      pop\n        /* \"#utility.yul\":18945:18996   */\n      swap2\n      swap1\n      pop\n      jump\t// out\n        /* \"#utility.yul\":19002:19309   */\n    tag_402:\n        /* \"#utility.yul\":19070:19071   */\n      0x00\n        /* \"#utility.yul\":19080:19193   */\n    tag_558:\n        /* \"#utility.yul\":19094:19100   */\n      dup4\n        /* \"#utility.yul\":19091:19092   */\n      dup2\n        /* \"#utility.yul\":19088:19101   */\n      lt\n        /* \"#utility.yul\":19080:19193   */\n      iszero\n      tag_560\n      jumpi\n        /* \"#utility.yul\":19179:19180   */\n      dup1\n        /* \"#utility.yul\":19174:19177   */\n      dup3\n        /* \"#utility.yul\":19170:19181   */\n      add\n        /* \"#utility.yul\":19164:19182   */\n      mload\n        /* \"#utility.yul\":19160:19161   */\n      dup2\n        /* \"#utility.yul\":19155:19158   */\n      dup5\n        /* \"#utility.yul\":19151:19162   */\n      add\n        /* \"#utility.yul\":19144:19183   */\n      mstore\n        /* \"#utility.yul\":19116:19118   */\n      0x20\n        /* \"#utility.yul\":19113:19114   */\n      dup2\n        /* \"#utility.yul\":19109:19119   */\n      add\n        /* \"#utility.yul\":19104:19119   */\n      swap1\n      pop\n        /* \"#utility.yul\":19080:19193   */\n      jump(tag_558)\n    tag_560:\n        /* \"#utility.yul\":19211:19217   */\n      dup4\n        /* \"#utility.yul\":19208:19209   */\n      dup2\n        /* \"#utility.yul\":19205:19218   */\n      gt\n        /* \"#utility.yul\":19202:19204   */\n      iszero\n      tag_561\n      jumpi\n        /* \"#utility.yul\":19291:19292   */\n      0x00\n        /* \"#utility.yul\":19282:19288   */\n      dup5\n        /* \"#utility.yul\":19277:19280   */\n      dup5\n        /* \"#utility.yul\":19273:19289   */\n      add\n        /* \"#utility.yul\":19266:19293   */\n      mstore\n        /* \"#utility.yul\":19202:19204   */\n    tag_561:\n        /* \"#utility.yul\":19051:19309   */\n      pop\n      pop\n      pop\n      pop\n      jump\t// out\n        /* \"#utility.yul\":19315:19486   */\n    tag_319:\n        /* \"#utility.yul\":19354:19357   */\n      0x00\n        /* \"#utility.yul\":19377:19401   */\n      tag_563\n        /* \"#utility.yul\":19395:19400   */\n      dup3\n        /* \"#utility.yul\":19377:19401   */\n      tag_476\n      jump\t// in\n    tag_563:\n        /* \"#utility.yul\":19368:19401   */\n      swap2\n      pop\n        /* \"#utility.yul\":19423:19427   */\n      0x00\n        /* \"#utility.yul\":19416:19421   */\n      dup3\n        /* \"#utility.yul\":19413:19428   */\n      eq\n        /* \"#utility.yul\":19410:19412   */\n      iszero\n      tag_564\n      jumpi\n        /* \"#utility.yul\":19431:19449   */\n      tag_565\n      tag_527\n      jump\t// in\n    tag_565:\n        /* \"#utility.yul\":19410:19412   */\n    tag_564:\n        /* \"#utility.yul\":19478:19479   */\n      0x01\n        /* \"#utility.yul\":19471:19476   */\n      dup3\n        /* \"#utility.yul\":19467:19480   */\n      sub\n        /* \"#utility.yul\":19460:19480   */\n      swap1\n      pop\n        /* \"#utility.yul\":19358:19486   */\n      swap2\n      swap1\n      pop\n      jump\t// out\n        /* \"#utility.yul\":19492:19672   */\n    tag_527:\n        /* \"#utility.yul\":19540:19617   */\n      0x4e487b7100000000000000000000000000000000000000000000000000000000\n        /* \"#utility.yul\":19537:19538   */\n      0x00\n        /* \"#utility.yul\":19530:19618   */\n      mstore\n        /* \"#utility.yul\":19637:19641   */\n      0x11\n        /* \"#utility.yul\":19634:19635   */\n      0x04\n        /* \"#utility.yul\":19627:19642   */\n      mstore\n        /* \"#utility.yul\":19661:19665   */\n      0x24\n        /* \"#utility.yul\":19658:19659   */\n      0x00\n        /* \"#utility.yul\":19651:19666   */\n      revert\n        /* \"#utility.yul\":19678:19858   */\n    tag_533:\n        /* \"#utility.yul\":19726:19803   */\n      0x4e487b7100000000000000000000000000000000000000000000000000000000\n        /* \"#utility.yul\":19723:19724   */\n      0x00\n        /* \"#utility.yul\":19716:19804   */\n      mstore\n        /* \"#utility.yul\":19823:19827   */\n      0x12\n        /* \"#utility.yul\":19820:19821   */\n      0x04\n        /* \"#utility.yul\":19813:19828   */\n      mstore\n        /* \"#utility.yul\":19847:19851   */\n      0x24\n        /* \"#utility.yul\":19844:19845   */\n      0x00\n        /* \"#utility.yul\":19837:19852   */\n      revert\n        /* \"#utility.yul\":19864:20044   */\n    tag_306:\n        /* \"#utility.yul\":19912:19989   */\n      0x4e487b7100000000000000000000000000000000000000000000000000000000\n        /* \"#utility.yul\":19909:19910   */\n      0x00\n        /* \"#utility.yul\":19902:19990   */\n      mstore\n        /* \"#utility.yul\":20009:20013   */\n      0x32\n        /* \"#utility.yul\":20006:20007   */\n      0x04\n        /* \"#utility.yul\":19999:20014   */\n      mstore\n        /* \"#utility.yul\":20033:20037   */\n      0x24\n        /* \"#utility.yul\":20030:20031   */\n      0x00\n        /* \"#utility.yul\":20023:20038   */\n      revert\n        /* \"#utility.yul\":20050:20230   */\n    tag_302:\n        /* \"#utility.yul\":20098:20175   */\n      0x4e487b7100000000000000000000000000000000000000000000000000000000\n        /* \"#utility.yul\":20095:20096   */\n      0x00\n        /* \"#utility.yul\":20088:20176   */\n      mstore\n        /* \"#utility.yul\":20195:20199   */\n      0x41\n        /* \"#utility.yul\":20192:20193   */\n      0x04\n        /* \"#utility.yul\":20185:20200   */\n      mstore\n        /* \"#utility.yul\":20219:20223   */\n      0x24\n        /* \"#utility.yul\":20216:20217   */\n      0x00\n        /* \"#utility.yul\":20209:20224   */\n      revert\n        /* \"#utility.yul\":20359:20476   */\n    tag_347:\n        /* \"#utility.yul\":20468:20469   */\n      0x00\n        /* \"#utility.yul\":20465:20466   */\n      dup1\n        /* \"#utility.yul\":20458:20470   */\n      revert\n        /* \"#utility.yul\":20482:20584   */\n    tag_404:\n        /* \"#utility.yul\":20523:20529   */\n      0x00\n        /* \"#utility.yul\":20574:20576   */\n      0x1f\n        /* \"#utility.yul\":20570:20577   */\n      not\n        /* \"#utility.yul\":20565:20567   */\n      0x1f\n        /* \"#utility.yul\":20558:20563   */\n      dup4\n        /* \"#utility.yul\":20554:20568   */\n      add\n        /* \"#utility.yul\":20550:20578   */\n      and\n        /* \"#utility.yul\":20540:20578   */\n      swap1\n      pop\n        /* \"#utility.yul\":20530:20584   */\n      swap2\n      swap1\n      pop\n      jump\t// out\n        /* \"#utility.yul\":20590:20772   */\n    tag_427:\n        /* \"#utility.yul\":20730:20764   */\n      0x537472696e67733a20686578206c656e67746820696e73756666696369656e74\n        /* \"#utility.yul\":20726:20727   */\n      0x00\n        /* \"#utility.yul\":20718:20724   */\n      dup3\n        /* \"#utility.yul\":20714:20728   */\n      add\n        /* \"#utility.yul\":20707:20765   */\n      mstore\n        /* \"#utility.yul\":20696:20772   */\n      pop\n      jump\t// out\n        /* \"#utility.yul\":20778:20951   */\n    tag_432:\n        /* \"#utility.yul\":20918:20943   */\n      0x4d46495f4d6f6e65795f41646d696e6973747261746f72000000000000000000\n        /* \"#utility.yul\":20914:20915   */\n      0x00\n        /* \"#utility.yul\":20906:20912   */\n      dup3\n        /* \"#utility.yul\":20902:20916   */\n      add\n        /* \"#utility.yul\":20895:20944   */\n      mstore\n        /* \"#utility.yul\":20884:20951   */\n      pop\n      jump\t// out\n        /* \"#utility.yul\":20957:21132   */\n    tag_437:\n        /* \"#utility.yul\":21097:21124   */\n      0x4d46495f50726f6a6563745f41646d696e6973747261746f7200000000000000\n        /* \"#utility.yul\":21093:21094   */\n      0x00\n        /* \"#utility.yul\":21085:21091   */\n      dup3\n        /* \"#utility.yul\":21081:21095   */\n      add\n        /* \"#utility.yul\":21074:21125   */\n      mstore\n        /* \"#utility.yul\":21063:21132   */\n      pop\n      jump\t// out\n        /* \"#utility.yul\":21138:21371   */\n    tag_442:\n        /* \"#utility.yul\":21278:21312   */\n      0x496e697469616c697a61626c653a20636f6e747261637420697320616c726561\n        /* \"#utility.yul\":21274:21275   */\n      0x00\n        /* \"#utility.yul\":21266:21272   */\n      dup3\n        /* \"#utility.yul\":21262:21276   */\n      add\n        /* \"#utility.yul\":21255:21313   */\n      mstore\n        /* \"#utility.yul\":21347:21363   */\n      0x647920696e697469616c697a6564000000000000000000000000000000000000\n        /* \"#utility.yul\":21342:21344   */\n      0x20\n        /* \"#utility.yul\":21334:21340   */\n      dup3\n        /* \"#utility.yul\":21330:21345   */\n      add\n        /* \"#utility.yul\":21323:21364   */\n      mstore\n        /* \"#utility.yul\":21244:21371   */\n      pop\n      jump\t// out\n        /* \"#utility.yul\":21377:21549   */\n    tag_447:\n        /* \"#utility.yul\":21517:21541   */\n      0x4d46495f446174615f41646d696e6973747261746f7200000000000000000000\n        /* \"#utility.yul\":21513:21514   */\n      0x00\n        /* \"#utility.yul\":21505:21511   */\n      dup3\n        /* \"#utility.yul\":21501:21515   */\n      add\n        /* \"#utility.yul\":21494:21542   */\n      mstore\n        /* \"#utility.yul\":21483:21549   */\n      pop\n      jump\t// out\n        /* \"#utility.yul\":21555:21730   */\n    tag_452:\n        /* \"#utility.yul\":21695:21722   */\n      0x4d4554415f46494e414e43455f545249474745525f504f4f4c00000000000000\n        /* \"#utility.yul\":21691:21692   */\n      0x00\n        /* \"#utility.yul\":21683:21689   */\n      dup3\n        /* \"#utility.yul\":21679:21693   */\n      add\n        /* \"#utility.yul\":21672:21723   */\n      mstore\n        /* \"#utility.yul\":21661:21730   */\n      pop\n      jump\t// out\n        /* \"#utility.yul\":21736:21909   */\n    tag_457:\n        /* \"#utility.yul\":21876:21901   */\n      0x416363657373436f6e74726f6c3a206163636f756e7420000000000000000000\n        /* \"#utility.yul\":21872:21873   */\n      0x00\n        /* \"#utility.yul\":21864:21870   */\n      dup3\n        /* \"#utility.yul\":21860:21874   */\n      add\n        /* \"#utility.yul\":21853:21902   */\n      mstore\n        /* \"#utility.yul\":21842:21909   */\n      pop\n      jump\t// out\n        /* \"#utility.yul\":21915:22072   */\n    tag_462:\n        /* \"#utility.yul\":22055:22064   */\n      0x4d4643493a453100000000000000000000000000000000000000000000000000\n        /* \"#utility.yul\":22051:22052   */\n      0x00\n        /* \"#utility.yul\":22043:22049   */\n      dup3\n        /* \"#utility.yul\":22039:22053   */\n      add\n        /* \"#utility.yul\":22032:22065   */\n      mstore\n        /* \"#utility.yul\":22021:22072   */\n      pop\n      jump\t// out\n        /* \"#utility.yul\":22078:22245   */\n    tag_467:\n        /* \"#utility.yul\":22218:22237   */\n      0x206973206d697373696e6720726f6c6520000000000000000000000000000000\n        /* \"#utility.yul\":22214:22215   */\n      0x00\n        /* \"#utility.yul\":22206:22212   */\n      dup3\n        /* \"#utility.yul\":22202:22216   */\n      add\n        /* \"#utility.yul\":22195:22238   */\n      mstore\n        /* \"#utility.yul\":22184:22245   */\n      pop\n      jump\t// out\n        /* \"#utility.yul\":22251:22485   */\n    tag_472:\n        /* \"#utility.yul\":22391:22425   */\n      0x416363657373436f6e74726f6c3a2063616e206f6e6c792072656e6f756e6365\n        /* \"#utility.yul\":22387:22388   */\n      0x00\n        /* \"#utility.yul\":22379:22385   */\n      dup3\n        /* \"#utility.yul\":22375:22389   */\n      add\n        /* \"#utility.yul\":22368:22426   */\n      mstore\n        /* \"#utility.yul\":22460:22477   */\n      0x20726f6c657320666f722073656c660000000000000000000000000000000000\n        /* \"#utility.yul\":22455:22457   */\n      0x20\n        /* \"#utility.yul\":22447:22453   */\n      dup3\n        /* \"#utility.yul\":22443:22458   */\n      add\n        /* \"#utility.yul\":22436:22478   */\n      mstore\n        /* \"#utility.yul\":22357:22485   */\n      pop\n      jump\t// out\n        /* \"#utility.yul\":22491:22613   */\n    tag_327:\n        /* \"#utility.yul\":22564:22588   */\n      tag_585\n        /* \"#utility.yul\":22582:22587   */\n      dup2\n        /* \"#utility.yul\":22564:22588   */\n      tag_386\n      jump\t// in\n    tag_585:\n        /* \"#utility.yul\":22557:22562   */\n      dup2\n        /* \"#utility.yul\":22554:22589   */\n      eq\n        /* \"#utility.yul\":22544:22546   */\n      tag_586\n      jumpi\n        /* \"#utility.yul\":22603:22604   */\n      0x00\n        /* \"#utility.yul\":22600:22601   */\n      dup1\n        /* \"#utility.yul\":22593:22605   */\n      revert\n        /* \"#utility.yul\":22544:22546   */\n    tag_586:\n        /* \"#utility.yul\":22534:22613   */\n      pop\n      jump\t// out\n        /* \"#utility.yul\":22619:22735   */\n    tag_331:\n        /* \"#utility.yul\":22689:22710   */\n      tag_588\n        /* \"#utility.yul\":22704:22709   */\n      dup2\n        /* \"#utility.yul\":22689:22710   */\n      tag_390\n      jump\t// in\n    tag_588:\n        /* \"#utility.yul\":22682:22687   */\n      dup2\n        /* \"#utility.yul\":22679:22711   */\n      eq\n        /* \"#utility.yul\":22669:22671   */\n      tag_589\n      jumpi\n        /* \"#utility.yul\":22725:22726   */\n      0x00\n        /* \"#utility.yul\":22722:22723   */\n      dup1\n        /* \"#utility.yul\":22715:22727   */\n      revert\n        /* \"#utility.yul\":22669:22671   */\n    tag_589:\n        /* \"#utility.yul\":22659:22735   */\n      pop\n      jump\t// out\n        /* \"#utility.yul\":22741:22863   */\n    tag_335:\n        /* \"#utility.yul\":22814:22838   */\n      tag_591\n        /* \"#utility.yul\":22832:22837   */\n      dup2\n        /* \"#utility.yul\":22814:22838   */\n      tag_394\n      jump\t// in\n    tag_591:\n        /* \"#utility.yul\":22807:22812   */\n      dup2\n        /* \"#utility.yul\":22804:22839   */\n      eq\n        /* \"#utility.yul\":22794:22796   */\n      tag_592\n      jumpi\n        /* \"#utility.yul\":22853:22854   */\n      0x00\n        /* \"#utility.yul\":22850:22851   */\n      dup1\n        /* \"#utility.yul\":22843:22855   */\n      revert\n        /* \"#utility.yul\":22794:22796   */\n    tag_592:\n        /* \"#utility.yul\":22784:22863   */\n      pop\n      jump\t// out\n        /* \"#utility.yul\":22869:22989   */\n    tag_339:\n        /* \"#utility.yul\":22941:22964   */\n      tag_594\n        /* \"#utility.yul\":22958:22963   */\n      dup2\n        /* \"#utility.yul\":22941:22964   */\n      tag_549\n      jump\t// in\n    tag_594:\n        /* \"#utility.yul\":22934:22939   */\n      dup2\n        /* \"#utility.yul\":22931:22965   */\n      eq\n        /* \"#utility.yul\":22921:22923   */\n      tag_595\n      jumpi\n        /* \"#utility.yul\":22979:22980   */\n      0x00\n        /* \"#utility.yul\":22976:22977   */\n      dup1\n        /* \"#utility.yul\":22969:22981   */\n      revert\n        /* \"#utility.yul\":22921:22923   */\n    tag_595:\n        /* \"#utility.yul\":22911:22989   */\n      pop\n      jump\t// out\n        /* \"#utility.yul\":22995:23117   */\n    tag_343:\n        /* \"#utility.yul\":23068:23092   */\n      tag_597\n        /* \"#utility.yul\":23086:23091   */\n      dup2\n        /* \"#utility.yul\":23068:23092   */\n      tag_476\n      jump\t// in\n    tag_597:\n        /* \"#utility.yul\":23061:23066   */\n      dup2\n        /* \"#utility.yul\":23058:23093   */\n      eq\n        /* \"#utility.yul\":23048:23050   */\n      tag_598\n      jumpi\n        /* \"#utility.yul\":23107:23108   */\n      0x00\n        /* \"#utility.yul\":23104:23105   */\n      dup1\n        /* \"#utility.yul\":23097:23109   */\n      revert\n        /* \"#utility.yul\":23048:23050   */\n    tag_598:\n        /* \"#utility.yul\":23038:23117   */\n      pop\n      jump\t// out\n\n    auxdata: 0xa264697066735822122073709e543f382ad82340333bd154e80667f6cfd93d89cfe3e3f983faa87fc09364736f6c63430008060033\n}\n",
				"bytecode": {
					"linkReferences": {},
					"object": "608060405234801561001057600080fd5b506124b4806100206000396000f3fe608060405234801561001057600080fd5b50600436106101a85760003560e01c8063a217fddf116100f9578063d4b39b3a11610097578063ddc10a2f11610071578063ddc10a2f146104bd578063de3d3c98146104d9578063ee28646914610509578063ff380f7714610539576101a8565b8063d4b39b3a14610453578063d547741f14610483578063d5cf419b1461049f576101a8565b8063c0f6f33f116100d3578063c0f6f33f146103df578063c4d66de8146103fb578063c5f956af14610417578063d49d518114610435576101a8565b8063a217fddf14610385578063b9a503cd146103a3578063bd0dd4b2146103c1576101a8565b80632f2ff15d116101665780635b4246d4116101405780635b4246d4146102eb5780636605bfda1461030957806391d14854146103255780639867ea2e14610355576101a8565b80632f2ff15d1461028357806336568abe1461029f57806341209af1146102bb576101a8565b80626cd200146101ad57806301ffc9a7146101c95780630ea9fa1f146101f95780631e00887d14610217578063248a9ca3146102355780632edcb16e14610265575b600080fd5b6101c760048036038101906101c29190611a46565b610555565b005b6101e360048036038101906101de9190611a19565b6106ca565b6040516101f09190611dd1565b60405180910390f35b610201610744565b60405161020e9190611ee6565b60405180910390f35b61021f61074a565b60405161022c9190611dec565b60405180910390f35b61024f600480360381019061024a91906119ac565b610772565b60405161025c9190611dec565b60405180910390f35b61026d610791565b60405161027a9190611dec565b60405180910390f35b61029d600480360381019061029891906119d9565b6107b9565b005b6102b960048036038101906102b491906119d9565b6107da565b005b6102d560048036038101906102d09190611a46565b61085d565b6040516102e29190611d8d565b60405180910390f35b6102f361089c565b6040516103009190611ee6565b60405180910390f35b610323600480360381019061031e91906118d8565b6108a2565b005b61033f600480360381019061033a91906119d9565b610915565b60405161034c9190611dd1565b60405180910390f35b61036f600480360381019061036a91906118d8565b61097f565b60405161037c9190611e07565b60405180910390f35b61038d6109fe565b60405161039a9190611dec565b60405180910390f35b6103ab610a05565b6040516103b89190611dec565b60405180910390f35b6103c9610a2d565b6040516103d69190611dec565b60405180910390f35b6103f960048036038101906103f49190611905565b610a55565b005b610415600480360381019061041091906118d8565b610dbc565b005b61041f610eb7565b60405161042c9190611d8d565b60405180910390f35b61043d610edd565b60405161044a9190611ee6565b60405180910390f35b61046d60048036038101906104689190611a46565b610ee3565b60405161047a9190611d8d565b60405180910390f35b61049d600480360381019061049891906119d9565b610f22565b005b6104a7610f43565b6040516104b49190611ee6565b60405180910390f35b6104d760048036038101906104d29190611a73565b610f49565b005b6104f360048036038101906104ee9190611905565b610f9c565b6040516105009190611ee6565b60405180910390f35b610523600480360381019061051e91906118d8565b610fc1565b6040516105309190611d8d565b60405180910390f35b610553600480360381019061054e9190611945565b610ff4565b005b60405160200161056490611d29565b60405160208183030381529060405280519060200120610583816111d2565b606482148061059357506103e882145b8061059f575061271082145b806105ac5750620186a082145b156106c65760015482111561063b5760006105d2600154846111e690919063ffffffff16565b905060008114156105e45760016105e6565b805b90506105fd816001546111fc90919063ffffffff16565b600181905550610618816002546111fc90919063ffffffff16565b600281905550610633816003546111fc90919063ffffffff16565b600381905550505b8160015411156106c557600061065c836001546111e690919063ffffffff16565b9050600081141561066e576001610670565b805b9050610687816001546111e690919063ffffffff16565b6001819055506106a2816002546111e690919063ffffffff16565b6002819055506106bd816003546111e690919063ffffffff16565b600381905550505b5b5050565b60007f7965db0b000000000000000000000000000000000000000000000000000000007bffffffffffffffffffffffffffffffffffffffffffffffffffffffff1916827bffffffffffffffffffffffffffffffffffffffffffffffffffffffff1916148061073d575061073c82611212565b5b9050919050565b60035481565b60405160200161075990611cff565b6040516020818303038152906040528051906020012081565b6000806000838152602001908152602001600020600101549050919050565b6040516020016107a090611d29565b6040516020818303038152906040528051906020012081565b6107c282610772565b6107cb816111d2565b6107d5838361127c565b505050565b6107e261135c565b73ffffffffffffffffffffffffffffffffffffffff168173ffffffffffffffffffffffffffffffffffffffff161461084f576040517f08c379a000000000000000000000000000000000000000000000000000000000815260040161084690611ec6565b60405180910390fd5b6108598282611364565b5050565b6004818154811061086d57600080fd5b906000526020600020016000915054906101000a900473ffffffffffffffffffffffffffffffffffffffff1681565b60015481565b6040516020016108b190611d29565b604051602081830303815290604052805190602001206108d0816111d2565b81600660006101000a81548173ffffffffffffffffffffffffffffffffffffffff021916908373ffffffffffffffffffffffffffffffffffffffff1602179055505050565b600080600084815260200190815260200160002060000160008373ffffffffffffffffffffffffffffffffffffffff1673ffffffffffffffffffffffffffffffffffffffff16815260200190815260200160002060009054906101000a900460ff16905092915050565b606063c4d66de860e01b8260405160240161099a9190611d8d565b604051602081830303815290604052907bffffffffffffffffffffffffffffffffffffffffffffffffffffffff19166020820180517bffffffffffffffffffffffffffffffffffffffffffffffffffffffff83818316178352505050509050919050565b6000801b81565b604051602001610a1490611d3e565b6040516020818303038152906040528051906020012081565b604051602001610a3c90611d14565b6040516020818303038152906040528051906020012081565b604051602001610a6490611d3e565b60405160208183030381529060405280519060200120610a83816111d2565b600073ffffffffffffffffffffffffffffffffffffffff16600760008573ffffffffffffffffffffffffffffffffffffffff1673ffffffffffffffffffffffffffffffffffffffff16815260200190815260200160002060009054906101000a900473ffffffffffffffffffffffffffffffffffffffff1673ffffffffffffffffffffffffffffffffffffffff16148015610b4a57508273ffffffffffffffffffffffffffffffffffffffff168273ffffffffffffffffffffffffffffffffffffffff1614155b8015610ba55750600073ffffffffffffffffffffffffffffffffffffffff16600660009054906101000a900473ffffffffffffffffffffffffffffffffffffffff1673ffffffffffffffffffffffffffffffffffffffff1614155b610be4576040517f08c379a0000000000000000000000000000000000000000000000000000000008152600401610bdb90611ea6565b60405180910390fd5b81600760008573ffffffffffffffffffffffffffffffffffffffff1673ffffffffffffffffffffffffffffffffffffffff16815260200190815260200160002060006101000a81548173ffffffffffffffffffffffffffffffffffffffff021916908373ffffffffffffffffffffffffffffffffffffffff1602179055506004839080600181540180825580915050600190039060005260206000200160009091909190916101000a81548173ffffffffffffffffffffffffffffffffffffffff021916908373ffffffffffffffffffffffffffffffffffffffff160217905550600660009054906101000a900473ffffffffffffffffffffffffffffffffffffffff1673ffffffffffffffffffffffffffffffffffffffff168273ffffffffffffffffffffffffffffffffffffffff1614610d7e576005829080600181540180825580915050600190039060005260206000200160009091909190916101000a81548173ffffffffffffffffffffffffffffffffffffffff021916908373ffffffffffffffffffffffffffffffffffffffff1602179055505b7f0cdf87eff0154a894757bc9fe1893d3f37e143e8145478358591401036f588af8383604051610daf929190611da8565b60405180910390a1505050565b6000610dc86001611445565b90508015610dec576001600960016101000a81548160ff0219169083151502179055505b60556003819055506050600281905550606460018190555081600660006101000a81548173ffffffffffffffffffffffffffffffffffffffff021916908373ffffffffffffffffffffffffffffffffffffffff160217905550610e596000801b610e5461135c565b611539565b8015610eb3576000600960016101000a81548160ff0219169083151502179055507f7f26b83ff96e1f2b6a682f133852f6798a09c465da95921460cefb38474024986001604051610eaa9190611e29565b60405180910390a15b5050565b600660009054906101000a900473ffffffffffffffffffffffffffffffffffffffff1681565b60001981565b60058181548110610ef357600080fd5b906000526020600020016000915054906101000a900473ffffffffffffffffffffffffffffffffffffffff1681565b610f2b82610772565b610f34816111d2565b610f3e8383611364565b505050565b60025481565b604051602001610f5890611d29565b60405160208183030381529060405280519060200120610f77816111d2565b60008314610f8757826002819055505b60008214610f9757816003819055505b505050565b6008602052816000526040600020602052806000526040600020600091509150505481565b60076020528060005260406000206000915054906101000a900473ffffffffffffffffffffffffffffffffffffffff1681565b60405160200161100390611d3e565b60405160208183030381529060405280519060200120611022816111d2565b816110bb576110b683600860008873ffffffffffffffffffffffffffffffffffffffff1673ffffffffffffffffffffffffffffffffffffffff16815260200190815260200160002060008773ffffffffffffffffffffffffffffffffffffffff1673ffffffffffffffffffffffffffffffffffffffff1681526020019081526020016000205461154790919063ffffffff16565b61114b565b61114a83600860008873ffffffffffffffffffffffffffffffffffffffff1673ffffffffffffffffffffffffffffffffffffffff16815260200190815260200160002060008773ffffffffffffffffffffffffffffffffffffffff1673ffffffffffffffffffffffffffffffffffffffff1681526020019081526020016000205461155d90919063ffffffff16565b5b600860008773ffffffffffffffffffffffffffffffffffffffff1673ffffffffffffffffffffffffffffffffffffffff16815260200190815260200160002060008673ffffffffffffffffffffffffffffffffffffffff1673ffffffffffffffffffffffffffffffffffffffff168152602001908152602001600020819055505050505050565b6111e3816111de61135c565b611573565b50565b600081836111f49190611f9a565b905092915050565b6000818361120a9190611fcb565b905092915050565b60007f01ffc9a7000000000000000000000000000000000000000000000000000000007bffffffffffffffffffffffffffffffffffffffffffffffffffffffff1916827bffffffffffffffffffffffffffffffffffffffffffffffffffffffff1916149050919050565b6112868282610915565b61135857600160008084815260200190815260200160002060000160008373ffffffffffffffffffffffffffffffffffffffff1673ffffffffffffffffffffffffffffffffffffffff16815260200190815260200160002060006101000a81548160ff0219169083151502179055506112fd61135c565b73ffffffffffffffffffffffffffffffffffffffff168173ffffffffffffffffffffffffffffffffffffffff16837f2f8788117e7eff1d82e926ec794901d17c78024a50270940304540a733656f0d60405160405180910390a45b5050565b600033905090565b61136e8282610915565b1561144157600080600084815260200190815260200160002060000160008373ffffffffffffffffffffffffffffffffffffffff1673ffffffffffffffffffffffffffffffffffffffff16815260200190815260200160002060006101000a81548160ff0219169083151502179055506113e661135c565b73ffffffffffffffffffffffffffffffffffffffff168173ffffffffffffffffffffffffffffffffffffffff16837ff6391f5c32d9c69d2a47ea670b442974b53935d1edc7fd64eb21e047a839171b60405160405180910390a45b5050565b6000600960019054906101000a900460ff16156114bd5760018260ff16148015611475575061147330611610565b155b6114b4576040517f08c379a00000000000000000000000000000000000000000000000000000000081526004016114ab90611e86565b60405180910390fd5b60009050611534565b8160ff16600960009054906101000a900460ff1660ff1610611514576040517f08c379a000000000000000000000000000000000000000000000000000000000815260040161150b90611e86565b60405180910390fd5b81600960006101000a81548160ff021916908360ff160217905550600190505b919050565b611543828261127c565b5050565b600081836115559190612025565b905092915050565b6000818361156b9190611f44565b905092915050565b61157d8282610915565b61160c576115a28173ffffffffffffffffffffffffffffffffffffffff166014611633565b6115b08360001c6020611633565b6040516020016115c1929190611d53565b6040516020818303038152906040526040517f08c379a00000000000000000000000000000000000000000000000000000000081526004016116039190611e44565b60405180910390fd5b5050565b6000808273ffffffffffffffffffffffffffffffffffffffff163b119050919050565b6060600060028360026116469190611fcb565b6116509190611f44565b67ffffffffffffffff811115611669576116686121e0565b5b6040519080825280601f01601f19166020018201604052801561169b5781602001600182028036833780820191505090505b5090507f3000000000000000000000000000000000000000000000000000000000000000816000815181106116d3576116d26121b1565b5b60200101907effffffffffffffffffffffffffffffffffffffffffffffffffffffffffffff1916908160001a9053507f780000000000000000000000000000000000000000000000000000000000000081600181518110611737576117366121b1565b5b60200101907effffffffffffffffffffffffffffffffffffffffffffffffffffffffffffff1916908160001a905350600060018460026117779190611fcb565b6117819190611f44565b90505b6001811115611821577f3031323334353637383961626364656600000000000000000000000000000000600f8616601081106117c3576117c26121b1565b5b1a60f81b8282815181106117da576117d96121b1565b5b60200101907effffffffffffffffffffffffffffffffffffffffffffffffffffffffffffff1916908160001a905350600485901c94508061181a90612129565b9050611784565b5060008414611865576040517f08c379a000000000000000000000000000000000000000000000000000000000815260040161185c90611e66565b60405180910390fd5b8091505092915050565b60008135905061187e8161240b565b92915050565b60008135905061189381612422565b92915050565b6000813590506118a881612439565b92915050565b6000813590506118bd81612450565b92915050565b6000813590506118d281612467565b92915050565b6000602082840312156118ee576118ed61220f565b5b60006118fc8482850161186f565b91505092915050565b6000806040838503121561191c5761191b61220f565b5b600061192a8582860161186f565b925050602061193b8582860161186f565b9150509250929050565b6000806000806080858703121561195f5761195e61220f565b5b600061196d8782880161186f565b945050602061197e8782880161186f565b935050604061198f878288016118c3565b92505060606119a087828801611884565b91505092959194509250565b6000602082840312156119c2576119c161220f565b5b60006119d084828501611899565b91505092915050565b600080604083850312156119f0576119ef61220f565b5b60006119fe85828601611899565b9250506020611a0f8582860161186f565b9150509250929050565b600060208284031215611a2f57611a2e61220f565b5b6000611a3d848285016118ae565b91505092915050565b600060208284031215611a5c57611a5b61220f565b5b6000611a6a848285016118c3565b91505092915050565b60008060408385031215611a8a57611a8961220f565b5b6000611a98858286016118c3565b9250506020611aa9858286016118c3565b9150509250929050565b611abc81612059565b82525050565b611acb8161206b565b82525050565b611ada81612077565b82525050565b6000611aeb82611f01565b611af58185611f17565b9350611b058185602086016120f6565b611b0e81612214565b840191505092915050565b611b22816120e4565b82525050565b6000611b3382611f0c565b611b3d8185611f28565b9350611b4d8185602086016120f6565b611b5681612214565b840191505092915050565b6000611b6c82611f0c565b611b768185611f39565b9350611b868185602086016120f6565b80840191505092915050565b6000611b9f602083611f28565b9150611baa82612225565b602082019050919050565b6000611bc2601783611f39565b9150611bcd8261224e565b601782019050919050565b6000611be5601983611f39565b9150611bf082612277565b601982019050919050565b6000611c08602e83611f28565b9150611c13826122a0565b604082019050919050565b6000611c2b601683611f39565b9150611c36826122ef565b601682019050919050565b6000611c4e601983611f39565b9150611c5982612318565b601982019050919050565b6000611c71601783611f39565b9150611c7c82612341565b601782019050919050565b6000611c94600783611f28565b9150611c9f8261236a565b602082019050919050565b6000611cb7601183611f39565b9150611cc282612393565b601182019050919050565b6000611cda602f83611f28565b9150611ce5826123bc565b604082019050919050565b611cf9816120cd565b82525050565b6000611d0a82611bb5565b9150819050919050565b6000611d1f82611bd8565b9150819050919050565b6000611d3482611c1e565b9150819050919050565b6000611d4982611c41565b9150819050919050565b6000611d5e82611c64565b9150611d6a8285611b61565b9150611d7582611caa565b9150611d818284611b61565b91508190509392505050565b6000602082019050611da26000830184611ab3565b92915050565b6000604082019050611dbd6000830185611ab3565b611dca6020830184611ab3565b9392505050565b6000602082019050611de66000830184611ac2565b92915050565b6000602082019050611e016000830184611ad1565b92915050565b60006020820190508181036000830152611e218184611ae0565b905092915050565b6000602082019050611e3e6000830184611b19565b92915050565b60006020820190508181036000830152611e5e8184611b28565b905092915050565b60006020820190508181036000830152611e7f81611b92565b9050919050565b60006020820190508181036000830152611e9f81611bfb565b9050919050565b60006020820190508181036000830152611ebf81611c87565b9050919050565b60006020820190508181036000830152611edf81611ccd565b9050919050565b6000602082019050611efb6000830184611cf0565b92915050565b600081519050919050565b600081519050919050565b600082825260208201905092915050565b600082825260208201905092915050565b600081905092915050565b6000611f4f826120cd565b9150611f5a836120cd565b9250827fffffffffffffffffffffffffffffffffffffffffffffffffffffffffffffffff03821115611f8f57611f8e612153565b5b828201905092915050565b6000611fa5826120cd565b9150611fb0836120cd565b925082611fc057611fbf612182565b5b828204905092915050565b6000611fd6826120cd565b9150611fe1836120cd565b9250817fffffffffffffffffffffffffffffffffffffffffffffffffffffffffffffffff048311821515161561201a57612019612153565b5b828202905092915050565b6000612030826120cd565b915061203b836120cd565b92508282101561204e5761204d612153565b5b828203905092915050565b6000612064826120ad565b9050919050565b60008115159050919050565b6000819050919050565b60007fffffffff0000000000000000000000000000000000000000000000000000000082169050919050565b600073ffffffffffffffffffffffffffffffffffffffff82169050919050565b6000819050919050565b600060ff82169050919050565b60006120ef826120d7565b9050919050565b60005b838110156121145780820151818401526020810190506120f9565b83811115612123576000848401525b50505050565b6000612134826120cd565b9150600082141561214857612147612153565b5b600182039050919050565b7f4e487b7100000000000000000000000000000000000000000000000000000000600052601160045260246000fd5b7f4e487b7100000000000000000000000000000000000000000000000000000000600052601260045260246000fd5b7f4e487b7100000000000000000000000000000000000000000000000000000000600052603260045260246000fd5b7f4e487b7100000000000000000000000000000000000000000000000000000000600052604160045260246000fd5b600080fd5b6000601f19601f8301169050919050565b7f537472696e67733a20686578206c656e67746820696e73756666696369656e74600082015250565b7f4d46495f4d6f6e65795f41646d696e6973747261746f72000000000000000000600082015250565b7f4d46495f50726f6a6563745f41646d696e6973747261746f7200000000000000600082015250565b7f496e697469616c697a61626c653a20636f6e747261637420697320616c72656160008201527f647920696e697469616c697a6564000000000000000000000000000000000000602082015250565b7f4d46495f446174615f41646d696e6973747261746f7200000000000000000000600082015250565b7f4d4554415f46494e414e43455f545249474745525f504f4f4c00000000000000600082015250565b7f416363657373436f6e74726f6c3a206163636f756e7420000000000000000000600082015250565b7f4d4643493a453100000000000000000000000000000000000000000000000000600082015250565b7f206973206d697373696e6720726f6c6520000000000000000000000000000000600082015250565b7f416363657373436f6e74726f6c3a2063616e206f6e6c792072656e6f756e636560008201527f20726f6c657320666f722073656c660000000000000000000000000000000000602082015250565b61241481612059565b811461241f57600080fd5b50565b61242b8161206b565b811461243657600080fd5b50565b61244281612077565b811461244d57600080fd5b50565b61245981612081565b811461246457600080fd5b50565b612470816120cd565b811461247b57600080fd5b5056fea264697066735822122073709e543f382ad82340333bd154e80667f6cfd93d89cfe3e3f983faa87fc09364736f6c63430008060033",
					"opcodes": "PUSH1 0x80 PUSH1 0x40 MSTORE CALLVALUE DUP1 ISZERO PUSH2 0x10 JUMPI PUSH1 0x0 DUP1 REVERT JUMPDEST POP PUSH2 0x24B4 DUP1 PUSH2 0x20 PUSH1 0x0 CODECOPY PUSH1 0x0 RETURN INVALID PUSH1 0x80 PUSH1 0x40 MSTORE CALLVALUE DUP1 ISZERO PUSH2 0x10 JUMPI PUSH1 0x0 DUP1 REVERT JUMPDEST POP PUSH1 0x4 CALLDATASIZE LT PUSH2 0x1A8 JUMPI PUSH1 0x0 CALLDATALOAD PUSH1 0xE0 SHR DUP1 PUSH4 0xA217FDDF GT PUSH2 0xF9 JUMPI DUP1 PUSH4 0xD4B39B3A GT PUSH2 0x97 JUMPI DUP1 PUSH4 0xDDC10A2F GT PUSH2 0x71 JUMPI DUP1 PUSH4 0xDDC10A2F EQ PUSH2 0x4BD JUMPI DUP1 PUSH4 0xDE3D3C98 EQ PUSH2 0x4D9 JUMPI DUP1 PUSH4 0xEE286469 EQ PUSH2 0x509 JUMPI DUP1 PUSH4 0xFF380F77 EQ PUSH2 0x539 JUMPI PUSH2 0x1A8 JUMP JUMPDEST DUP1 PUSH4 0xD4B39B3A EQ PUSH2 0x453 JUMPI DUP1 PUSH4 0xD547741F EQ PUSH2 0x483 JUMPI DUP1 PUSH4 0xD5CF419B EQ PUSH2 0x49F JUMPI PUSH2 0x1A8 JUMP JUMPDEST DUP1 PUSH4 0xC0F6F33F GT PUSH2 0xD3 JUMPI DUP1 PUSH4 0xC0F6F33F EQ PUSH2 0x3DF JUMPI DUP1 PUSH4 0xC4D66DE8 EQ PUSH2 0x3FB JUMPI DUP1 PUSH4 0xC5F956AF EQ PUSH2 0x417 JUMPI DUP1 PUSH4 0xD49D5181 EQ PUSH2 0x435 JUMPI PUSH2 0x1A8 JUMP JUMPDEST DUP1 PUSH4 0xA217FDDF EQ PUSH2 0x385 JUMPI DUP1 PUSH4 0xB9A503CD EQ PUSH2 0x3A3 JUMPI DUP1 PUSH4 0xBD0DD4B2 EQ PUSH2 0x3C1 JUMPI PUSH2 0x1A8 JUMP JUMPDEST DUP1 PUSH4 0x2F2FF15D GT PUSH2 0x166 JUMPI DUP1 PUSH4 0x5B4246D4 GT PUSH2 0x140 JUMPI DUP1 PUSH4 0x5B4246D4 EQ PUSH2 0x2EB JUMPI DUP1 PUSH4 0x6605BFDA EQ PUSH2 0x309 JUMPI DUP1 PUSH4 0x91D14854 EQ PUSH2 0x325 JUMPI DUP1 PUSH4 0x9867EA2E EQ PUSH2 0x355 JUMPI PUSH2 0x1A8 JUMP JUMPDEST DUP1 PUSH4 0x2F2FF15D EQ PUSH2 0x283 JUMPI DUP1 PUSH4 0x36568ABE EQ PUSH2 0x29F JUMPI DUP1 PUSH4 0x41209AF1 EQ PUSH2 0x2BB JUMPI PUSH2 0x1A8 JUMP JUMPDEST DUP1 PUSH3 0x6CD200 EQ PUSH2 0x1AD JUMPI DUP1 PUSH4 0x1FFC9A7 EQ PUSH2 0x1C9 JUMPI DUP1 PUSH4 0xEA9FA1F EQ PUSH2 0x1F9 JUMPI DUP1 PUSH4 0x1E00887D EQ PUSH2 0x217 JUMPI DUP1 PUSH4 0x248A9CA3 EQ PUSH2 0x235 JUMPI DUP1 PUSH4 0x2EDCB16E EQ PUSH2 0x265 JUMPI JUMPDEST PUSH1 0x0 DUP1 REVERT JUMPDEST PUSH2 0x1C7 PUSH1 0x4 DUP1 CALLDATASIZE SUB DUP2 ADD SWAP1 PUSH2 0x1C2 SWAP2 SWAP1 PUSH2 0x1A46 JUMP JUMPDEST PUSH2 0x555 JUMP JUMPDEST STOP JUMPDEST PUSH2 0x1E3 PUSH1 0x4 DUP1 CALLDATASIZE SUB DUP2 ADD SWAP1 PUSH2 0x1DE SWAP2 SWAP1 PUSH2 0x1A19 JUMP JUMPDEST PUSH2 0x6CA JUMP JUMPDEST PUSH1 0x40 MLOAD PUSH2 0x1F0 SWAP2 SWAP1 PUSH2 0x1DD1 JUMP JUMPDEST PUSH1 0x40 MLOAD DUP1 SWAP2 SUB SWAP1 RETURN JUMPDEST PUSH2 0x201 PUSH2 0x744 JUMP JUMPDEST PUSH1 0x40 MLOAD PUSH2 0x20E SWAP2 SWAP1 PUSH2 0x1EE6 JUMP JUMPDEST PUSH1 0x40 MLOAD DUP1 SWAP2 SUB SWAP1 RETURN JUMPDEST PUSH2 0x21F PUSH2 0x74A JUMP JUMPDEST PUSH1 0x40 MLOAD PUSH2 0x22C SWAP2 SWAP1 PUSH2 0x1DEC JUMP JUMPDEST PUSH1 0x40 MLOAD DUP1 SWAP2 SUB SWAP1 RETURN JUMPDEST PUSH2 0x24F PUSH1 0x4 DUP1 CALLDATASIZE SUB DUP2 ADD SWAP1 PUSH2 0x24A SWAP2 SWAP1 PUSH2 0x19AC JUMP JUMPDEST PUSH2 0x772 JUMP JUMPDEST PUSH1 0x40 MLOAD PUSH2 0x25C SWAP2 SWAP1 PUSH2 0x1DEC JUMP JUMPDEST PUSH1 0x40 MLOAD DUP1 SWAP2 SUB SWAP1 RETURN JUMPDEST PUSH2 0x26D PUSH2 0x791 JUMP JUMPDEST PUSH1 0x40 MLOAD PUSH2 0x27A SWAP2 SWAP1 PUSH2 0x1DEC JUMP JUMPDEST PUSH1 0x40 MLOAD DUP1 SWAP2 SUB SWAP1 RETURN JUMPDEST PUSH2 0x29D PUSH1 0x4 DUP1 CALLDATASIZE SUB DUP2 ADD SWAP1 PUSH2 0x298 SWAP2 SWAP1 PUSH2 0x19D9 JUMP JUMPDEST PUSH2 0x7B9 JUMP JUMPDEST STOP JUMPDEST PUSH2 0x2B9 PUSH1 0x4 DUP1 CALLDATASIZE SUB DUP2 ADD SWAP1 PUSH2 0x2B4 SWAP2 SWAP1 PUSH2 0x19D9 JUMP JUMPDEST PUSH2 0x7DA JUMP JUMPDEST STOP JUMPDEST PUSH2 0x2D5 PUSH1 0x4 DUP1 CALLDATASIZE SUB DUP2 ADD SWAP1 PUSH2 0x2D0 SWAP2 SWAP1 PUSH2 0x1A46 JUMP JUMPDEST PUSH2 0x85D JUMP JUMPDEST PUSH1 0x40 MLOAD PUSH2 0x2E2 SWAP2 SWAP1 PUSH2 0x1D8D JUMP JUMPDEST PUSH1 0x40 MLOAD DUP1 SWAP2 SUB SWAP1 RETURN JUMPDEST PUSH2 0x2F3 PUSH2 0x89C JUMP JUMPDEST PUSH1 0x40 MLOAD PUSH2 0x300 SWAP2 SWAP1 PUSH2 0x1EE6 JUMP JUMPDEST PUSH1 0x40 MLOAD DUP1 SWAP2 SUB SWAP1 RETURN JUMPDEST PUSH2 0x323 PUSH1 0x4 DUP1 CALLDATASIZE SUB DUP2 ADD SWAP1 PUSH2 0x31E SWAP2 SWAP1 PUSH2 0x18D8 JUMP JUMPDEST PUSH2 0x8A2 JUMP JUMPDEST STOP JUMPDEST PUSH2 0x33F PUSH1 0x4 DUP1 CALLDATASIZE SUB DUP2 ADD SWAP1 PUSH2 0x33A SWAP2 SWAP1 PUSH2 0x19D9 JUMP JUMPDEST PUSH2 0x915 JUMP JUMPDEST PUSH1 0x40 MLOAD PUSH2 0x34C SWAP2 SWAP1 PUSH2 0x1DD1 JUMP JUMPDEST PUSH1 0x40 MLOAD DUP1 SWAP2 SUB SWAP1 RETURN JUMPDEST PUSH2 0x36F PUSH1 0x4 DUP1 CALLDATASIZE SUB DUP2 ADD SWAP1 PUSH2 0x36A SWAP2 SWAP1 PUSH2 0x18D8 JUMP JUMPDEST PUSH2 0x97F JUMP JUMPDEST PUSH1 0x40 MLOAD PUSH2 0x37C SWAP2 SWAP1 PUSH2 0x1E07 JUMP JUMPDEST PUSH1 0x40 MLOAD DUP1 SWAP2 SUB SWAP1 RETURN JUMPDEST PUSH2 0x38D PUSH2 0x9FE JUMP JUMPDEST PUSH1 0x40 MLOAD PUSH2 0x39A SWAP2 SWAP1 PUSH2 0x1DEC JUMP JUMPDEST PUSH1 0x40 MLOAD DUP1 SWAP2 SUB SWAP1 RETURN JUMPDEST PUSH2 0x3AB PUSH2 0xA05 JUMP JUMPDEST PUSH1 0x40 MLOAD PUSH2 0x3B8 SWAP2 SWAP1 PUSH2 0x1DEC JUMP JUMPDEST PUSH1 0x40 MLOAD DUP1 SWAP2 SUB SWAP1 RETURN JUMPDEST PUSH2 0x3C9 PUSH2 0xA2D JUMP JUMPDEST PUSH1 0x40 MLOAD PUSH2 0x3D6 SWAP2 SWAP1 PUSH2 0x1DEC JUMP JUMPDEST PUSH1 0x40 MLOAD DUP1 SWAP2 SUB SWAP1 RETURN JUMPDEST PUSH2 0x3F9 PUSH1 0x4 DUP1 CALLDATASIZE SUB DUP2 ADD SWAP1 PUSH2 0x3F4 SWAP2 SWAP1 PUSH2 0x1905 JUMP JUMPDEST PUSH2 0xA55 JUMP JUMPDEST STOP JUMPDEST PUSH2 0x415 PUSH1 0x4 DUP1 CALLDATASIZE SUB DUP2 ADD SWAP1 PUSH2 0x410 SWAP2 SWAP1 PUSH2 0x18D8 JUMP JUMPDEST PUSH2 0xDBC JUMP JUMPDEST STOP JUMPDEST PUSH2 0x41F PUSH2 0xEB7 JUMP JUMPDEST PUSH1 0x40 MLOAD PUSH2 0x42C SWAP2 SWAP1 PUSH2 0x1D8D JUMP JUMPDEST PUSH1 0x40 MLOAD DUP1 SWAP2 SUB SWAP1 RETURN JUMPDEST PUSH2 0x43D PUSH2 0xEDD JUMP JUMPDEST PUSH1 0x40 MLOAD PUSH2 0x44A SWAP2 SWAP1 PUSH2 0x1EE6 JUMP JUMPDEST PUSH1 0x40 MLOAD DUP1 SWAP2 SUB SWAP1 RETURN JUMPDEST PUSH2 0x46D PUSH1 0x4 DUP1 CALLDATASIZE SUB DUP2 ADD SWAP1 PUSH2 0x468 SWAP2 SWAP1 PUSH2 0x1A46 JUMP JUMPDEST PUSH2 0xEE3 JUMP JUMPDEST PUSH1 0x40 MLOAD PUSH2 0x47A SWAP2 SWAP1 PUSH2 0x1D8D JUMP JUMPDEST PUSH1 0x40 MLOAD DUP1 SWAP2 SUB SWAP1 RETURN JUMPDEST PUSH2 0x49D PUSH1 0x4 DUP1 CALLDATASIZE SUB DUP2 ADD SWAP1 PUSH2 0x498 SWAP2 SWAP1 PUSH2 0x19D9 JUMP JUMPDEST PUSH2 0xF22 JUMP JUMPDEST STOP JUMPDEST PUSH2 0x4A7 PUSH2 0xF43 JUMP JUMPDEST PUSH1 0x40 MLOAD PUSH2 0x4B4 SWAP2 SWAP1 PUSH2 0x1EE6 JUMP JUMPDEST PUSH1 0x40 MLOAD DUP1 SWAP2 SUB SWAP1 RETURN JUMPDEST PUSH2 0x4D7 PUSH1 0x4 DUP1 CALLDATASIZE SUB DUP2 ADD SWAP1 PUSH2 0x4D2 SWAP2 SWAP1 PUSH2 0x1A73 JUMP JUMPDEST PUSH2 0xF49 JUMP JUMPDEST STOP JUMPDEST PUSH2 0x4F3 PUSH1 0x4 DUP1 CALLDATASIZE SUB DUP2 ADD SWAP1 PUSH2 0x4EE SWAP2 SWAP1 PUSH2 0x1905 JUMP JUMPDEST PUSH2 0xF9C JUMP JUMPDEST PUSH1 0x40 MLOAD PUSH2 0x500 SWAP2 SWAP1 PUSH2 0x1EE6 JUMP JUMPDEST PUSH1 0x40 MLOAD DUP1 SWAP2 SUB SWAP1 RETURN JUMPDEST PUSH2 0x523 PUSH1 0x4 DUP1 CALLDATASIZE SUB DUP2 ADD SWAP1 PUSH2 0x51E SWAP2 SWAP1 PUSH2 0x18D8 JUMP JUMPDEST PUSH2 0xFC1 JUMP JUMPDEST PUSH1 0x40 MLOAD PUSH2 0x530 SWAP2 SWAP1 PUSH2 0x1D8D JUMP JUMPDEST PUSH1 0x40 MLOAD DUP1 SWAP2 SUB SWAP1 RETURN JUMPDEST PUSH2 0x553 PUSH1 0x4 DUP1 CALLDATASIZE SUB DUP2 ADD SWAP1 PUSH2 0x54E SWAP2 SWAP1 PUSH2 0x1945 JUMP JUMPDEST PUSH2 0xFF4 JUMP JUMPDEST STOP JUMPDEST PUSH1 0x40 MLOAD PUSH1 0x20 ADD PUSH2 0x564 SWAP1 PUSH2 0x1D29 JUMP JUMPDEST PUSH1 0x40 MLOAD PUSH1 0x20 DUP2 DUP4 SUB SUB DUP2 MSTORE SWAP1 PUSH1 0x40 MSTORE DUP1 MLOAD SWAP1 PUSH1 0x20 ADD KECCAK256 PUSH2 0x583 DUP2 PUSH2 0x11D2 JUMP JUMPDEST PUSH1 0x64 DUP3 EQ DUP1 PUSH2 0x593 JUMPI POP PUSH2 0x3E8 DUP3 EQ JUMPDEST DUP1 PUSH2 0x59F JUMPI POP PUSH2 0x2710 DUP3 EQ JUMPDEST DUP1 PUSH2 0x5AC JUMPI POP PUSH3 0x186A0 DUP3 EQ JUMPDEST ISZERO PUSH2 0x6C6 JUMPI PUSH1 0x1 SLOAD DUP3 GT ISZERO PUSH2 0x63B JUMPI PUSH1 0x0 PUSH2 0x5D2 PUSH1 0x1 SLOAD DUP5 PUSH2 0x11E6 SWAP1 SWAP2 SWAP1 PUSH4 0xFFFFFFFF AND JUMP JUMPDEST SWAP1 POP PUSH1 0x0 DUP2 EQ ISZERO PUSH2 0x5E4 JUMPI PUSH1 0x1 PUSH2 0x5E6 JUMP JUMPDEST DUP1 JUMPDEST SWAP1 POP PUSH2 0x5FD DUP2 PUSH1 0x1 SLOAD PUSH2 0x11FC SWAP1 SWAP2 SWAP1 PUSH4 0xFFFFFFFF AND JUMP JUMPDEST PUSH1 0x1 DUP2 SWAP1 SSTORE POP PUSH2 0x618 DUP2 PUSH1 0x2 SLOAD PUSH2 0x11FC SWAP1 SWAP2 SWAP1 PUSH4 0xFFFFFFFF AND JUMP JUMPDEST PUSH1 0x2 DUP2 SWAP1 SSTORE POP PUSH2 0x633 DUP2 PUSH1 0x3 SLOAD PUSH2 0x11FC SWAP1 SWAP2 SWAP1 PUSH4 0xFFFFFFFF AND JUMP JUMPDEST PUSH1 0x3 DUP2 SWAP1 SSTORE POP POP JUMPDEST DUP2 PUSH1 0x1 SLOAD GT ISZERO PUSH2 0x6C5 JUMPI PUSH1 0x0 PUSH2 0x65C DUP4 PUSH1 0x1 SLOAD PUSH2 0x11E6 SWAP1 SWAP2 SWAP1 PUSH4 0xFFFFFFFF AND JUMP JUMPDEST SWAP1 POP PUSH1 0x0 DUP2 EQ ISZERO PUSH2 0x66E JUMPI PUSH1 0x1 PUSH2 0x670 JUMP JUMPDEST DUP1 JUMPDEST SWAP1 POP PUSH2 0x687 DUP2 PUSH1 0x1 SLOAD PUSH2 0x11E6 SWAP1 SWAP2 SWAP1 PUSH4 0xFFFFFFFF AND JUMP JUMPDEST PUSH1 0x1 DUP2 SWAP1 SSTORE POP PUSH2 0x6A2 DUP2 PUSH1 0x2 SLOAD PUSH2 0x11E6 SWAP1 SWAP2 SWAP1 PUSH4 0xFFFFFFFF AND JUMP JUMPDEST PUSH1 0x2 DUP2 SWAP1 SSTORE POP PUSH2 0x6BD DUP2 PUSH1 0x3 SLOAD PUSH2 0x11E6 SWAP1 SWAP2 SWAP1 PUSH4 0xFFFFFFFF AND JUMP JUMPDEST PUSH1 0x3 DUP2 SWAP1 SSTORE POP POP JUMPDEST JUMPDEST POP POP JUMP JUMPDEST PUSH1 0x0 PUSH32 0x7965DB0B00000000000000000000000000000000000000000000000000000000 PUSH28 0xFFFFFFFFFFFFFFFFFFFFFFFFFFFFFFFFFFFFFFFFFFFFFFFFFFFFFFFF NOT AND DUP3 PUSH28 0xFFFFFFFFFFFFFFFFFFFFFFFFFFFFFFFFFFFFFFFFFFFFFFFFFFFFFFFF NOT AND EQ DUP1 PUSH2 0x73D JUMPI POP PUSH2 0x73C DUP3 PUSH2 0x1212 JUMP JUMPDEST JUMPDEST SWAP1 POP SWAP2 SWAP1 POP JUMP JUMPDEST PUSH1 0x3 SLOAD DUP2 JUMP JUMPDEST PUSH1 0x40 MLOAD PUSH1 0x20 ADD PUSH2 0x759 SWAP1 PUSH2 0x1CFF JUMP JUMPDEST PUSH1 0x40 MLOAD PUSH1 0x20 DUP2 DUP4 SUB SUB DUP2 MSTORE SWAP1 PUSH1 0x40 MSTORE DUP1 MLOAD SWAP1 PUSH1 0x20 ADD KECCAK256 DUP2 JUMP JUMPDEST PUSH1 0x0 DUP1 PUSH1 0x0 DUP4 DUP2 MSTORE PUSH1 0x20 ADD SWAP1 DUP2 MSTORE PUSH1 0x20 ADD PUSH1 0x0 KECCAK256 PUSH1 0x1 ADD SLOAD SWAP1 POP SWAP2 SWAP1 POP JUMP JUMPDEST PUSH1 0x40 MLOAD PUSH1 0x20 ADD PUSH2 0x7A0 SWAP1 PUSH2 0x1D29 JUMP JUMPDEST PUSH1 0x40 MLOAD PUSH1 0x20 DUP2 DUP4 SUB SUB DUP2 MSTORE SWAP1 PUSH1 0x40 MSTORE DUP1 MLOAD SWAP1 PUSH1 0x20 ADD KECCAK256 DUP2 JUMP JUMPDEST PUSH2 0x7C2 DUP3 PUSH2 0x772 JUMP JUMPDEST PUSH2 0x7CB DUP2 PUSH2 0x11D2 JUMP JUMPDEST PUSH2 0x7D5 DUP4 DUP4 PUSH2 0x127C JUMP JUMPDEST POP POP POP JUMP JUMPDEST PUSH2 0x7E2 PUSH2 0x135C JUMP JUMPDEST PUSH20 0xFFFFFFFFFFFFFFFFFFFFFFFFFFFFFFFFFFFFFFFF AND DUP2 PUSH20 0xFFFFFFFFFFFFFFFFFFFFFFFFFFFFFFFFFFFFFFFF AND EQ PUSH2 0x84F JUMPI PUSH1 0x40 MLOAD PUSH32 0x8C379A000000000000000000000000000000000000000000000000000000000 DUP2 MSTORE PUSH1 0x4 ADD PUSH2 0x846 SWAP1 PUSH2 0x1EC6 JUMP JUMPDEST PUSH1 0x40 MLOAD DUP1 SWAP2 SUB SWAP1 REVERT JUMPDEST PUSH2 0x859 DUP3 DUP3 PUSH2 0x1364 JUMP JUMPDEST POP POP JUMP JUMPDEST PUSH1 0x4 DUP2 DUP2 SLOAD DUP2 LT PUSH2 0x86D JUMPI PUSH1 0x0 DUP1 REVERT JUMPDEST SWAP1 PUSH1 0x0 MSTORE PUSH1 0x20 PUSH1 0x0 KECCAK256 ADD PUSH1 0x0 SWAP2 POP SLOAD SWAP1 PUSH2 0x100 EXP SWAP1 DIV PUSH20 0xFFFFFFFFFFFFFFFFFFFFFFFFFFFFFFFFFFFFFFFF AND DUP2 JUMP JUMPDEST PUSH1 0x1 SLOAD DUP2 JUMP JUMPDEST PUSH1 0x40 MLOAD PUSH1 0x20 ADD PUSH2 0x8B1 SWAP1 PUSH2 0x1D29 JUMP JUMPDEST PUSH1 0x40 MLOAD PUSH1 0x20 DUP2 DUP4 SUB SUB DUP2 MSTORE SWAP1 PUSH1 0x40 MSTORE DUP1 MLOAD SWAP1 PUSH1 0x20 ADD KECCAK256 PUSH2 0x8D0 DUP2 PUSH2 0x11D2 JUMP JUMPDEST DUP2 PUSH1 0x6 PUSH1 0x0 PUSH2 0x100 EXP DUP2 SLOAD DUP2 PUSH20 0xFFFFFFFFFFFFFFFFFFFFFFFFFFFFFFFFFFFFFFFF MUL NOT AND SWAP1 DUP4 PUSH20 0xFFFFFFFFFFFFFFFFFFFFFFFFFFFFFFFFFFFFFFFF AND MUL OR SWAP1 SSTORE POP POP POP JUMP JUMPDEST PUSH1 0x0 DUP1 PUSH1 0x0 DUP5 DUP2 MSTORE PUSH1 0x20 ADD SWAP1 DUP2 MSTORE PUSH1 0x20 ADD PUSH1 0x0 KECCAK256 PUSH1 0x0 ADD PUSH1 0x0 DUP4 PUSH20 0xFFFFFFFFFFFFFFFFFFFFFFFFFFFFFFFFFFFFFFFF AND PUSH20 0xFFFFFFFFFFFFFFFFFFFFFFFFFFFFFFFFFFFFFFFF AND DUP2 MSTORE PUSH1 0x20 ADD SWAP1 DUP2 MSTORE PUSH1 0x20 ADD PUSH1 0x0 KECCAK256 PUSH1 0x0 SWAP1 SLOAD SWAP1 PUSH2 0x100 EXP SWAP1 DIV PUSH1 0xFF AND SWAP1 POP SWAP3 SWAP2 POP POP JUMP JUMPDEST PUSH1 0x60 PUSH4 0xC4D66DE8 PUSH1 0xE0 SHL DUP3 PUSH1 0x40 MLOAD PUSH1 0x24 ADD PUSH2 0x99A SWAP2 SWAP1 PUSH2 0x1D8D JUMP JUMPDEST PUSH1 0x40 MLOAD PUSH1 0x20 DUP2 DUP4 SUB SUB DUP2 MSTORE SWAP1 PUSH1 0x40 MSTORE SWAP1 PUSH28 0xFFFFFFFFFFFFFFFFFFFFFFFFFFFFFFFFFFFFFFFFFFFFFFFFFFFFFFFF NOT AND PUSH1 0x20 DUP3 ADD DUP1 MLOAD PUSH28 0xFFFFFFFFFFFFFFFFFFFFFFFFFFFFFFFFFFFFFFFFFFFFFFFFFFFFFFFF DUP4 DUP2 DUP4 AND OR DUP4 MSTORE POP POP POP POP SWAP1 POP SWAP2 SWAP1 POP JUMP JUMPDEST PUSH1 0x0 DUP1 SHL DUP2 JUMP JUMPDEST PUSH1 0x40 MLOAD PUSH1 0x20 ADD PUSH2 0xA14 SWAP1 PUSH2 0x1D3E JUMP JUMPDEST PUSH1 0x40 MLOAD PUSH1 0x20 DUP2 DUP4 SUB SUB DUP2 MSTORE SWAP1 PUSH1 0x40 MSTORE DUP1 MLOAD SWAP1 PUSH1 0x20 ADD KECCAK256 DUP2 JUMP JUMPDEST PUSH1 0x40 MLOAD PUSH1 0x20 ADD PUSH2 0xA3C SWAP1 PUSH2 0x1D14 JUMP JUMPDEST PUSH1 0x40 MLOAD PUSH1 0x20 DUP2 DUP4 SUB SUB DUP2 MSTORE SWAP1 PUSH1 0x40 MSTORE DUP1 MLOAD SWAP1 PUSH1 0x20 ADD KECCAK256 DUP2 JUMP JUMPDEST PUSH1 0x40 MLOAD PUSH1 0x20 ADD PUSH2 0xA64 SWAP1 PUSH2 0x1D3E JUMP JUMPDEST PUSH1 0x40 MLOAD PUSH1 0x20 DUP2 DUP4 SUB SUB DUP2 MSTORE SWAP1 PUSH1 0x40 MSTORE DUP1 MLOAD SWAP1 PUSH1 0x20 ADD KECCAK256 PUSH2 0xA83 DUP2 PUSH2 0x11D2 JUMP JUMPDEST PUSH1 0x0 PUSH20 0xFFFFFFFFFFFFFFFFFFFFFFFFFFFFFFFFFFFFFFFF AND PUSH1 0x7 PUSH1 0x0 DUP6 PUSH20 0xFFFFFFFFFFFFFFFFFFFFFFFFFFFFFFFFFFFFFFFF AND PUSH20 0xFFFFFFFFFFFFFFFFFFFFFFFFFFFFFFFFFFFFFFFF AND DUP2 MSTORE PUSH1 0x20 ADD SWAP1 DUP2 MSTORE PUSH1 0x20 ADD PUSH1 0x0 KECCAK256 PUSH1 0x0 SWAP1 SLOAD SWAP1 PUSH2 0x100 EXP SWAP1 DIV PUSH20 0xFFFFFFFFFFFFFFFFFFFFFFFFFFFFFFFFFFFFFFFF AND PUSH20 0xFFFFFFFFFFFFFFFFFFFFFFFFFFFFFFFFFFFFFFFF AND EQ DUP1 ISZERO PUSH2 0xB4A JUMPI POP DUP3 PUSH20 0xFFFFFFFFFFFFFFFFFFFFFFFFFFFFFFFFFFFFFFFF AND DUP3 PUSH20 0xFFFFFFFFFFFFFFFFFFFFFFFFFFFFFFFFFFFFFFFF AND EQ ISZERO JUMPDEST DUP1 ISZERO PUSH2 0xBA5 JUMPI POP PUSH1 0x0 PUSH20 0xFFFFFFFFFFFFFFFFFFFFFFFFFFFFFFFFFFFFFFFF AND PUSH1 0x6 PUSH1 0x0 SWAP1 SLOAD SWAP1 PUSH2 0x100 EXP SWAP1 DIV PUSH20 0xFFFFFFFFFFFFFFFFFFFFFFFFFFFFFFFFFFFFFFFF AND PUSH20 0xFFFFFFFFFFFFFFFFFFFFFFFFFFFFFFFFFFFFFFFF AND EQ ISZERO JUMPDEST PUSH2 0xBE4 JUMPI PUSH1 0x40 MLOAD PUSH32 0x8C379A000000000000000000000000000000000000000000000000000000000 DUP2 MSTORE PUSH1 0x4 ADD PUSH2 0xBDB SWAP1 PUSH2 0x1EA6 JUMP JUMPDEST PUSH1 0x40 MLOAD DUP1 SWAP2 SUB SWAP1 REVERT JUMPDEST DUP2 PUSH1 0x7 PUSH1 0x0 DUP6 PUSH20 0xFFFFFFFFFFFFFFFFFFFFFFFFFFFFFFFFFFFFFFFF AND PUSH20 0xFFFFFFFFFFFFFFFFFFFFFFFFFFFFFFFFFFFFFFFF AND DUP2 MSTORE PUSH1 0x20 ADD SWAP1 DUP2 MSTORE PUSH1 0x20 ADD PUSH1 0x0 KECCAK256 PUSH1 0x0 PUSH2 0x100 EXP DUP2 SLOAD DUP2 PUSH20 0xFFFFFFFFFFFFFFFFFFFFFFFFFFFFFFFFFFFFFFFF MUL NOT AND SWAP1 DUP4 PUSH20 0xFFFFFFFFFFFFFFFFFFFFFFFFFFFFFFFFFFFFFFFF AND MUL OR SWAP1 SSTORE POP PUSH1 0x4 DUP4 SWAP1 DUP1 PUSH1 0x1 DUP2 SLOAD ADD DUP1 DUP3 SSTORE DUP1 SWAP2 POP POP PUSH1 0x1 SWAP1 SUB SWAP1 PUSH1 0x0 MSTORE PUSH1 0x20 PUSH1 0x0 KECCAK256 ADD PUSH1 0x0 SWAP1 SWAP2 SWAP1 SWAP2 SWAP1 SWAP2 PUSH2 0x100 EXP DUP2 SLOAD DUP2 PUSH20 0xFFFFFFFFFFFFFFFFFFFFFFFFFFFFFFFFFFFFFFFF MUL NOT AND SWAP1 DUP4 PUSH20 0xFFFFFFFFFFFFFFFFFFFFFFFFFFFFFFFFFFFFFFFF AND MUL OR SWAP1 SSTORE POP PUSH1 0x6 PUSH1 0x0 SWAP1 SLOAD SWAP1 PUSH2 0x100 EXP SWAP1 DIV PUSH20 0xFFFFFFFFFFFFFFFFFFFFFFFFFFFFFFFFFFFFFFFF AND PUSH20 0xFFFFFFFFFFFFFFFFFFFFFFFFFFFFFFFFFFFFFFFF AND DUP3 PUSH20 0xFFFFFFFFFFFFFFFFFFFFFFFFFFFFFFFFFFFFFFFF AND EQ PUSH2 0xD7E JUMPI PUSH1 0x5 DUP3 SWAP1 DUP1 PUSH1 0x1 DUP2 SLOAD ADD DUP1 DUP3 SSTORE DUP1 SWAP2 POP POP PUSH1 0x1 SWAP1 SUB SWAP1 PUSH1 0x0 MSTORE PUSH1 0x20 PUSH1 0x0 KECCAK256 ADD PUSH1 0x0 SWAP1 SWAP2 SWAP1 SWAP2 SWAP1 SWAP2 PUSH2 0x100 EXP DUP2 SLOAD DUP2 PUSH20 0xFFFFFFFFFFFFFFFFFFFFFFFFFFFFFFFFFFFFFFFF MUL NOT AND SWAP1 DUP4 PUSH20 0xFFFFFFFFFFFFFFFFFFFFFFFFFFFFFFFFFFFFFFFF AND MUL OR SWAP1 SSTORE POP JUMPDEST PUSH32 0xCDF87EFF0154A894757BC9FE1893D3F37E143E8145478358591401036F588AF DUP4 DUP4 PUSH1 0x40 MLOAD PUSH2 0xDAF SWAP3 SWAP2 SWAP1 PUSH2 0x1DA8 JUMP JUMPDEST PUSH1 0x40 MLOAD DUP1 SWAP2 SUB SWAP1 LOG1 POP POP POP JUMP JUMPDEST PUSH1 0x0 PUSH2 0xDC8 PUSH1 0x1 PUSH2 0x1445 JUMP JUMPDEST SWAP1 POP DUP1 ISZERO PUSH2 0xDEC JUMPI PUSH1 0x1 PUSH1 0x9 PUSH1 0x1 PUSH2 0x100 EXP DUP2 SLOAD DUP2 PUSH1 0xFF MUL NOT AND SWAP1 DUP4 ISZERO ISZERO MUL OR SWAP1 SSTORE POP JUMPDEST PUSH1 0x55 PUSH1 0x3 DUP2 SWAP1 SSTORE POP PUSH1 0x50 PUSH1 0x2 DUP2 SWAP1 SSTORE POP PUSH1 0x64 PUSH1 0x1 DUP2 SWAP1 SSTORE POP DUP2 PUSH1 0x6 PUSH1 0x0 PUSH2 0x100 EXP DUP2 SLOAD DUP2 PUSH20 0xFFFFFFFFFFFFFFFFFFFFFFFFFFFFFFFFFFFFFFFF MUL NOT AND SWAP1 DUP4 PUSH20 0xFFFFFFFFFFFFFFFFFFFFFFFFFFFFFFFFFFFFFFFF AND MUL OR SWAP1 SSTORE POP PUSH2 0xE59 PUSH1 0x0 DUP1 SHL PUSH2 0xE54 PUSH2 0x135C JUMP JUMPDEST PUSH2 0x1539 JUMP JUMPDEST DUP1 ISZERO PUSH2 0xEB3 JUMPI PUSH1 0x0 PUSH1 0x9 PUSH1 0x1 PUSH2 0x100 EXP DUP2 SLOAD DUP2 PUSH1 0xFF MUL NOT AND SWAP1 DUP4 ISZERO ISZERO MUL OR SWAP1 SSTORE POP PUSH32 0x7F26B83FF96E1F2B6A682F133852F6798A09C465DA95921460CEFB3847402498 PUSH1 0x1 PUSH1 0x40 MLOAD PUSH2 0xEAA SWAP2 SWAP1 PUSH2 0x1E29 JUMP JUMPDEST PUSH1 0x40 MLOAD DUP1 SWAP2 SUB SWAP1 LOG1 JUMPDEST POP POP JUMP JUMPDEST PUSH1 0x6 PUSH1 0x0 SWAP1 SLOAD SWAP1 PUSH2 0x100 EXP SWAP1 DIV PUSH20 0xFFFFFFFFFFFFFFFFFFFFFFFFFFFFFFFFFFFFFFFF AND DUP2 JUMP JUMPDEST PUSH1 0x0 NOT DUP2 JUMP JUMPDEST PUSH1 0x5 DUP2 DUP2 SLOAD DUP2 LT PUSH2 0xEF3 JUMPI PUSH1 0x0 DUP1 REVERT JUMPDEST SWAP1 PUSH1 0x0 MSTORE PUSH1 0x20 PUSH1 0x0 KECCAK256 ADD PUSH1 0x0 SWAP2 POP SLOAD SWAP1 PUSH2 0x100 EXP SWAP1 DIV PUSH20 0xFFFFFFFFFFFFFFFFFFFFFFFFFFFFFFFFFFFFFFFF AND DUP2 JUMP JUMPDEST PUSH2 0xF2B DUP3 PUSH2 0x772 JUMP JUMPDEST PUSH2 0xF34 DUP2 PUSH2 0x11D2 JUMP JUMPDEST PUSH2 0xF3E DUP4 DUP4 PUSH2 0x1364 JUMP JUMPDEST POP POP POP JUMP JUMPDEST PUSH1 0x2 SLOAD DUP2 JUMP JUMPDEST PUSH1 0x40 MLOAD PUSH1 0x20 ADD PUSH2 0xF58 SWAP1 PUSH2 0x1D29 JUMP JUMPDEST PUSH1 0x40 MLOAD PUSH1 0x20 DUP2 DUP4 SUB SUB DUP2 MSTORE SWAP1 PUSH1 0x40 MSTORE DUP1 MLOAD SWAP1 PUSH1 0x20 ADD KECCAK256 PUSH2 0xF77 DUP2 PUSH2 0x11D2 JUMP JUMPDEST PUSH1 0x0 DUP4 EQ PUSH2 0xF87 JUMPI DUP3 PUSH1 0x2 DUP2 SWAP1 SSTORE POP JUMPDEST PUSH1 0x0 DUP3 EQ PUSH2 0xF97 JUMPI DUP2 PUSH1 0x3 DUP2 SWAP1 SSTORE POP JUMPDEST POP POP POP JUMP JUMPDEST PUSH1 0x8 PUSH1 0x20 MSTORE DUP2 PUSH1 0x0 MSTORE PUSH1 0x40 PUSH1 0x0 KECCAK256 PUSH1 0x20 MSTORE DUP1 PUSH1 0x0 MSTORE PUSH1 0x40 PUSH1 0x0 KECCAK256 PUSH1 0x0 SWAP2 POP SWAP2 POP POP SLOAD DUP2 JUMP JUMPDEST PUSH1 0x7 PUSH1 0x20 MSTORE DUP1 PUSH1 0x0 MSTORE PUSH1 0x40 PUSH1 0x0 KECCAK256 PUSH1 0x0 SWAP2 POP SLOAD SWAP1 PUSH2 0x100 EXP SWAP1 DIV PUSH20 0xFFFFFFFFFFFFFFFFFFFFFFFFFFFFFFFFFFFFFFFF AND DUP2 JUMP JUMPDEST PUSH1 0x40 MLOAD PUSH1 0x20 ADD PUSH2 0x1003 SWAP1 PUSH2 0x1D3E JUMP JUMPDEST PUSH1 0x40 MLOAD PUSH1 0x20 DUP2 DUP4 SUB SUB DUP2 MSTORE SWAP1 PUSH1 0x40 MSTORE DUP1 MLOAD SWAP1 PUSH1 0x20 ADD KECCAK256 PUSH2 0x1022 DUP2 PUSH2 0x11D2 JUMP JUMPDEST DUP2 PUSH2 0x10BB JUMPI PUSH2 0x10B6 DUP4 PUSH1 0x8 PUSH1 0x0 DUP9 PUSH20 0xFFFFFFFFFFFFFFFFFFFFFFFFFFFFFFFFFFFFFFFF AND PUSH20 0xFFFFFFFFFFFFFFFFFFFFFFFFFFFFFFFFFFFFFFFF AND DUP2 MSTORE PUSH1 0x20 ADD SWAP1 DUP2 MSTORE PUSH1 0x20 ADD PUSH1 0x0 KECCAK256 PUSH1 0x0 DUP8 PUSH20 0xFFFFFFFFFFFFFFFFFFFFFFFFFFFFFFFFFFFFFFFF AND PUSH20 0xFFFFFFFFFFFFFFFFFFFFFFFFFFFFFFFFFFFFFFFF AND DUP2 MSTORE PUSH1 0x20 ADD SWAP1 DUP2 MSTORE PUSH1 0x20 ADD PUSH1 0x0 KECCAK256 SLOAD PUSH2 0x1547 SWAP1 SWAP2 SWAP1 PUSH4 0xFFFFFFFF AND JUMP JUMPDEST PUSH2 0x114B JUMP JUMPDEST PUSH2 0x114A DUP4 PUSH1 0x8 PUSH1 0x0 DUP9 PUSH20 0xFFFFFFFFFFFFFFFFFFFFFFFFFFFFFFFFFFFFFFFF AND PUSH20 0xFFFFFFFFFFFFFFFFFFFFFFFFFFFFFFFFFFFFFFFF AND DUP2 MSTORE PUSH1 0x20 ADD SWAP1 DUP2 MSTORE PUSH1 0x20 ADD PUSH1 0x0 KECCAK256 PUSH1 0x0 DUP8 PUSH20 0xFFFFFFFFFFFFFFFFFFFFFFFFFFFFFFFFFFFFFFFF AND PUSH20 0xFFFFFFFFFFFFFFFFFFFFFFFFFFFFFFFFFFFFFFFF AND DUP2 MSTORE PUSH1 0x20 ADD SWAP1 DUP2 MSTORE PUSH1 0x20 ADD PUSH1 0x0 KECCAK256 SLOAD PUSH2 0x155D SWAP1 SWAP2 SWAP1 PUSH4 0xFFFFFFFF AND JUMP JUMPDEST JUMPDEST PUSH1 0x8 PUSH1 0x0 DUP8 PUSH20 0xFFFFFFFFFFFFFFFFFFFFFFFFFFFFFFFFFFFFFFFF AND PUSH20 0xFFFFFFFFFFFFFFFFFFFFFFFFFFFFFFFFFFFFFFFF AND DUP2 MSTORE PUSH1 0x20 ADD SWAP1 DUP2 MSTORE PUSH1 0x20 ADD PUSH1 0x0 KECCAK256 PUSH1 0x0 DUP7 PUSH20 0xFFFFFFFFFFFFFFFFFFFFFFFFFFFFFFFFFFFFFFFF AND PUSH20 0xFFFFFFFFFFFFFFFFFFFFFFFFFFFFFFFFFFFFFFFF AND DUP2 MSTORE PUSH1 0x20 ADD SWAP1 DUP2 MSTORE PUSH1 0x20 ADD PUSH1 0x0 KECCAK256 DUP2 SWAP1 SSTORE POP POP POP POP POP POP JUMP JUMPDEST PUSH2 0x11E3 DUP2 PUSH2 0x11DE PUSH2 0x135C JUMP JUMPDEST PUSH2 0x1573 JUMP JUMPDEST POP JUMP JUMPDEST PUSH1 0x0 DUP2 DUP4 PUSH2 0x11F4 SWAP2 SWAP1 PUSH2 0x1F9A JUMP JUMPDEST SWAP1 POP SWAP3 SWAP2 POP POP JUMP JUMPDEST PUSH1 0x0 DUP2 DUP4 PUSH2 0x120A SWAP2 SWAP1 PUSH2 0x1FCB JUMP JUMPDEST SWAP1 POP SWAP3 SWAP2 POP POP JUMP JUMPDEST PUSH1 0x0 PUSH32 0x1FFC9A700000000000000000000000000000000000000000000000000000000 PUSH28 0xFFFFFFFFFFFFFFFFFFFFFFFFFFFFFFFFFFFFFFFFFFFFFFFFFFFFFFFF NOT AND DUP3 PUSH28 0xFFFFFFFFFFFFFFFFFFFFFFFFFFFFFFFFFFFFFFFFFFFFFFFFFFFFFFFF NOT AND EQ SWAP1 POP SWAP2 SWAP1 POP JUMP JUMPDEST PUSH2 0x1286 DUP3 DUP3 PUSH2 0x915 JUMP JUMPDEST PUSH2 0x1358 JUMPI PUSH1 0x1 PUSH1 0x0 DUP1 DUP5 DUP2 MSTORE PUSH1 0x20 ADD SWAP1 DUP2 MSTORE PUSH1 0x20 ADD PUSH1 0x0 KECCAK256 PUSH1 0x0 ADD PUSH1 0x0 DUP4 PUSH20 0xFFFFFFFFFFFFFFFFFFFFFFFFFFFFFFFFFFFFFFFF AND PUSH20 0xFFFFFFFFFFFFFFFFFFFFFFFFFFFFFFFFFFFFFFFF AND DUP2 MSTORE PUSH1 0x20 ADD SWAP1 DUP2 MSTORE PUSH1 0x20 ADD PUSH1 0x0 KECCAK256 PUSH1 0x0 PUSH2 0x100 EXP DUP2 SLOAD DUP2 PUSH1 0xFF MUL NOT AND SWAP1 DUP4 ISZERO ISZERO MUL OR SWAP1 SSTORE POP PUSH2 0x12FD PUSH2 0x135C JUMP JUMPDEST PUSH20 0xFFFFFFFFFFFFFFFFFFFFFFFFFFFFFFFFFFFFFFFF AND DUP2 PUSH20 0xFFFFFFFFFFFFFFFFFFFFFFFFFFFFFFFFFFFFFFFF AND DUP4 PUSH32 0x2F8788117E7EFF1D82E926EC794901D17C78024A50270940304540A733656F0D PUSH1 0x40 MLOAD PUSH1 0x40 MLOAD DUP1 SWAP2 SUB SWAP1 LOG4 JUMPDEST POP POP JUMP JUMPDEST PUSH1 0x0 CALLER SWAP1 POP SWAP1 JUMP JUMPDEST PUSH2 0x136E DUP3 DUP3 PUSH2 0x915 JUMP JUMPDEST ISZERO PUSH2 0x1441 JUMPI PUSH1 0x0 DUP1 PUSH1 0x0 DUP5 DUP2 MSTORE PUSH1 0x20 ADD SWAP1 DUP2 MSTORE PUSH1 0x20 ADD PUSH1 0x0 KECCAK256 PUSH1 0x0 ADD PUSH1 0x0 DUP4 PUSH20 0xFFFFFFFFFFFFFFFFFFFFFFFFFFFFFFFFFFFFFFFF AND PUSH20 0xFFFFFFFFFFFFFFFFFFFFFFFFFFFFFFFFFFFFFFFF AND DUP2 MSTORE PUSH1 0x20 ADD SWAP1 DUP2 MSTORE PUSH1 0x20 ADD PUSH1 0x0 KECCAK256 PUSH1 0x0 PUSH2 0x100 EXP DUP2 SLOAD DUP2 PUSH1 0xFF MUL NOT AND SWAP1 DUP4 ISZERO ISZERO MUL OR SWAP1 SSTORE POP PUSH2 0x13E6 PUSH2 0x135C JUMP JUMPDEST PUSH20 0xFFFFFFFFFFFFFFFFFFFFFFFFFFFFFFFFFFFFFFFF AND DUP2 PUSH20 0xFFFFFFFFFFFFFFFFFFFFFFFFFFFFFFFFFFFFFFFF AND DUP4 PUSH32 0xF6391F5C32D9C69D2A47EA670B442974B53935D1EDC7FD64EB21E047A839171B PUSH1 0x40 MLOAD PUSH1 0x40 MLOAD DUP1 SWAP2 SUB SWAP1 LOG4 JUMPDEST POP POP JUMP JUMPDEST PUSH1 0x0 PUSH1 0x9 PUSH1 0x1 SWAP1 SLOAD SWAP1 PUSH2 0x100 EXP SWAP1 DIV PUSH1 0xFF AND ISZERO PUSH2 0x14BD JUMPI PUSH1 0x1 DUP3 PUSH1 0xFF AND EQ DUP1 ISZERO PUSH2 0x1475 JUMPI POP PUSH2 0x1473 ADDRESS PUSH2 0x1610 JUMP JUMPDEST ISZERO JUMPDEST PUSH2 0x14B4 JUMPI PUSH1 0x40 MLOAD PUSH32 0x8C379A000000000000000000000000000000000000000000000000000000000 DUP2 MSTORE PUSH1 0x4 ADD PUSH2 0x14AB SWAP1 PUSH2 0x1E86 JUMP JUMPDEST PUSH1 0x40 MLOAD DUP1 SWAP2 SUB SWAP1 REVERT JUMPDEST PUSH1 0x0 SWAP1 POP PUSH2 0x1534 JUMP JUMPDEST DUP2 PUSH1 0xFF AND PUSH1 0x9 PUSH1 0x0 SWAP1 SLOAD SWAP1 PUSH2 0x100 EXP SWAP1 DIV PUSH1 0xFF AND PUSH1 0xFF AND LT PUSH2 0x1514 JUMPI PUSH1 0x40 MLOAD PUSH32 0x8C379A000000000000000000000000000000000000000000000000000000000 DUP2 MSTORE PUSH1 0x4 ADD PUSH2 0x150B SWAP1 PUSH2 0x1E86 JUMP JUMPDEST PUSH1 0x40 MLOAD DUP1 SWAP2 SUB SWAP1 REVERT JUMPDEST DUP2 PUSH1 0x9 PUSH1 0x0 PUSH2 0x100 EXP DUP2 SLOAD DUP2 PUSH1 0xFF MUL NOT AND SWAP1 DUP4 PUSH1 0xFF AND MUL OR SWAP1 SSTORE POP PUSH1 0x1 SWAP1 POP JUMPDEST SWAP2 SWAP1 POP JUMP JUMPDEST PUSH2 0x1543 DUP3 DUP3 PUSH2 0x127C JUMP JUMPDEST POP POP JUMP JUMPDEST PUSH1 0x0 DUP2 DUP4 PUSH2 0x1555 SWAP2 SWAP1 PUSH2 0x2025 JUMP JUMPDEST SWAP1 POP SWAP3 SWAP2 POP POP JUMP JUMPDEST PUSH1 0x0 DUP2 DUP4 PUSH2 0x156B SWAP2 SWAP1 PUSH2 0x1F44 JUMP JUMPDEST SWAP1 POP SWAP3 SWAP2 POP POP JUMP JUMPDEST PUSH2 0x157D DUP3 DUP3 PUSH2 0x915 JUMP JUMPDEST PUSH2 0x160C JUMPI PUSH2 0x15A2 DUP2 PUSH20 0xFFFFFFFFFFFFFFFFFFFFFFFFFFFFFFFFFFFFFFFF AND PUSH1 0x14 PUSH2 0x1633 JUMP JUMPDEST PUSH2 0x15B0 DUP4 PUSH1 0x0 SHR PUSH1 0x20 PUSH2 0x1633 JUMP JUMPDEST PUSH1 0x40 MLOAD PUSH1 0x20 ADD PUSH2 0x15C1 SWAP3 SWAP2 SWAP1 PUSH2 0x1D53 JUMP JUMPDEST PUSH1 0x40 MLOAD PUSH1 0x20 DUP2 DUP4 SUB SUB DUP2 MSTORE SWAP1 PUSH1 0x40 MSTORE PUSH1 0x40 MLOAD PUSH32 0x8C379A000000000000000000000000000000000000000000000000000000000 DUP2 MSTORE PUSH1 0x4 ADD PUSH2 0x1603 SWAP2 SWAP1 PUSH2 0x1E44 JUMP JUMPDEST PUSH1 0x40 MLOAD DUP1 SWAP2 SUB SWAP1 REVERT JUMPDEST POP POP JUMP JUMPDEST PUSH1 0x0 DUP1 DUP3 PUSH20 0xFFFFFFFFFFFFFFFFFFFFFFFFFFFFFFFFFFFFFFFF AND EXTCODESIZE GT SWAP1 POP SWAP2 SWAP1 POP JUMP JUMPDEST PUSH1 0x60 PUSH1 0x0 PUSH1 0x2 DUP4 PUSH1 0x2 PUSH2 0x1646 SWAP2 SWAP1 PUSH2 0x1FCB JUMP JUMPDEST PUSH2 0x1650 SWAP2 SWAP1 PUSH2 0x1F44 JUMP JUMPDEST PUSH8 0xFFFFFFFFFFFFFFFF DUP2 GT ISZERO PUSH2 0x1669 JUMPI PUSH2 0x1668 PUSH2 0x21E0 JUMP JUMPDEST JUMPDEST PUSH1 0x40 MLOAD SWAP1 DUP1 DUP3 MSTORE DUP1 PUSH1 0x1F ADD PUSH1 0x1F NOT AND PUSH1 0x20 ADD DUP3 ADD PUSH1 0x40 MSTORE DUP1 ISZERO PUSH2 0x169B JUMPI DUP2 PUSH1 0x20 ADD PUSH1 0x1 DUP3 MUL DUP1 CALLDATASIZE DUP4 CALLDATACOPY DUP1 DUP3 ADD SWAP2 POP POP SWAP1 POP JUMPDEST POP SWAP1 POP PUSH32 0x3000000000000000000000000000000000000000000000000000000000000000 DUP2 PUSH1 0x0 DUP2 MLOAD DUP2 LT PUSH2 0x16D3 JUMPI PUSH2 0x16D2 PUSH2 0x21B1 JUMP JUMPDEST JUMPDEST PUSH1 0x20 ADD ADD SWAP1 PUSH31 0xFFFFFFFFFFFFFFFFFFFFFFFFFFFFFFFFFFFFFFFFFFFFFFFFFFFFFFFFFFFFFF NOT AND SWAP1 DUP2 PUSH1 0x0 BYTE SWAP1 MSTORE8 POP PUSH32 0x7800000000000000000000000000000000000000000000000000000000000000 DUP2 PUSH1 0x1 DUP2 MLOAD DUP2 LT PUSH2 0x1737 JUMPI PUSH2 0x1736 PUSH2 0x21B1 JUMP JUMPDEST JUMPDEST PUSH1 0x20 ADD ADD SWAP1 PUSH31 0xFFFFFFFFFFFFFFFFFFFFFFFFFFFFFFFFFFFFFFFFFFFFFFFFFFFFFFFFFFFFFF NOT AND SWAP1 DUP2 PUSH1 0x0 BYTE SWAP1 MSTORE8 POP PUSH1 0x0 PUSH1 0x1 DUP5 PUSH1 0x2 PUSH2 0x1777 SWAP2 SWAP1 PUSH2 0x1FCB JUMP JUMPDEST PUSH2 0x1781 SWAP2 SWAP1 PUSH2 0x1F44 JUMP JUMPDEST SWAP1 POP JUMPDEST PUSH1 0x1 DUP2 GT ISZERO PUSH2 0x1821 JUMPI PUSH32 0x3031323334353637383961626364656600000000000000000000000000000000 PUSH1 0xF DUP7 AND PUSH1 0x10 DUP2 LT PUSH2 0x17C3 JUMPI PUSH2 0x17C2 PUSH2 0x21B1 JUMP JUMPDEST JUMPDEST BYTE PUSH1 0xF8 SHL DUP3 DUP3 DUP2 MLOAD DUP2 LT PUSH2 0x17DA JUMPI PUSH2 0x17D9 PUSH2 0x21B1 JUMP JUMPDEST JUMPDEST PUSH1 0x20 ADD ADD SWAP1 PUSH31 0xFFFFFFFFFFFFFFFFFFFFFFFFFFFFFFFFFFFFFFFFFFFFFFFFFFFFFFFFFFFFFF NOT AND SWAP1 DUP2 PUSH1 0x0 BYTE SWAP1 MSTORE8 POP PUSH1 0x4 DUP6 SWAP1 SHR SWAP5 POP DUP1 PUSH2 0x181A SWAP1 PUSH2 0x2129 JUMP JUMPDEST SWAP1 POP PUSH2 0x1784 JUMP JUMPDEST POP PUSH1 0x0 DUP5 EQ PUSH2 0x1865 JUMPI PUSH1 0x40 MLOAD PUSH32 0x8C379A000000000000000000000000000000000000000000000000000000000 DUP2 MSTORE PUSH1 0x4 ADD PUSH2 0x185C SWAP1 PUSH2 0x1E66 JUMP JUMPDEST PUSH1 0x40 MLOAD DUP1 SWAP2 SUB SWAP1 REVERT JUMPDEST DUP1 SWAP2 POP POP SWAP3 SWAP2 POP POP JUMP JUMPDEST PUSH1 0x0 DUP2 CALLDATALOAD SWAP1 POP PUSH2 0x187E DUP2 PUSH2 0x240B JUMP JUMPDEST SWAP3 SWAP2 POP POP JUMP JUMPDEST PUSH1 0x0 DUP2 CALLDATALOAD SWAP1 POP PUSH2 0x1893 DUP2 PUSH2 0x2422 JUMP JUMPDEST SWAP3 SWAP2 POP POP JUMP JUMPDEST PUSH1 0x0 DUP2 CALLDATALOAD SWAP1 POP PUSH2 0x18A8 DUP2 PUSH2 0x2439 JUMP JUMPDEST SWAP3 SWAP2 POP POP JUMP JUMPDEST PUSH1 0x0 DUP2 CALLDATALOAD SWAP1 POP PUSH2 0x18BD DUP2 PUSH2 0x2450 JUMP JUMPDEST SWAP3 SWAP2 POP POP JUMP JUMPDEST PUSH1 0x0 DUP2 CALLDATALOAD SWAP1 POP PUSH2 0x18D2 DUP2 PUSH2 0x2467 JUMP JUMPDEST SWAP3 SWAP2 POP POP JUMP JUMPDEST PUSH1 0x0 PUSH1 0x20 DUP3 DUP5 SUB SLT ISZERO PUSH2 0x18EE JUMPI PUSH2 0x18ED PUSH2 0x220F JUMP JUMPDEST JUMPDEST PUSH1 0x0 PUSH2 0x18FC DUP5 DUP3 DUP6 ADD PUSH2 0x186F JUMP JUMPDEST SWAP2 POP POP SWAP3 SWAP2 POP POP JUMP JUMPDEST PUSH1 0x0 DUP1 PUSH1 0x40 DUP4 DUP6 SUB SLT ISZERO PUSH2 0x191C JUMPI PUSH2 0x191B PUSH2 0x220F JUMP JUMPDEST JUMPDEST PUSH1 0x0 PUSH2 0x192A DUP6 DUP3 DUP7 ADD PUSH2 0x186F JUMP JUMPDEST SWAP3 POP POP PUSH1 0x20 PUSH2 0x193B DUP6 DUP3 DUP7 ADD PUSH2 0x186F JUMP JUMPDEST SWAP2 POP POP SWAP3 POP SWAP3 SWAP1 POP JUMP JUMPDEST PUSH1 0x0 DUP1 PUSH1 0x0 DUP1 PUSH1 0x80 DUP6 DUP8 SUB SLT ISZERO PUSH2 0x195F JUMPI PUSH2 0x195E PUSH2 0x220F JUMP JUMPDEST JUMPDEST PUSH1 0x0 PUSH2 0x196D DUP8 DUP3 DUP9 ADD PUSH2 0x186F JUMP JUMPDEST SWAP5 POP POP PUSH1 0x20 PUSH2 0x197E DUP8 DUP3 DUP9 ADD PUSH2 0x186F JUMP JUMPDEST SWAP4 POP POP PUSH1 0x40 PUSH2 0x198F DUP8 DUP3 DUP9 ADD PUSH2 0x18C3 JUMP JUMPDEST SWAP3 POP POP PUSH1 0x60 PUSH2 0x19A0 DUP8 DUP3 DUP9 ADD PUSH2 0x1884 JUMP JUMPDEST SWAP2 POP POP SWAP3 SWAP6 SWAP2 SWAP5 POP SWAP3 POP JUMP JUMPDEST PUSH1 0x0 PUSH1 0x20 DUP3 DUP5 SUB SLT ISZERO PUSH2 0x19C2 JUMPI PUSH2 0x19C1 PUSH2 0x220F JUMP JUMPDEST JUMPDEST PUSH1 0x0 PUSH2 0x19D0 DUP5 DUP3 DUP6 ADD PUSH2 0x1899 JUMP JUMPDEST SWAP2 POP POP SWAP3 SWAP2 POP POP JUMP JUMPDEST PUSH1 0x0 DUP1 PUSH1 0x40 DUP4 DUP6 SUB SLT ISZERO PUSH2 0x19F0 JUMPI PUSH2 0x19EF PUSH2 0x220F JUMP JUMPDEST JUMPDEST PUSH1 0x0 PUSH2 0x19FE DUP6 DUP3 DUP7 ADD PUSH2 0x1899 JUMP JUMPDEST SWAP3 POP POP PUSH1 0x20 PUSH2 0x1A0F DUP6 DUP3 DUP7 ADD PUSH2 0x186F JUMP JUMPDEST SWAP2 POP POP SWAP3 POP SWAP3 SWAP1 POP JUMP JUMPDEST PUSH1 0x0 PUSH1 0x20 DUP3 DUP5 SUB SLT ISZERO PUSH2 0x1A2F JUMPI PUSH2 0x1A2E PUSH2 0x220F JUMP JUMPDEST JUMPDEST PUSH1 0x0 PUSH2 0x1A3D DUP5 DUP3 DUP6 ADD PUSH2 0x18AE JUMP JUMPDEST SWAP2 POP POP SWAP3 SWAP2 POP POP JUMP JUMPDEST PUSH1 0x0 PUSH1 0x20 DUP3 DUP5 SUB SLT ISZERO PUSH2 0x1A5C JUMPI PUSH2 0x1A5B PUSH2 0x220F JUMP JUMPDEST JUMPDEST PUSH1 0x0 PUSH2 0x1A6A DUP5 DUP3 DUP6 ADD PUSH2 0x18C3 JUMP JUMPDEST SWAP2 POP POP SWAP3 SWAP2 POP POP JUMP JUMPDEST PUSH1 0x0 DUP1 PUSH1 0x40 DUP4 DUP6 SUB SLT ISZERO PUSH2 0x1A8A JUMPI PUSH2 0x1A89 PUSH2 0x220F JUMP JUMPDEST JUMPDEST PUSH1 0x0 PUSH2 0x1A98 DUP6 DUP3 DUP7 ADD PUSH2 0x18C3 JUMP JUMPDEST SWAP3 POP POP PUSH1 0x20 PUSH2 0x1AA9 DUP6 DUP3 DUP7 ADD PUSH2 0x18C3 JUMP JUMPDEST SWAP2 POP POP SWAP3 POP SWAP3 SWAP1 POP JUMP JUMPDEST PUSH2 0x1ABC DUP2 PUSH2 0x2059 JUMP JUMPDEST DUP3 MSTORE POP POP JUMP JUMPDEST PUSH2 0x1ACB DUP2 PUSH2 0x206B JUMP JUMPDEST DUP3 MSTORE POP POP JUMP JUMPDEST PUSH2 0x1ADA DUP2 PUSH2 0x2077 JUMP JUMPDEST DUP3 MSTORE POP POP JUMP JUMPDEST PUSH1 0x0 PUSH2 0x1AEB DUP3 PUSH2 0x1F01 JUMP JUMPDEST PUSH2 0x1AF5 DUP2 DUP6 PUSH2 0x1F17 JUMP JUMPDEST SWAP4 POP PUSH2 0x1B05 DUP2 DUP6 PUSH1 0x20 DUP7 ADD PUSH2 0x20F6 JUMP JUMPDEST PUSH2 0x1B0E DUP2 PUSH2 0x2214 JUMP JUMPDEST DUP5 ADD SWAP2 POP POP SWAP3 SWAP2 POP POP JUMP JUMPDEST PUSH2 0x1B22 DUP2 PUSH2 0x20E4 JUMP JUMPDEST DUP3 MSTORE POP POP JUMP JUMPDEST PUSH1 0x0 PUSH2 0x1B33 DUP3 PUSH2 0x1F0C JUMP JUMPDEST PUSH2 0x1B3D DUP2 DUP6 PUSH2 0x1F28 JUMP JUMPDEST SWAP4 POP PUSH2 0x1B4D DUP2 DUP6 PUSH1 0x20 DUP7 ADD PUSH2 0x20F6 JUMP JUMPDEST PUSH2 0x1B56 DUP2 PUSH2 0x2214 JUMP JUMPDEST DUP5 ADD SWAP2 POP POP SWAP3 SWAP2 POP POP JUMP JUMPDEST PUSH1 0x0 PUSH2 0x1B6C DUP3 PUSH2 0x1F0C JUMP JUMPDEST PUSH2 0x1B76 DUP2 DUP6 PUSH2 0x1F39 JUMP JUMPDEST SWAP4 POP PUSH2 0x1B86 DUP2 DUP6 PUSH1 0x20 DUP7 ADD PUSH2 0x20F6 JUMP JUMPDEST DUP1 DUP5 ADD SWAP2 POP POP SWAP3 SWAP2 POP POP JUMP JUMPDEST PUSH1 0x0 PUSH2 0x1B9F PUSH1 0x20 DUP4 PUSH2 0x1F28 JUMP JUMPDEST SWAP2 POP PUSH2 0x1BAA DUP3 PUSH2 0x2225 JUMP JUMPDEST PUSH1 0x20 DUP3 ADD SWAP1 POP SWAP2 SWAP1 POP JUMP JUMPDEST PUSH1 0x0 PUSH2 0x1BC2 PUSH1 0x17 DUP4 PUSH2 0x1F39 JUMP JUMPDEST SWAP2 POP PUSH2 0x1BCD DUP3 PUSH2 0x224E JUMP JUMPDEST PUSH1 0x17 DUP3 ADD SWAP1 POP SWAP2 SWAP1 POP JUMP JUMPDEST PUSH1 0x0 PUSH2 0x1BE5 PUSH1 0x19 DUP4 PUSH2 0x1F39 JUMP JUMPDEST SWAP2 POP PUSH2 0x1BF0 DUP3 PUSH2 0x2277 JUMP JUMPDEST PUSH1 0x19 DUP3 ADD SWAP1 POP SWAP2 SWAP1 POP JUMP JUMPDEST PUSH1 0x0 PUSH2 0x1C08 PUSH1 0x2E DUP4 PUSH2 0x1F28 JUMP JUMPDEST SWAP2 POP PUSH2 0x1C13 DUP3 PUSH2 0x22A0 JUMP JUMPDEST PUSH1 0x40 DUP3 ADD SWAP1 POP SWAP2 SWAP1 POP JUMP JUMPDEST PUSH1 0x0 PUSH2 0x1C2B PUSH1 0x16 DUP4 PUSH2 0x1F39 JUMP JUMPDEST SWAP2 POP PUSH2 0x1C36 DUP3 PUSH2 0x22EF JUMP JUMPDEST PUSH1 0x16 DUP3 ADD SWAP1 POP SWAP2 SWAP1 POP JUMP JUMPDEST PUSH1 0x0 PUSH2 0x1C4E PUSH1 0x19 DUP4 PUSH2 0x1F39 JUMP JUMPDEST SWAP2 POP PUSH2 0x1C59 DUP3 PUSH2 0x2318 JUMP JUMPDEST PUSH1 0x19 DUP3 ADD SWAP1 POP SWAP2 SWAP1 POP JUMP JUMPDEST PUSH1 0x0 PUSH2 0x1C71 PUSH1 0x17 DUP4 PUSH2 0x1F39 JUMP JUMPDEST SWAP2 POP PUSH2 0x1C7C DUP3 PUSH2 0x2341 JUMP JUMPDEST PUSH1 0x17 DUP3 ADD SWAP1 POP SWAP2 SWAP1 POP JUMP JUMPDEST PUSH1 0x0 PUSH2 0x1C94 PUSH1 0x7 DUP4 PUSH2 0x1F28 JUMP JUMPDEST SWAP2 POP PUSH2 0x1C9F DUP3 PUSH2 0x236A JUMP JUMPDEST PUSH1 0x20 DUP3 ADD SWAP1 POP SWAP2 SWAP1 POP JUMP JUMPDEST PUSH1 0x0 PUSH2 0x1CB7 PUSH1 0x11 DUP4 PUSH2 0x1F39 JUMP JUMPDEST SWAP2 POP PUSH2 0x1CC2 DUP3 PUSH2 0x2393 JUMP JUMPDEST PUSH1 0x11 DUP3 ADD SWAP1 POP SWAP2 SWAP1 POP JUMP JUMPDEST PUSH1 0x0 PUSH2 0x1CDA PUSH1 0x2F DUP4 PUSH2 0x1F28 JUMP JUMPDEST SWAP2 POP PUSH2 0x1CE5 DUP3 PUSH2 0x23BC JUMP JUMPDEST PUSH1 0x40 DUP3 ADD SWAP1 POP SWAP2 SWAP1 POP JUMP JUMPDEST PUSH2 0x1CF9 DUP2 PUSH2 0x20CD JUMP JUMPDEST DUP3 MSTORE POP POP JUMP JUMPDEST PUSH1 0x0 PUSH2 0x1D0A DUP3 PUSH2 0x1BB5 JUMP JUMPDEST SWAP2 POP DUP2 SWAP1 POP SWAP2 SWAP1 POP JUMP JUMPDEST PUSH1 0x0 PUSH2 0x1D1F DUP3 PUSH2 0x1BD8 JUMP JUMPDEST SWAP2 POP DUP2 SWAP1 POP SWAP2 SWAP1 POP JUMP JUMPDEST PUSH1 0x0 PUSH2 0x1D34 DUP3 PUSH2 0x1C1E JUMP JUMPDEST SWAP2 POP DUP2 SWAP1 POP SWAP2 SWAP1 POP JUMP JUMPDEST PUSH1 0x0 PUSH2 0x1D49 DUP3 PUSH2 0x1C41 JUMP JUMPDEST SWAP2 POP DUP2 SWAP1 POP SWAP2 SWAP1 POP JUMP JUMPDEST PUSH1 0x0 PUSH2 0x1D5E DUP3 PUSH2 0x1C64 JUMP JUMPDEST SWAP2 POP PUSH2 0x1D6A DUP3 DUP6 PUSH2 0x1B61 JUMP JUMPDEST SWAP2 POP PUSH2 0x1D75 DUP3 PUSH2 0x1CAA JUMP JUMPDEST SWAP2 POP PUSH2 0x1D81 DUP3 DUP5 PUSH2 0x1B61 JUMP JUMPDEST SWAP2 POP DUP2 SWAP1 POP SWAP4 SWAP3 POP POP POP JUMP JUMPDEST PUSH1 0x0 PUSH1 0x20 DUP3 ADD SWAP1 POP PUSH2 0x1DA2 PUSH1 0x0 DUP4 ADD DUP5 PUSH2 0x1AB3 JUMP JUMPDEST SWAP3 SWAP2 POP POP JUMP JUMPDEST PUSH1 0x0 PUSH1 0x40 DUP3 ADD SWAP1 POP PUSH2 0x1DBD PUSH1 0x0 DUP4 ADD DUP6 PUSH2 0x1AB3 JUMP JUMPDEST PUSH2 0x1DCA PUSH1 0x20 DUP4 ADD DUP5 PUSH2 0x1AB3 JUMP JUMPDEST SWAP4 SWAP3 POP POP POP JUMP JUMPDEST PUSH1 0x0 PUSH1 0x20 DUP3 ADD SWAP1 POP PUSH2 0x1DE6 PUSH1 0x0 DUP4 ADD DUP5 PUSH2 0x1AC2 JUMP JUMPDEST SWAP3 SWAP2 POP POP JUMP JUMPDEST PUSH1 0x0 PUSH1 0x20 DUP3 ADD SWAP1 POP PUSH2 0x1E01 PUSH1 0x0 DUP4 ADD DUP5 PUSH2 0x1AD1 JUMP JUMPDEST SWAP3 SWAP2 POP POP JUMP JUMPDEST PUSH1 0x0 PUSH1 0x20 DUP3 ADD SWAP1 POP DUP2 DUP2 SUB PUSH1 0x0 DUP4 ADD MSTORE PUSH2 0x1E21 DUP2 DUP5 PUSH2 0x1AE0 JUMP JUMPDEST SWAP1 POP SWAP3 SWAP2 POP POP JUMP JUMPDEST PUSH1 0x0 PUSH1 0x20 DUP3 ADD SWAP1 POP PUSH2 0x1E3E PUSH1 0x0 DUP4 ADD DUP5 PUSH2 0x1B19 JUMP JUMPDEST SWAP3 SWAP2 POP POP JUMP JUMPDEST PUSH1 0x0 PUSH1 0x20 DUP3 ADD SWAP1 POP DUP2 DUP2 SUB PUSH1 0x0 DUP4 ADD MSTORE PUSH2 0x1E5E DUP2 DUP5 PUSH2 0x1B28 JUMP JUMPDEST SWAP1 POP SWAP3 SWAP2 POP POP JUMP JUMPDEST PUSH1 0x0 PUSH1 0x20 DUP3 ADD SWAP1 POP DUP2 DUP2 SUB PUSH1 0x0 DUP4 ADD MSTORE PUSH2 0x1E7F DUP2 PUSH2 0x1B92 JUMP JUMPDEST SWAP1 POP SWAP2 SWAP1 POP JUMP JUMPDEST PUSH1 0x0 PUSH1 0x20 DUP3 ADD SWAP1 POP DUP2 DUP2 SUB PUSH1 0x0 DUP4 ADD MSTORE PUSH2 0x1E9F DUP2 PUSH2 0x1BFB JUMP JUMPDEST SWAP1 POP SWAP2 SWAP1 POP JUMP JUMPDEST PUSH1 0x0 PUSH1 0x20 DUP3 ADD SWAP1 POP DUP2 DUP2 SUB PUSH1 0x0 DUP4 ADD MSTORE PUSH2 0x1EBF DUP2 PUSH2 0x1C87 JUMP JUMPDEST SWAP1 POP SWAP2 SWAP1 POP JUMP JUMPDEST PUSH1 0x0 PUSH1 0x20 DUP3 ADD SWAP1 POP DUP2 DUP2 SUB PUSH1 0x0 DUP4 ADD MSTORE PUSH2 0x1EDF DUP2 PUSH2 0x1CCD JUMP JUMPDEST SWAP1 POP SWAP2 SWAP1 POP JUMP JUMPDEST PUSH1 0x0 PUSH1 0x20 DUP3 ADD SWAP1 POP PUSH2 0x1EFB PUSH1 0x0 DUP4 ADD DUP5 PUSH2 0x1CF0 JUMP JUMPDEST SWAP3 SWAP2 POP POP JUMP JUMPDEST PUSH1 0x0 DUP2 MLOAD SWAP1 POP SWAP2 SWAP1 POP JUMP JUMPDEST PUSH1 0x0 DUP2 MLOAD SWAP1 POP SWAP2 SWAP1 POP JUMP JUMPDEST PUSH1 0x0 DUP3 DUP3 MSTORE PUSH1 0x20 DUP3 ADD SWAP1 POP SWAP3 SWAP2 POP POP JUMP JUMPDEST PUSH1 0x0 DUP3 DUP3 MSTORE PUSH1 0x20 DUP3 ADD SWAP1 POP SWAP3 SWAP2 POP POP JUMP JUMPDEST PUSH1 0x0 DUP2 SWAP1 POP SWAP3 SWAP2 POP POP JUMP JUMPDEST PUSH1 0x0 PUSH2 0x1F4F DUP3 PUSH2 0x20CD JUMP JUMPDEST SWAP2 POP PUSH2 0x1F5A DUP4 PUSH2 0x20CD JUMP JUMPDEST SWAP3 POP DUP3 PUSH32 0xFFFFFFFFFFFFFFFFFFFFFFFFFFFFFFFFFFFFFFFFFFFFFFFFFFFFFFFFFFFFFFFF SUB DUP3 GT ISZERO PUSH2 0x1F8F JUMPI PUSH2 0x1F8E PUSH2 0x2153 JUMP JUMPDEST JUMPDEST DUP3 DUP3 ADD SWAP1 POP SWAP3 SWAP2 POP POP JUMP JUMPDEST PUSH1 0x0 PUSH2 0x1FA5 DUP3 PUSH2 0x20CD JUMP JUMPDEST SWAP2 POP PUSH2 0x1FB0 DUP4 PUSH2 0x20CD JUMP JUMPDEST SWAP3 POP DUP3 PUSH2 0x1FC0 JUMPI PUSH2 0x1FBF PUSH2 0x2182 JUMP JUMPDEST JUMPDEST DUP3 DUP3 DIV SWAP1 POP SWAP3 SWAP2 POP POP JUMP JUMPDEST PUSH1 0x0 PUSH2 0x1FD6 DUP3 PUSH2 0x20CD JUMP JUMPDEST SWAP2 POP PUSH2 0x1FE1 DUP4 PUSH2 0x20CD JUMP JUMPDEST SWAP3 POP DUP2 PUSH32 0xFFFFFFFFFFFFFFFFFFFFFFFFFFFFFFFFFFFFFFFFFFFFFFFFFFFFFFFFFFFFFFFF DIV DUP4 GT DUP3 ISZERO ISZERO AND ISZERO PUSH2 0x201A JUMPI PUSH2 0x2019 PUSH2 0x2153 JUMP JUMPDEST JUMPDEST DUP3 DUP3 MUL SWAP1 POP SWAP3 SWAP2 POP POP JUMP JUMPDEST PUSH1 0x0 PUSH2 0x2030 DUP3 PUSH2 0x20CD JUMP JUMPDEST SWAP2 POP PUSH2 0x203B DUP4 PUSH2 0x20CD JUMP JUMPDEST SWAP3 POP DUP3 DUP3 LT ISZERO PUSH2 0x204E JUMPI PUSH2 0x204D PUSH2 0x2153 JUMP JUMPDEST JUMPDEST DUP3 DUP3 SUB SWAP1 POP SWAP3 SWAP2 POP POP JUMP JUMPDEST PUSH1 0x0 PUSH2 0x2064 DUP3 PUSH2 0x20AD JUMP JUMPDEST SWAP1 POP SWAP2 SWAP1 POP JUMP JUMPDEST PUSH1 0x0 DUP2 ISZERO ISZERO SWAP1 POP SWAP2 SWAP1 POP JUMP JUMPDEST PUSH1 0x0 DUP2 SWAP1 POP SWAP2 SWAP1 POP JUMP JUMPDEST PUSH1 0x0 PUSH32 0xFFFFFFFF00000000000000000000000000000000000000000000000000000000 DUP3 AND SWAP1 POP SWAP2 SWAP1 POP JUMP JUMPDEST PUSH1 0x0 PUSH20 0xFFFFFFFFFFFFFFFFFFFFFFFFFFFFFFFFFFFFFFFF DUP3 AND SWAP1 POP SWAP2 SWAP1 POP JUMP JUMPDEST PUSH1 0x0 DUP2 SWAP1 POP SWAP2 SWAP1 POP JUMP JUMPDEST PUSH1 0x0 PUSH1 0xFF DUP3 AND SWAP1 POP SWAP2 SWAP1 POP JUMP JUMPDEST PUSH1 0x0 PUSH2 0x20EF DUP3 PUSH2 0x20D7 JUMP JUMPDEST SWAP1 POP SWAP2 SWAP1 POP JUMP JUMPDEST PUSH1 0x0 JUMPDEST DUP4 DUP2 LT ISZERO PUSH2 0x2114 JUMPI DUP1 DUP3 ADD MLOAD DUP2 DUP5 ADD MSTORE PUSH1 0x20 DUP2 ADD SWAP1 POP PUSH2 0x20F9 JUMP JUMPDEST DUP4 DUP2 GT ISZERO PUSH2 0x2123 JUMPI PUSH1 0x0 DUP5 DUP5 ADD MSTORE JUMPDEST POP POP POP POP JUMP JUMPDEST PUSH1 0x0 PUSH2 0x2134 DUP3 PUSH2 0x20CD JUMP JUMPDEST SWAP2 POP PUSH1 0x0 DUP3 EQ ISZERO PUSH2 0x2148 JUMPI PUSH2 0x2147 PUSH2 0x2153 JUMP JUMPDEST JUMPDEST PUSH1 0x1 DUP3 SUB SWAP1 POP SWAP2 SWAP1 POP JUMP JUMPDEST PUSH32 0x4E487B7100000000000000000000000000000000000000000000000000000000 PUSH1 0x0 MSTORE PUSH1 0x11 PUSH1 0x4 MSTORE PUSH1 0x24 PUSH1 0x0 REVERT JUMPDEST PUSH32 0x4E487B7100000000000000000000000000000000000000000000000000000000 PUSH1 0x0 MSTORE PUSH1 0x12 PUSH1 0x4 MSTORE PUSH1 0x24 PUSH1 0x0 REVERT JUMPDEST PUSH32 0x4E487B7100000000000000000000000000000000000000000000000000000000 PUSH1 0x0 MSTORE PUSH1 0x32 PUSH1 0x4 MSTORE PUSH1 0x24 PUSH1 0x0 REVERT JUMPDEST PUSH32 0x4E487B7100000000000000000000000000000000000000000000000000000000 PUSH1 0x0 MSTORE PUSH1 0x41 PUSH1 0x4 MSTORE PUSH1 0x24 PUSH1 0x0 REVERT JUMPDEST PUSH1 0x0 DUP1 REVERT JUMPDEST PUSH1 0x0 PUSH1 0x1F NOT PUSH1 0x1F DUP4 ADD AND SWAP1 POP SWAP2 SWAP1 POP JUMP JUMPDEST PUSH32 0x537472696E67733A20686578206C656E67746820696E73756666696369656E74 PUSH1 0x0 DUP3 ADD MSTORE POP JUMP JUMPDEST PUSH32 0x4D46495F4D6F6E65795F41646D696E6973747261746F72000000000000000000 PUSH1 0x0 DUP3 ADD MSTORE POP JUMP JUMPDEST PUSH32 0x4D46495F50726F6A6563745F41646D696E6973747261746F7200000000000000 PUSH1 0x0 DUP3 ADD MSTORE POP JUMP JUMPDEST PUSH32 0x496E697469616C697A61626C653A20636F6E747261637420697320616C726561 PUSH1 0x0 DUP3 ADD MSTORE PUSH32 0x647920696E697469616C697A6564000000000000000000000000000000000000 PUSH1 0x20 DUP3 ADD MSTORE POP JUMP JUMPDEST PUSH32 0x4D46495F446174615F41646D696E6973747261746F7200000000000000000000 PUSH1 0x0 DUP3 ADD MSTORE POP JUMP JUMPDEST PUSH32 0x4D4554415F46494E414E43455F545249474745525F504F4F4C00000000000000 PUSH1 0x0 DUP3 ADD MSTORE POP JUMP JUMPDEST PUSH32 0x416363657373436F6E74726F6C3A206163636F756E7420000000000000000000 PUSH1 0x0 DUP3 ADD MSTORE POP JUMP JUMPDEST PUSH32 0x4D4643493A453100000000000000000000000000000000000000000000000000 PUSH1 0x0 DUP3 ADD MSTORE POP JUMP JUMPDEST PUSH32 0x206973206D697373696E6720726F6C6520000000000000000000000000000000 PUSH1 0x0 DUP3 ADD MSTORE POP JUMP JUMPDEST PUSH32 0x416363657373436F6E74726F6C3A2063616E206F6E6C792072656E6F756E6365 PUSH1 0x0 DUP3 ADD MSTORE PUSH32 0x20726F6C657320666F722073656C660000000000000000000000000000000000 PUSH1 0x20 DUP3 ADD MSTORE POP JUMP JUMPDEST PUSH2 0x2414 DUP2 PUSH2 0x2059 JUMP JUMPDEST DUP2 EQ PUSH2 0x241F JUMPI PUSH1 0x0 DUP1 REVERT JUMPDEST POP JUMP JUMPDEST PUSH2 0x242B DUP2 PUSH2 0x206B JUMP JUMPDEST DUP2 EQ PUSH2 0x2436 JUMPI PUSH1 0x0 DUP1 REVERT JUMPDEST POP JUMP JUMPDEST PUSH2 0x2442 DUP2 PUSH2 0x2077 JUMP JUMPDEST DUP2 EQ PUSH2 0x244D JUMPI PUSH1 0x0 DUP1 REVERT JUMPDEST POP JUMP JUMPDEST PUSH2 0x2459 DUP2 PUSH2 0x2081 JUMP JUMPDEST DUP2 EQ PUSH2 0x2464 JUMPI PUSH1 0x0 DUP1 REVERT JUMPDEST POP JUMP JUMPDEST PUSH2 0x2470 DUP2 PUSH2 0x20CD JUMP JUMPDEST DUP2 EQ PUSH2 0x247B JUMPI PUSH1 0x0 DUP1 REVERT JUMPDEST POP JUMP INVALID LOG2 PUSH5 0x6970667358 0x22 SLT KECCAK256 PUSH20 0x709E543F382AD82340333BD154E80667F6CFD93D DUP10 0xCF 0xE3 0xE3 0xF9 DUP4 STATICCALL 0xA8 PUSH32 0xC09364736F6C6343000806003300000000000000000000000000000000000000 "
				},
				"gasEstimates": {
					"creation": {
						"codeDepositCost": "1879200",
						"executionCost": "1983",
						"totalCost": "1881183"
					},
					"external": {
						"DATA_ADMINISTRATOR()": "768",
						"DEFAULT_ADMIN_ROLE()": "381",
						"MAX()": "443",
						"META_FINANCE_TRIGGER_POOL()": "702",
						"MONEY_ADMINISTRATOR()": "724",
						"PROJECT_ADMINISTRATOR()": "724",
						"boundClub(address,address)": "infinite",
						"calculateReward(address,address,uint256,bool)": "infinite",
						"clubArray(uint256)": "5001",
						"foundationData(address,address)": "infinite",
						"getInitializeAbi(address)": "infinite",
						"getRoleAdmin(bytes32)": "infinite",
						"grantRole(bytes32,address)": "infinite",
						"hasRole(bytes32,address)": "3229",
						"initialize(address)": "infinite",
						"noClub()": "2497",
						"proportion()": "2474",
						"renounceRole(bytes32,address)": "infinite",
						"revokeRole(bytes32,address)": "infinite",
						"setClubProportion(uint256,uint256)": "infinite",
						"setProportion(uint256)": "infinite",
						"setTreasuryAddress(address)": "infinite",
						"supportsInterface(bytes4)": "773",
						"treasuryAddress()": "2603",
						"userArray(uint256)": "5046",
						"userClub(address)": "infinite",
						"yesClub()": "2518"
					}
				},
				"methodIdentifiers": {
					"DATA_ADMINISTRATOR()": "2edcb16e",
					"DEFAULT_ADMIN_ROLE()": "a217fddf",
					"MAX()": "d49d5181",
					"META_FINANCE_TRIGGER_POOL()": "b9a503cd",
					"MONEY_ADMINISTRATOR()": "1e00887d",
					"PROJECT_ADMINISTRATOR()": "bd0dd4b2",
					"boundClub(address,address)": "c0f6f33f",
					"calculateReward(address,address,uint256,bool)": "ff380f77",
					"clubArray(uint256)": "d4b39b3a",
					"foundationData(address,address)": "de3d3c98",
					"getInitializeAbi(address)": "9867ea2e",
					"getRoleAdmin(bytes32)": "248a9ca3",
					"grantRole(bytes32,address)": "2f2ff15d",
					"hasRole(bytes32,address)": "91d14854",
					"initialize(address)": "c4d66de8",
					"noClub()": "0ea9fa1f",
					"proportion()": "5b4246d4",
					"renounceRole(bytes32,address)": "36568abe",
					"revokeRole(bytes32,address)": "d547741f",
					"setClubProportion(uint256,uint256)": "ddc10a2f",
					"setProportion(uint256)": "006cd200",
					"setTreasuryAddress(address)": "6605bfda",
					"supportsInterface(bytes4)": "01ffc9a7",
					"treasuryAddress()": "c5f956af",
					"userArray(uint256)": "41209af1",
					"userClub(address)": "ee286469",
					"yesClub()": "d5cf419b"
				}
			},
			"storageLayout": {
				"storage": [
					{
						"astId": 409,
						"contract": "contracts/MetaFinanceClubInfo.sol:MetaFinanceClubInfo",
						"label": "_roles",
						"offset": 0,
						"slot": "0",
						"type": "t_mapping(t_bytes32,t_struct(RoleData)404_storage)"
					},
					{
						"astId": 1707,
						"contract": "contracts/MetaFinanceClubInfo.sol:MetaFinanceClubInfo",
						"label": "proportion",
						"offset": 0,
						"slot": "1",
						"type": "t_uint256"
					},
					{
						"astId": 1679,
						"contract": "contracts/MetaFinanceClubInfo.sol:MetaFinanceClubInfo",
						"label": "yesClub",
						"offset": 0,
						"slot": "2",
						"type": "t_uint256"
					},
					{
						"astId": 1681,
						"contract": "contracts/MetaFinanceClubInfo.sol:MetaFinanceClubInfo",
						"label": "noClub",
						"offset": 0,
						"slot": "3",
						"type": "t_uint256"
					},
					{
						"astId": 1684,
						"contract": "contracts/MetaFinanceClubInfo.sol:MetaFinanceClubInfo",
						"label": "userArray",
						"offset": 0,
						"slot": "4",
						"type": "t_array(t_address)dyn_storage"
					},
					{
						"astId": 1687,
						"contract": "contracts/MetaFinanceClubInfo.sol:MetaFinanceClubInfo",
						"label": "clubArray",
						"offset": 0,
						"slot": "5",
						"type": "t_array(t_address)dyn_storage"
					},
					{
						"astId": 1689,
						"contract": "contracts/MetaFinanceClubInfo.sol:MetaFinanceClubInfo",
						"label": "treasuryAddress",
						"offset": 0,
						"slot": "6",
						"type": "t_address"
					},
					{
						"astId": 1693,
						"contract": "contracts/MetaFinanceClubInfo.sol:MetaFinanceClubInfo",
						"label": "userClub",
						"offset": 0,
						"slot": "7",
						"type": "t_mapping(t_address,t_address)"
					},
					{
						"astId": 1699,
						"contract": "contracts/MetaFinanceClubInfo.sol:MetaFinanceClubInfo",
						"label": "foundationData",
						"offset": 0,
						"slot": "8",
						"type": "t_mapping(t_address,t_mapping(t_address,t_uint256))"
					},
					{
						"astId": 6,
						"contract": "contracts/MetaFinanceClubInfo.sol:MetaFinanceClubInfo",
						"label": "_initialized",
						"offset": 0,
						"slot": "9",
						"type": "t_uint8"
					},
					{
						"astId": 9,
						"contract": "contracts/MetaFinanceClubInfo.sol:MetaFinanceClubInfo",
						"label": "_initializing",
						"offset": 1,
						"slot": "9",
						"type": "t_bool"
					}
				],
				"types": {
					"t_address": {
						"encoding": "inplace",
						"label": "address",
						"numberOfBytes": "20"
					},
					"t_array(t_address)dyn_storage": {
						"base": "t_address",
						"encoding": "dynamic_array",
						"label": "address[]",
						"numberOfBytes": "32"
					},
					"t_bool": {
						"encoding": "inplace",
						"label": "bool",
						"numberOfBytes": "1"
					},
					"t_bytes32": {
						"encoding": "inplace",
						"label": "bytes32",
						"numberOfBytes": "32"
					},
					"t_mapping(t_address,t_address)": {
						"encoding": "mapping",
						"key": "t_address",
						"label": "mapping(address => address)",
						"numberOfBytes": "32",
						"value": "t_address"
					},
					"t_mapping(t_address,t_bool)": {
						"encoding": "mapping",
						"key": "t_address",
						"label": "mapping(address => bool)",
						"numberOfBytes": "32",
						"value": "t_bool"
					},
					"t_mapping(t_address,t_mapping(t_address,t_uint256))": {
						"encoding": "mapping",
						"key": "t_address",
						"label": "mapping(address => mapping(address => uint256))",
						"numberOfBytes": "32",
						"value": "t_mapping(t_address,t_uint256)"
					},
					"t_mapping(t_address,t_uint256)": {
						"encoding": "mapping",
						"key": "t_address",
						"label": "mapping(address => uint256)",
						"numberOfBytes": "32",
						"value": "t_uint256"
					},
					"t_mapping(t_bytes32,t_struct(RoleData)404_storage)": {
						"encoding": "mapping",
						"key": "t_bytes32",
						"label": "mapping(bytes32 => struct AccessControl.RoleData)",
						"numberOfBytes": "32",
						"value": "t_struct(RoleData)404_storage"
					},
					"t_struct(RoleData)404_storage": {
						"encoding": "inplace",
						"label": "struct AccessControl.RoleData",
						"members": [
							{
								"astId": 401,
								"contract": "contracts/MetaFinanceClubInfo.sol:MetaFinanceClubInfo",
								"label": "members",
								"offset": 0,
								"slot": "0",
								"type": "t_mapping(t_address,t_bool)"
							},
							{
								"astId": 403,
								"contract": "contracts/MetaFinanceClubInfo.sol:MetaFinanceClubInfo",
								"label": "adminRole",
								"offset": 0,
								"slot": "1",
								"type": "t_bytes32"
							}
						],
						"numberOfBytes": "64"
					},
					"t_uint256": {
						"encoding": "inplace",
						"label": "uint256",
						"numberOfBytes": "32"
					},
					"t_uint8": {
						"encoding": "inplace",
						"label": "uint8",
						"numberOfBytes": "1"
					}
				}
			},
			"userdoc": {
				"kind": "user",
				"methods": {},
				"notice": "MfiAccessControl, MfiClubStorages, Initializable",
				"version": 1
			}
		}
	}
}